{
  "abi": [
    {
      "inputs": [],
      "stateMutability": "nonpayable",
      "type": "constructor"
    },
    {
      "anonymous": false,
      "inputs": [
        {
          "indexed": true,
          "internalType": "address",
          "name": "from",
          "type": "address"
        },
        {
          "indexed": true,
          "internalType": "address",
          "name": "to",
          "type": "address"
        },
        {
          "indexed": false,
          "internalType": "uint256",
          "name": "amount",
          "type": "uint256"
        }
      ],
      "name": "Transfer",
      "type": "event"
    },
    {
      "inputs": [
        {
          "internalType": "address",
          "name": "",
          "type": "address"
        }
      ],
      "name": "balanceOf",
      "outputs": [
        {
          "internalType": "uint256",
          "name": "",
          "type": "uint256"
        }
      ],
      "stateMutability": "view",
      "type": "function"
    },
    {
      "inputs": [],
      "name": "decimals",
      "outputs": [
        {
          "internalType": "uint8",
          "name": "",
          "type": "uint8"
        }
      ],
      "stateMutability": "view",
      "type": "function"
    },
    {
      "inputs": [],
      "name": "getParticipants",
      "outputs": [
        {
          "internalType": "address[]",
          "name": "",
          "type": "address[]"
        }
      ],
      "stateMutability": "view",
      "type": "function"
    },
    {
      "inputs": [],
      "name": "mint",
      "outputs": [],
      "stateMutability": "nonpayable",
      "type": "function"
    },
    {
      "inputs": [
        {
          "internalType": "address",
          "name": "to",
          "type": "address"
        }
      ],
      "name": "mintTo",
      "outputs": [],
      "stateMutability": "nonpayable",
      "type": "function"
    },
    {
      "inputs": [],
      "name": "name",
      "outputs": [
        {
          "internalType": "string",
          "name": "",
          "type": "string"
        }
      ],
      "stateMutability": "view",
      "type": "function"
    },
    {
      "inputs": [],
      "name": "remains",
      "outputs": [
        {
          "internalType": "uint256",
          "name": "",
          "type": "uint256"
        }
      ],
      "stateMutability": "view",
      "type": "function"
    },
    {
      "inputs": [],
      "name": "symbol",
      "outputs": [
        {
          "internalType": "string",
          "name": "",
          "type": "string"
        }
      ],
      "stateMutability": "view",
      "type": "function"
    },
    {
      "inputs": [],
      "name": "totalSupply",
      "outputs": [
        {
          "internalType": "uint256",
          "name": "",
          "type": "uint256"
        }
      ],
      "stateMutability": "view",
      "type": "function"
    },
    {
      "inputs": [
        {
          "internalType": "address",
          "name": "to",
          "type": "address"
        },
        {
          "internalType": "uint256",
          "name": "amount",
          "type": "uint256"
        }
      ],
      "name": "transfer",
      "outputs": [
        {
          "internalType": "bool",
          "name": "",
          "type": "bool"
        }
      ],
      "stateMutability": "nonpayable",
      "type": "function"
    },
    {
      "inputs": [],
      "name": "trxCount",
      "outputs": [
        {
          "internalType": "uint256",
          "name": "",
          "type": "uint256"
        }
      ],
      "stateMutability": "view",
      "type": "function"
    }
  ],
  "bytecode": {
    "object": "0x60a060405234801561001057600080fd5b50604080518082019091526005815264454c4f434b60d81b602082015260009061003a90826101c3565b50604080518082019091526004815263454c434b60e01b602082015260019061006390826101c3565b5060026080526100753361271061007a565b6102a9565b806002600082825461008c9190610282565b909155505060058054600181019091557f036b6384b5eca791c62761152d0c79bb0604c104a5fb6f4eb0703f3154bb3db00180546001600160a01b0319166001600160a01b0384169081179091556000818152600460209081526040808320805486019055518481527fddf252ad1be2c89b69c2b068fc378daa952ba7f163c4a11628f55a4df523b3ef910160405180910390a35050565b634e487b7160e01b600052604160045260246000fd5b600181811c9082168061014e57607f821691505b60208210810361016e57634e487b7160e01b600052602260045260246000fd5b50919050565b601f8211156101be57600081815260208120601f850160051c8101602086101561019b5750805b601f850160051c820191505b818110156101ba578281556001016101a7565b5050505b505050565b81516001600160401b038111156101dc576101dc610124565b6101f0816101ea845461013a565b84610174565b602080601f831160018114610225576000841561020d5750858301515b600019600386901b1c1916600185901b1785556101ba565b600085815260208120601f198616915b8281101561025457888601518255948401946001909101908401610235565b50858210156102725787850151600019600388901b60f8161c191681555b5050505050600190811b01905550565b808201808211156102a357634e487b7160e01b600052601160045260246000fd5b92915050565b6080516105bf6102c3600039600060f201526105bf6000f3fe608060405234801561001057600080fd5b50600436106100a95760003560e01c806370a082311161007157806370a082311461013b578063755edd171461015b5780637d2674f11461016e57806395d89b4114610177578063a9059cbb1461017f578063c588ef6e146101a257600080fd5b806306fdde03146100ae5780631249c58b146100cc57806318160ddd146100d6578063313ce567146100ed5780635aa68ac014610126575b600080fd5b6100b66101ab565b6040516100c39190610410565b60405180910390f35b6100d4610239565b005b6100df60025481565b6040519081526020016100c3565b6101147f000000000000000000000000000000000000000000000000000000000000000081565b60405160ff90911681526020016100c3565b61012e610246565b6040516100c3919061045e565b6100df6101493660046104c7565b60046020526000908152604090205481565b6100d46101693660046104c7565b6102a8565b6100df60065481565b6100b66102b6565b61019261018d3660046104e9565b6102c3565b60405190151581526020016100c3565b6100df60035481565b600080546101b890610513565b80601f01602080910402602001604051908101604052809291908181526020018280546101e490610513565b80156102315780601f1061020657610100808354040283529160200191610231565b820191906000526020600020905b81548152906001019060200180831161021457829003601f168201915b505050505081565b610244336064610366565b565b6060600580548060200260200160405190810160405280929190818152602001828054801561029e57602002820191906000526020600020905b81546001600160a01b03168152600190910190602001808311610280575b5050505050905090565b6102b3816064610366565b50565b600180546101b890610513565b336000908152600460205260408120805483919083906102e4908490610563565b90915550506001600160a01b038316600081815260046020526040908190208054850190555133907fddf252ad1be2c89b69c2b068fc378daa952ba7f163c4a11628f55a4df523b3ef9061033b9086815260200190565b60405180910390a36001600660008282546103569190610576565b9091555060019150505b92915050565b80600260008282546103789190610576565b909155505060058054600181019091557f036b6384b5eca791c62761152d0c79bb0604c104a5fb6f4eb0703f3154bb3db00180546001600160a01b0319166001600160a01b0384169081179091556000818152600460209081526040808320805486019055518481527fddf252ad1be2c89b69c2b068fc378daa952ba7f163c4a11628f55a4df523b3ef910160405180910390a35050565b600060208083528351808285015260005b8181101561043d57858101830151858201604001528201610421565b506000604082860101526040601f19601f8301168501019250505092915050565b6020808252825182820181905260009190848201906040850190845b8181101561049f5783516001600160a01b03168352928401929184019160010161047a565b50909695505050505050565b80356001600160a01b03811681146104c257600080fd5b919050565b6000602082840312156104d957600080fd5b6104e2826104ab565b9392505050565b600080604083850312156104fc57600080fd5b610505836104ab565b946020939093013593505050565b600181811c9082168061052757607f821691505b60208210810361054757634e487b7160e01b600052602260045260246000fd5b50919050565b634e487b7160e01b600052601160045260246000fd5b818103818111156103605761036061054d565b808201808211156103605761036061054d56fea2646970667358221220f075961e66516e8eb6a4cc7a2a3f15c89074aa20221427a1059ad7779663bc4464736f6c63430008150033",
    "linkReferences": {}
  },
  "methodIdentifiers": {
    "balanceOf(address)": "70a08231",
    "decimals()": "313ce567",
    "getParticipants()": "5aa68ac0",
    "mint()": "1249c58b",
    "mintTo(address)": "755edd17",
    "name()": "06fdde03",
    "remains()": "c588ef6e",
    "symbol()": "95d89b41",
    "totalSupply()": "18160ddd",
    "transfer(address,uint256)": "a9059cbb",
    "trxCount()": "7d2674f1"
  },
  "id": 18
}