{
  "abi": [
    {
      "inputs": [],
      "stateMutability": "nonpayable",
      "type": "constructor"
    },
    {
      "inputs": [
        {
          "internalType": "uint256",
          "name": "pubkey",
          "type": "uint256"
        }
      ],
      "name": "deposit",
      "outputs": [],
      "stateMutability": "payable",
      "type": "function"
    },
    {
      "inputs": [],
      "name": "totalSupply",
      "outputs": [
        {
          "internalType": "uint256",
          "name": "",
          "type": "uint256"
        }
      ],
      "stateMutability": "view",
      "type": "function"
    },
    {
      "inputs": [],
      "name": "trxCount",
      "outputs": [
        {
          "internalType": "uint256",
          "name": "",
          "type": "uint256"
        }
      ],
      "stateMutability": "view",
      "type": "function"
    }
  ],
  "bytecode": {
    "object": "0x608060405234801561001057600080fd5b50610121806100206000396000f3fe60806040526004361060305760003560e01c806318160ddd1460355780637d2674f114605b578063b6b55f2514606f575b600080fd5b348015604057600080fd5b50604960005481565b60405190815260200160405180910390f35b348015606657600080fd5b50604960015481565b607e607a36600460ad565b6080565b005b60643411608c57600080fd5b6000805434018155600180549091829160a590839060c5565b909155505050565b60006020828403121560be57600080fd5b5035919050565b8082018082111560e557634e487b7160e01b600052601160045260246000fd5b9291505056fea2646970667358221220243d37b0dd4344fc27c66c584bc993d8531294940e28ccf631aff77a7665437c64736f6c63430008150033",
    "linkReferences": {}
  },
  "methodIdentifiers": {
    "deposit(uint256)": "b6b55f25",
    "totalSupply()": "18160ddd",
    "trxCount()": "7d2674f1"
  },
  "id": 18
}