{
  "abi": [
    {
      "inputs": [
        {
          "internalType": "uint256",
          "name": "initialL2Block",
          "type": "uint256"
        },
        {
          "internalType": "address[]",
          "name": "validatorSet",
          "type": "address[]"
        }
      ],
      "stateMutability": "nonpayable",
      "type": "constructor"
    },
    {
      "inputs": [],
      "name": "Unauthorized",
      "type": "error"
    },
    {
      "anonymous": false,
      "inputs": [
        {
          "indexed": true,
          "internalType": "uint256",
          "name": "proposalKey",
          "type": "uint256"
        }
      ],
      "name": "WithdrawExecuted",
      "type": "event"
    },
    {
      "anonymous": false,
      "inputs": [
        {
          "indexed": true,
          "internalType": "uint256",
          "name": "proposalKey",
          "type": "uint256"
        },
        {
          "indexed": true,
          "internalType": "address",
          "name": "voter",
          "type": "address"
        },
        {
          "indexed": false,
          "internalType": "uint8",
          "name": "reason",
          "type": "uint8"
        }
      ],
      "name": "WithdrawRejected",
      "type": "event"
    },
    {
      "anonymous": false,
      "inputs": [
        {
          "indexed": true,
          "internalType": "address",
          "name": "recepient",
          "type": "address"
        },
        {
          "indexed": false,
          "internalType": "uint256",
          "name": "value",
          "type": "uint256"
        },
        {
          "indexed": false,
          "internalType": "uint256",
          "name": "commission",
          "type": "uint256"
        }
      ],
      "name": "Withdrawal",
      "type": "event"
    },
    {
      "inputs": [
        {
          "internalType": "uint256",
          "name": "pubkey",
          "type": "uint256"
        }
      ],
      "name": "deposit",
      "outputs": [],
      "stateMutability": "payable",
      "type": "function"
    },
    {
      "inputs": [],
      "name": "freezeDeposits",
      "outputs": [],
      "stateMutability": "payable",
      "type": "function"
    },
    {
      "inputs": [],
      "name": "gasPrice",
      "outputs": [
        {
          "internalType": "uint256",
          "name": "",
          "type": "uint256"
        }
      ],
      "stateMutability": "view",
      "type": "function"
    },
    {
      "inputs": [
        {
          "internalType": "uint256",
          "name": "proposalKey",
          "type": "uint256"
        }
      ],
      "name": "getMyVoteForWithdrawal",
      "outputs": [
        {
          "internalType": "bool",
          "name": "isVoted",
          "type": "bool"
        }
      ],
      "stateMutability": "view",
      "type": "function"
    },
    {
      "inputs": [
        {
          "internalType": "uint256",
          "name": "proposalKey",
          "type": "uint256"
        }
      ],
      "name": "getProposal",
      "outputs": [
        {
          "internalType": "uint256",
          "name": "fromBlock",
          "type": "uint256"
        },
        {
          "internalType": "uint256",
          "name": "tillB",
          "type": "uint256"
        },
        {
          "components": [
            {
              "internalType": "address payable",
              "name": "to",
              "type": "address"
            },
            {
              "internalType": "uint256",
              "name": "value",
              "type": "uint256"
            },
            {
              "internalType": "uint256",
              "name": "trxHash",
              "type": "uint256"
            }
          ],
          "internalType": "struct Elock.Transfer[]",
          "name": "transfers",
          "type": "tuple[]"
        }
      ],
      "stateMutability": "view",
      "type": "function"
    },
    {
      "inputs": [],
      "name": "getProposalList",
      "outputs": [
        {
          "internalType": "uint256[]",
          "name": "proposalKeys",
          "type": "uint256[]"
        }
      ],
      "stateMutability": "view",
      "type": "function"
    },
    {
      "inputs": [],
      "name": "getProposedValidators",
      "outputs": [
        {
          "internalType": "address[]",
          "name": "proposedValidatorSet",
          "type": "address[]"
        }
      ],
      "stateMutability": "view",
      "type": "function"
    },
    {
      "inputs": [],
      "name": "getValidators",
      "outputs": [
        {
          "internalType": "address[]",
          "name": "currentValidatorSet",
          "type": "address[]"
        }
      ],
      "stateMutability": "view",
      "type": "function"
    },
    {
      "inputs": [
        {
          "internalType": "uint256",
          "name": "proposalKey",
          "type": "uint256"
        }
      ],
      "name": "getVotesForWithdrawal",
      "outputs": [
        {
          "internalType": "uint256",
          "name": "votes",
          "type": "uint256"
        }
      ],
      "stateMutability": "view",
      "type": "function"
    },
    {
      "inputs": [],
      "name": "lastProcessedL2Block",
      "outputs": [
        {
          "internalType": "uint256",
          "name": "",
          "type": "uint256"
        }
      ],
      "stateMutability": "view",
      "type": "function"
    },
    {
      "inputs": [
        {
          "internalType": "address[]",
          "name": "validatorSet",
          "type": "address[]"
        }
      ],
      "name": "proposeChangeValidators",
      "outputs": [],
      "stateMutability": "payable",
      "type": "function"
    },
    {
      "inputs": [
        {
          "internalType": "uint256",
          "name": "fromBlock",
          "type": "uint256"
        },
        {
          "internalType": "uint256",
          "name": "tillBlock",
          "type": "uint256"
        },
        {
          "components": [
            {
              "internalType": "address payable",
              "name": "to",
              "type": "address"
            },
            {
              "internalType": "uint256",
              "name": "value",
              "type": "uint256"
            },
            {
              "internalType": "uint256",
              "name": "trxHash",
              "type": "uint256"
            }
          ],
          "internalType": "struct Elock.Transfer[]",
          "name": "transfers",
          "type": "tuple[]"
        }
      ],
      "name": "proposeWithdrawal",
      "outputs": [],
      "stateMutability": "payable",
      "type": "function"
    },
    {
      "inputs": [],
      "name": "totalSupply",
      "outputs": [
        {
          "internalType": "uint256",
          "name": "",
          "type": "uint256"
        }
      ],
      "stateMutability": "view",
      "type": "function"
    },
    {
      "inputs": [],
      "name": "trxDepositCount",
      "outputs": [
        {
          "internalType": "uint128",
          "name": "",
          "type": "uint128"
        }
      ],
      "stateMutability": "view",
      "type": "function"
    },
    {
      "inputs": [],
      "name": "trxWithdrawCount",
      "outputs": [
        {
          "internalType": "uint128",
          "name": "",
          "type": "uint128"
        }
      ],
      "stateMutability": "view",
      "type": "function"
    },
    {
      "inputs": [],
      "name": "unfreezeDeposits",
      "outputs": [],
      "stateMutability": "payable",
      "type": "function"
    },
    {
      "inputs": [
        {
          "internalType": "bool",
          "name": "vote",
          "type": "bool"
        }
      ],
      "name": "voteForChangeValidators",
      "outputs": [],
      "stateMutability": "payable",
      "type": "function"
    },
    {
      "inputs": [
        {
          "internalType": "uint256",
          "name": "proposalKey",
          "type": "uint256"
        }
      ],
      "name": "voteForWithdrawal",
      "outputs": [],
      "stateMutability": "payable",
      "type": "function"
    },
    {
      "stateMutability": "payable",
      "type": "receive"
    }
  ],
  "bytecode": {
    "object": "0x60a06040523480156200001157600080fd5b506040516200197838038062001978833981016040819052620000349162000165565b600082116200004257600080fd5b60008151116200005157600080fd5b434060025560808290526003829055805162000075906004906020840190620000b1565b50805162000083906200008f565b600955506200028a9050565b60006200009e60028362000245565b620000ab90600162000268565b92915050565b82805482825590600052602060002090810192821562000109579160200282015b828111156200010957825182546001600160a01b0319166001600160a01b03909116178255602090920191600190910190620000d2565b50620001179291506200011b565b5090565b5b808211156200011757600081556001016200011c565b634e487b7160e01b600052604160045260246000fd5b80516001600160a01b03811681146200016057600080fd5b919050565b600080604083850312156200017957600080fd5b8251602080850151919350906001600160401b03808211156200019b57600080fd5b818601915086601f830112620001b057600080fd5b815181811115620001c557620001c562000132565b8060051b604051601f19603f83011681018181108582111715620001ed57620001ed62000132565b6040529182528482019250838101850191898311156200020c57600080fd5b938501935b828510156200023557620002258562000148565b8452938501939285019262000211565b8096505050505050509250929050565b6000826200026357634e487b7160e01b600052601260045260246000fd5b500490565b80820180821115620000ab57634e487b7160e01b600052601160045260246000fd5b6080516116d5620002a3600039600050506116d56000f3fe60806040526004361061010d5760003560e01c8063b6b55f2511610095578063c44339ce11610064578063c44339ce146102c9578063c7f758a8146102de578063d00f128b1461030d578063ef8ae1f914610320578063fe173b971461032857600080fd5b8063b6b55f2514610279578063b7ab4db51461028c578063bb1b2ba2146102ae578063bcb999ca146102c157600080fd5b80634fb01f21116100dc5780634fb01f21146101b1578063641840e1146101de57806365581f50146101f1578063939947b814610207578063afc206151461022e57600080fd5b806318160ddd1461011957806324862ea91461014257806324c37d6e14610157578063346750f31461018f57600080fd5b3661011457005b600080fd5b34801561012557600080fd5b5061012f60005481565b6040519081526020015b60405180910390f35b610155610150366004611282565b61033b565b005b34801561016357600080fd5b50600154610177906001600160801b031681565b6040516001600160801b039091168152602001610139565b34801561019b57600080fd5b506101a46104c8565b6040516101399190611305565b3480156101bd57600080fd5b5061012f6101cc366004611349565b6000908152600e602052604090205490565b6101556101ec366004611362565b610520565b3480156101fd57600080fd5b5061012f60035481565b34801561021357600080fd5b5060015461017790600160801b90046001600160801b031681565b34801561023a57600080fd5b50610269610249366004611349565b6000908152600d6020908152604080832033845290915290205460ff1690565b6040519015158152602001610139565b610155610287366004611349565b610620565b34801561029857600080fd5b506102a161068b565b604051610139919061138b565b6101556102bc366004611349565b6106ec565b610155610884565b3480156102d557600080fd5b506102a1610a3e565b3480156102ea57600080fd5b506102fe6102f9366004611349565b610a9e565b604051610139939291906113cc565b61015561031b366004611479565b610b62565b610155610bdb565b34801561033457600080fd5b503a61012f565b61034433610d43565b610360576040516282b42960e81b815260040160405180910390fd5b600354841461036e57600080fd5b604080516020808201879052818301869052825180830384018152606090920183528151828201206000818152600790925292902054909190156103f95760405162461bcd60e51b815260206004820152601760248201527f50726f706f73616c20616c72656164792065786973747300000000000000000060448201526064015b60405180910390fd5b600081815260076020526040812087815560018101879055905b8481101561047457816002018686838181106104315761043161153e565b83546001810185556000948552602090942060609091029290920192600302909101905061045f8282611554565b5050808061046c906115a8565b915050610413565b506008805460018101825560009182527ff3f7a9fe364faab93b216da50a3214154f22a0a2b415b23a84c8169e8b636ee301839055600f60008282546104ba91906115c1565b909155505050505050505050565b6060600880548060200260200160405190810160405280929190818152602001828054801561051657602002820191906000526020600020905b815481526020019060010190808311610502575b5050505050905090565b61052933610d43565b610545576040516282b42960e81b815260040160405180910390fd5b336000908152600a602052604090205460ff16156105955760405162461bcd60e51b815260206004820152600d60248201526c105b1c9958591e481d9bdd1959609a1b60448201526064016103f0565b336000908152600a60205260409020805460ff1916600117905580156105e3576001600b60008282546105c891906115c1565b9091555050600954600b54106105e0576105e0610da7565b50565b6001600c60008282546105f691906115c1565b909155505060095460045461060b91906115d4565b600c5411156105e0576105e06005600061115c565b60125460ff161561063057600080fd5b633b9aca00341161064057600080fd5b600080543401815560018054909182916106649083906001600160801b03166115e7565b92506101000a8154816001600160801b0302191690836001600160801b0316021790555050565b6060600480548060200260200160405190810160405280929190818152602001828054801561051657602002820191906000526020600020905b81546001600160a01b031681526001909101906020018083116106c5575050505050905090565b6106f533610d43565b610711576040516282b42960e81b815260040160405180910390fd5b60008181526007602052604081205490036107655760405162461bcd60e51b8152602060048201526014602482015273556e6b6e6f776e2070726f706f73616c206b657960601b60448201526064016103f0565b6000818152600d6020908152604080832033845290915281205460ff16151590036107d2576000818152600d602090815260408083203384528252808320805460ff19166001908117909155848452600e90925282208054919290916107cc9084906115c1565b90915550505b6009546000828152600e6020526040902054106105e05760006107f482610dd3565b9050801561084857600082815260076020526040902060010154600355610819611047565b60405182907f906f71466379a94b86a805004f5cc535b083a42e1a1582e29048cc78633d795590600090a25050565b60405160038152339083907fc93e352b0db2382529aa994f33e15a46c2761d27903172db06fcabd426ebc4889060200160405180910390a35050565b61088d33610d43565b6108a9576040516282b42960e81b815260040160405180910390fd5b60125460ff16156108f85760405162461bcd60e51b815260206004820152601960248201527811195c1bdcda5d08185b1c9958591e481d5b999c99595e9959603a1b60448201526064016103f0565b600b54156109185760405162461bcd60e51b81526004016103f09061160e565b60013360009081526010602052604090205460ff16600281111561093e5761093e611650565b0361094857600080fd5b6009546011546109599060016115c1565b106109d9576012805460ff1916600117905560005b6011548110156109ca5760006011828154811061098d5761098d61153e565b6000918252602080832091909101546001600160a01b031682526010905260409020805460ff1916905550806109c2816115a8565b91505061096e565b506109d76011600061115c565b565b33600090815260106020526040902080546001919060ff191682805b0217905550601180546001810182556000919091527f31ecc21a745e3968a04e9570e4425bc18fa8019c68028196b546d1669c200c680180546001600160a01b03191633179055565b60606005805480602002602001604051908101604052809291908181526020018280548015610516576020028201919060005260206000209081546001600160a01b031681526001909101906020018083116106c5575050505050905090565b60008181526007602090815260408083208151606081810184528254825260018301548286015260028301805485518188028101880187528181528897939688969490860193919290879084015b82821015610b41576000848152602090819020604080516060810182526003860290920180546001600160a01b0316835260018082015484860152600290910154918301919091529083529092019101610aec565b50505091525050805160208201516040909201519097919650945092505050565b610b6b33610d43565b610b87576040516282b42960e81b815260040160405180910390fd5b60055415610b9457600080fd5b6000815111610ba257600080fd5b8051610bb590600590602084019061117a565b50600160066000828254610bc991906115c1565b90915550506000600b819055600c5550565b610be433610d43565b610c00576040516282b42960e81b815260040160405180910390fd5b60125460ff161515600114610c535760405162461bcd60e51b815260206004820152601960248201527811195c1bdcda5d08185b1c9958591e481d5b999c99595e9959603a1b60448201526064016103f0565b600b5415610c735760405162461bcd60e51b81526004016103f09061160e565b60023360009081526010602052604090205460ff166002811115610c9957610c99611650565b03610ca357600080fd5b600954601154610cb49060016115c1565b10610d22576012805460ff1916905560005b6011548110156109ca57600060118281548110610ce557610ce561153e565b6000918252602080832091909101546001600160a01b031682526010905260409020805460ff191690555080610d1a816115a8565b915050610cc6565b33600090815260106020526040902080546002919060ff19166001836109f5565b6000805b600454811015610d9e5760048181548110610d6457610d6461153e565b6000918252602090912001546001600160a01b0390811690841603610d8c5750600192915050565b80610d96816115a8565b915050610d47565b50600092915050565b60058054610db7916004916111df565b50600554610dc49061113e565b6009556109d76005600061115c565b600081815260076020908152604080832060020180548251818502810185019093528083528493849084015b82821015610e54576000848152602090819020604080516060810182526003860290920180546001600160a01b0316835260018082015484860152600290910154918301919091529083529092019101610dff565b50505050905060008082513a600f54610e6d9190611666565b610e77919061167d565b610e833a615208611666565b610e8d91906115c1565b905060005b8351811015610ed857838181518110610ead57610ead61153e565b60200260200101516020015183610ec491906115c1565b925080610ed0816115a8565b915050610e92565b5047821180610ee8575060005482115b15610ef857506000949350505050565b60005b835181101561103b576000848281518110610f1857610f1861153e565b602002602001015190508281602001511115610fc4576000838260200151610f4091906115d4565b82516040519192506001600160a01b03169082156108fc029083906000818181858888f19350505050158015610f7a573d6000803e3d6000fd5b50815160408051838152602081018790526001600160a01b03909216917fdf273cb619d95419a9cd0ec88123a0538c85064229baa6363788f743fff90deb910160405180910390a2505b600180548190601090610fe8908390600160801b90046001600160801b03166115e7565b92506101000a8154816001600160801b0302191690836001600160801b03160217905550806020015160008082825461102191906115d4565b909155508291506110339050816115a8565b915050610efb565b50600195945050505050565b60005b60085481101561112a576000600882815481106110695761106961153e565b6000918252602080832090910154808352600790915260408220828155600181018390559092509061109e600283018261121f565b505060005b600454811015611108576000600482815481106110c2576110c261153e565b6000918252602080832090910154858352600d825260408084206001600160a01b03909216845291529020805460ff191690555080611100816115a8565b9150506110a3565b506000908152600e602052604081205580611122816115a8565b91505061104a565b506111376008600061115c565b6000600f55565b600061114b60028361167d565b6111569060016115c1565b92915050565b50805460008255906000526020600020908101906105e09190611240565b8280548282559060005260206000209081019282156111cf579160200282015b828111156111cf57825182546001600160a01b0319166001600160a01b0390911617825560209092019160019091019061119a565b506111db929150611240565b5090565b8280548282559060005260206000209081019282156111cf5760005260206000209182015b828111156111cf578254825591600101919060010190611204565b50805460008255600302906000526020600020908101906105e09190611255565b5b808211156111db5760008155600101611241565b5b808211156111db5780546001600160a01b03191681556000600182018190556002820155600301611256565b6000806000806060858703121561129857600080fd5b8435935060208501359250604085013567ffffffffffffffff808211156112be57600080fd5b818701915087601f8301126112d257600080fd5b8135818111156112e157600080fd5b8860206060830285010111156112f657600080fd5b95989497505060200194505050565b6020808252825182820181905260009190848201906040850190845b8181101561133d57835183529284019291840191600101611321565b50909695505050505050565b60006020828403121561135b57600080fd5b5035919050565b60006020828403121561137457600080fd5b8135801515811461138457600080fd5b9392505050565b6020808252825182820181905260009190848201906040850190845b8181101561133d5783516001600160a01b0316835292840192918401916001016113a7565b600060608083018684526020868186015260408381870152828751808552608088019150838901945060005b8181101561142e57855180516001600160a01b0316845285810151868501528401518484015294840194918601916001016113f8565b50909a9950505050505050505050565b634e487b7160e01b600052604160045260246000fd5b6001600160a01b03811681146105e057600080fd5b803561147481611454565b919050565b6000602080838503121561148c57600080fd5b823567ffffffffffffffff808211156114a457600080fd5b818501915085601f8301126114b857600080fd5b8135818111156114ca576114ca61143e565b8060051b604051601f19603f830116810181811085821117156114ef576114ef61143e565b60405291825284820192508381018501918883111561150d57600080fd5b938501935b828510156115325761152385611469565b84529385019392850192611512565b98975050505050505050565b634e487b7160e01b600052603260045260246000fd5b813561155f81611454565b81546001600160a01b0319166001600160a01b039190911617815560208201356001820155604090910135600290910155565b634e487b7160e01b600052601160045260246000fd5b6000600182016115ba576115ba611592565b5060010190565b8082018082111561115657611156611592565b8181038181111561115657611156611592565b6001600160801b0381811683821601908082111561160757611607611592565b5092915050565b60208082526022908201527f56616c696461746f7273206368616e67696e6720697320696e2070726f677265604082015261737360f01b606082015260800190565b634e487b7160e01b600052602160045260246000fd5b808202811582820484141761115657611156611592565b60008261169a57634e487b7160e01b600052601260045260246000fd5b50049056fea2646970667358221220ed3013ef74c4cd0da797cab51d9ad00dc7002caa6fce11732c4eab898c486d9264736f6c63430008150033",
    "linkReferences": {}
  },
  "methodIdentifiers": {
    "deposit(uint256)": "b6b55f25",
    "freezeDeposits()": "bcb999ca",
    "gasPrice()": "fe173b97",
    "getMyVoteForWithdrawal(uint256)": "afc20615",
    "getProposal(uint256)": "c7f758a8",
    "getProposalList()": "346750f3",
    "getProposedValidators()": "c44339ce",
    "getValidators()": "b7ab4db5",
    "getVotesForWithdrawal(uint256)": "4fb01f21",
    "lastProcessedL2Block()": "65581f50",
    "proposeChangeValidators(address[])": "d00f128b",
    "proposeWithdrawal(uint256,uint256,(address,uint256,uint256)[])": "24862ea9",
    "totalSupply()": "18160ddd",
    "trxDepositCount()": "24c37d6e",
    "trxWithdrawCount()": "939947b8",
    "unfreezeDeposits()": "ef8ae1f9",
    "voteForChangeValidators(bool)": "641840e1",
    "voteForWithdrawal(uint256)": "bb1b2ba2"
  },
  "id": 18
}