{
  "abi": [
    {
      "inputs": [
        {
          "internalType": "uint256",
          "name": "startBlock",
          "type": "uint256"
        }
      ],
      "stateMutability": "nonpayable",
      "type": "constructor"
    },
    {
      "inputs": [
        {
          "internalType": "uint256",
          "name": "pubkey",
          "type": "uint256"
        }
      ],
      "name": "deposit",
      "outputs": [],
      "stateMutability": "payable",
      "type": "function"
    },
    {
      "inputs": [
        {
          "internalType": "uint256",
          "name": "proposalKey",
          "type": "uint256"
        }
      ],
      "name": "getProposal",
      "outputs": [
        {
          "internalType": "uint256",
          "name": "fromBlock",
          "type": "uint256"
        },
        {
          "internalType": "uint256",
          "name": "tillB",
          "type": "uint256"
        },
        {
          "components": [
            {
              "internalType": "address payable",
              "name": "to",
              "type": "address"
            },
            {
              "internalType": "uint256",
              "name": "value",
              "type": "uint256"
            },
            {
              "internalType": "uint256",
              "name": "trxHash",
              "type": "uint256"
            }
          ],
          "internalType": "struct Elock.Transfer[]",
          "name": "transfers",
          "type": "tuple[]"
        }
      ],
      "stateMutability": "view",
      "type": "function"
    },
    {
      "inputs": [],
      "name": "getProposalList",
      "outputs": [
        {
          "internalType": "uint256[]",
          "name": "proposalKeys",
          "type": "uint256[]"
        }
      ],
      "stateMutability": "view",
      "type": "function"
    },
    {
      "inputs": [],
      "name": "lastProcessedBlock",
      "outputs": [
        {
          "internalType": "uint256",
          "name": "",
          "type": "uint256"
        }
      ],
      "stateMutability": "view",
      "type": "function"
    },
    {
      "inputs": [
        {
          "internalType": "uint256",
          "name": "fromBlock",
          "type": "uint256"
        },
        {
          "internalType": "uint256",
          "name": "tillBlock",
          "type": "uint256"
        },
        {
          "components": [
            {
              "internalType": "address payable",
              "name": "to",
              "type": "address"
            },
            {
              "internalType": "uint256",
              "name": "value",
              "type": "uint256"
            },
            {
              "internalType": "uint256",
              "name": "trxHash",
              "type": "uint256"
            }
          ],
          "internalType": "struct Elock.Transfer[]",
          "name": "transfers",
          "type": "tuple[]"
        }
      ],
      "name": "startWithdrawalProposal",
      "outputs": [],
      "stateMutability": "nonpayable",
      "type": "function"
    },
    {
      "inputs": [],
      "name": "totalSupply",
      "outputs": [
        {
          "internalType": "uint256",
          "name": "",
          "type": "uint256"
        }
      ],
      "stateMutability": "view",
      "type": "function"
    },
    {
      "inputs": [],
      "name": "trxDepositCount",
      "outputs": [
        {
          "internalType": "uint128",
          "name": "",
          "type": "uint128"
        }
      ],
      "stateMutability": "view",
      "type": "function"
    },
    {
      "inputs": [],
      "name": "trxWithdrawCount",
      "outputs": [
        {
          "internalType": "uint128",
          "name": "",
          "type": "uint128"
        }
      ],
      "stateMutability": "view",
      "type": "function"
    }
  ],
  "bytecode": {
    "object": "0x608060405234801561001057600080fd5b5060405161070c38038061070c83398101604081905261002f91610041565b4340600255600381905560045561005a565b60006020828403121561005357600080fd5b5051919050565b6106a3806100696000396000f3fe60806040526004361061007b5760003560e01c8063939947b81161004e578063939947b814610119578063a08ca9d714610140578063b6b55f2514610162578063c7f758a81461017557600080fd5b806318160ddd1461008057806324c37d6e146100a957806333de61d2146100e1578063346750f3146100f7575b600080fd5b34801561008c57600080fd5b5061009660005481565b6040519081526020015b60405180910390f35b3480156100b557600080fd5b506001546100c9906001600160801b031681565b6040516001600160801b0390911681526020016100a0565b3480156100ed57600080fd5b5061009660045481565b34801561010357600080fd5b5061010c6101a4565b6040516100a0919061046f565b34801561012557600080fd5b506001546100c990600160801b90046001600160801b031681565b34801561014c57600080fd5b5061016061015b3660046104b3565b6101fc565b005b610160610170366004610536565b610353565b34801561018157600080fd5b50610195610190366004610536565b6103ab565b6040516100a09392919061054f565b606060068054806020026020016040519081016040528092919081815260200182805480156101f257602002820191906000526020600020905b8154815260200190600101908083116101de575b5050505050905090565b6004541561021257600454841461021257600080fd5b6040805160208082018790528183018690528251808303840181526060909201835281518282012060008181526005909252929020549091901561029c5760405162461bcd60e51b815260206004820152601760248201527f50726f706f73616c20616c726561647920657869737473000000000000000000604482015260640160405180910390fd5b600081815260056020526040812087815560018101879055905b8481101561031757816002018686838181106102d4576102d46105c1565b83546001810185556000948552602090942060609091029290920192600302909101905061030282826105d7565b5050808061030f9061062d565b9150506102b6565b5050600680546001810182556000919091527ff652222313e28459528d920b65115c16c04f3efc82aaedc97be59f3f377c0d3f01555050505050565b6064341161036057600080fd5b600080543401815560018054909182916103849083906001600160801b0316610646565b92506101000a8154816001600160801b0302191690836001600160801b0316021790555050565b60008181526005602090815260408083208151606081810184528254825260018301548286015260028301805485518188028101880187528181528897939688969490860193919290879084015b8282101561044e576000848152602090819020604080516060810182526003860290920180546001600160a01b03168352600180820154848601526002909101549183019190915290835290920191016103f9565b50505091525050805160208201516040909201519097919650945092505050565b6020808252825182820181905260009190848201906040850190845b818110156104a75783518352928401929184019160010161048b565b50909695505050505050565b600080600080606085870312156104c957600080fd5b8435935060208501359250604085013567ffffffffffffffff808211156104ef57600080fd5b818701915087601f83011261050357600080fd5b81358181111561051257600080fd5b88602060608302850101111561052757600080fd5b95989497505060200194505050565b60006020828403121561054857600080fd5b5035919050565b600060608083018684526020868186015260408381870152828751808552608088019150838901945060005b818110156105b157855180516001600160a01b03168452858101518685015284015184840152948401949186019160010161057b565b50909a9950505050505050505050565b634e487b7160e01b600052603260045260246000fd5b81356001600160a01b0381168082146105ef57600080fd5b82546001600160a01b0319161782555060208201356001820155604090910135600290910155565b634e487b7160e01b600052601160045260246000fd5b60006001820161063f5761063f610617565b5060010190565b6001600160801b0381811683821601908082111561066657610666610617565b509291505056fea264697066735822122026a07a942cb78377ebb6c98060bb925029f4ab9c93784baa7b49ff8cc0e2464664736f6c63430008150033",
    "linkReferences": {}
  },
  "methodIdentifiers": {
    "deposit(uint256)": "b6b55f25",
    "getProposal(uint256)": "c7f758a8",
    "getProposalList()": "346750f3",
    "lastProcessedBlock()": "33de61d2",
    "startWithdrawalProposal(uint256,uint256,(address,uint256,uint256)[])": "a08ca9d7",
    "totalSupply()": "18160ddd",
    "trxDepositCount()": "24c37d6e",
    "trxWithdrawCount()": "939947b8"
  },
  "id": 18
}