{
  "abi": [
    {
      "inputs": [
        {
          "internalType": "uint256",
          "name": "_initialL2Block",
          "type": "uint256"
        },
        {
          "internalType": "address payable",
          "name": "_commissionWallet",
          "type": "address"
        },
        {
          "internalType": "address[]",
          "name": "_goshValidators",
          "type": "address[]"
        }
      ],
      "stateMutability": "nonpayable",
      "type": "constructor"
    },
    {
      "inputs": [],
      "name": "Unauthorized",
      "type": "error"
    },
    {
      "anonymous": false,
      "inputs": [
        {
          "indexed": false,
          "internalType": "uint256",
          "name": "initialGas",
          "type": "uint256"
        },
        {
          "indexed": false,
          "internalType": "uint256",
          "name": "finalGas",
          "type": "uint256"
        },
        {
          "indexed": false,
          "internalType": "string",
          "name": "func",
          "type": "string"
        }
      ],
      "name": "GasConsumption",
      "type": "event"
    },
    {
      "anonymous": false,
      "inputs": [
        {
          "indexed": true,
          "internalType": "uint256",
          "name": "proposalKey",
          "type": "uint256"
        }
      ],
      "name": "WithdrawExecuted",
      "type": "event"
    },
    {
      "anonymous": false,
      "inputs": [
        {
          "indexed": true,
          "internalType": "uint256",
          "name": "proposalKey",
          "type": "uint256"
        },
        {
          "indexed": true,
          "internalType": "address",
          "name": "voter",
          "type": "address"
        },
        {
          "indexed": false,
          "internalType": "uint8",
          "name": "reason",
          "type": "uint8"
        }
      ],
      "name": "WithdrawRejected",
      "type": "event"
    },
    {
      "anonymous": false,
      "inputs": [
        {
          "indexed": true,
          "internalType": "address",
          "name": "recepient",
          "type": "address"
        },
        {
          "indexed": false,
          "internalType": "uint256",
          "name": "value",
          "type": "uint256"
        },
        {
          "indexed": false,
          "internalType": "uint256",
          "name": "commission",
          "type": "uint256"
        }
      ],
      "name": "Withdrawal",
      "type": "event"
    },
    {
      "inputs": [
        {
          "internalType": "uint256",
          "name": "pubkey",
          "type": "uint256"
        }
      ],
      "name": "deposit",
      "outputs": [],
      "stateMutability": "payable",
      "type": "function"
    },
    {
      "inputs": [],
      "name": "freezeDeposits",
      "outputs": [],
      "stateMutability": "payable",
      "type": "function"
    },
    {
      "inputs": [],
      "name": "gasPrice",
      "outputs": [
        {
          "internalType": "uint256",
          "name": "",
          "type": "uint256"
        }
      ],
      "stateMutability": "view",
      "type": "function"
    },
    {
      "inputs": [
        {
          "internalType": "uint256",
          "name": "proposalKey",
          "type": "uint256"
        }
      ],
      "name": "getMyVoteForWithdrawal",
      "outputs": [
        {
          "internalType": "bool",
          "name": "isVoted",
          "type": "bool"
        }
      ],
      "stateMutability": "view",
      "type": "function"
    },
    {
      "inputs": [
        {
          "internalType": "uint256",
          "name": "proposalKey",
          "type": "uint256"
        }
      ],
      "name": "getProposal",
      "outputs": [
        {
          "internalType": "uint256",
          "name": "fromBlock",
          "type": "uint256"
        },
        {
          "internalType": "uint256",
          "name": "tillB",
          "type": "uint256"
        },
        {
          "components": [
            {
              "internalType": "address payable",
              "name": "to",
              "type": "address"
            },
            {
              "internalType": "uint256",
              "name": "value",
              "type": "uint256"
            },
            {
              "internalType": "uint256",
              "name": "trxHash",
              "type": "uint256"
            }
          ],
          "internalType": "struct Elock.Transfer[]",
          "name": "transfers",
          "type": "tuple[]"
        }
      ],
      "stateMutability": "view",
      "type": "function"
    },
    {
      "inputs": [],
      "name": "getProposalList",
      "outputs": [
        {
          "internalType": "uint256[]",
          "name": "proposalKeys",
          "type": "uint256[]"
        }
      ],
      "stateMutability": "view",
      "type": "function"
    },
    {
      "inputs": [],
      "name": "getProposedValidators",
      "outputs": [
        {
          "internalType": "address[]",
          "name": "proposedValidatorSet",
          "type": "address[]"
        }
      ],
      "stateMutability": "view",
      "type": "function"
    },
    {
      "inputs": [],
      "name": "getValidators",
      "outputs": [
        {
          "internalType": "address[]",
          "name": "currentValidatorSet",
          "type": "address[]"
        }
      ],
      "stateMutability": "view",
      "type": "function"
    },
    {
      "inputs": [
        {
          "internalType": "uint256",
          "name": "proposalKey",
          "type": "uint256"
        }
      ],
      "name": "getVotesForWithdrawal",
      "outputs": [
        {
          "internalType": "uint256",
          "name": "votes",
          "type": "uint256"
        }
      ],
      "stateMutability": "view",
      "type": "function"
    },
    {
      "inputs": [],
      "name": "lastProcessedL2Block",
      "outputs": [
        {
          "internalType": "uint256",
          "name": "",
          "type": "uint256"
        }
      ],
      "stateMutability": "view",
      "type": "function"
    },
    {
      "inputs": [
        {
          "internalType": "address[]",
          "name": "validatorSet",
          "type": "address[]"
        }
      ],
      "name": "proposeChangeValidators",
      "outputs": [],
      "stateMutability": "payable",
      "type": "function"
    },
    {
      "inputs": [
        {
          "internalType": "uint256",
          "name": "fromBlock",
          "type": "uint256"
        },
        {
          "internalType": "uint256",
          "name": "tillBlock",
          "type": "uint256"
        },
        {
          "components": [
            {
              "internalType": "address payable",
              "name": "to",
              "type": "address"
            },
            {
              "internalType": "uint256",
              "name": "value",
              "type": "uint256"
            },
            {
              "internalType": "uint256",
              "name": "trxHash",
              "type": "uint256"
            }
          ],
          "internalType": "struct Elock.Transfer[]",
          "name": "transfers",
          "type": "tuple[]"
        }
      ],
      "name": "proposeWithdrawal",
      "outputs": [],
      "stateMutability": "payable",
      "type": "function"
    },
    {
      "inputs": [],
      "name": "totalSupply",
      "outputs": [
        {
          "internalType": "uint256",
          "name": "",
          "type": "uint256"
        }
      ],
      "stateMutability": "view",
      "type": "function"
    },
    {
      "inputs": [],
      "name": "trxDepositCount",
      "outputs": [
        {
          "internalType": "uint128",
          "name": "",
          "type": "uint128"
        }
      ],
      "stateMutability": "view",
      "type": "function"
    },
    {
      "inputs": [],
      "name": "trxWithdrawCount",
      "outputs": [
        {
          "internalType": "uint128",
          "name": "",
          "type": "uint128"
        }
      ],
      "stateMutability": "view",
      "type": "function"
    },
    {
      "inputs": [],
      "name": "unfreezeDeposits",
      "outputs": [],
      "stateMutability": "payable",
      "type": "function"
    },
    {
      "inputs": [
        {
          "internalType": "bool",
          "name": "vote",
          "type": "bool"
        }
      ],
      "name": "voteForChangeValidators",
      "outputs": [],
      "stateMutability": "payable",
      "type": "function"
    },
    {
      "inputs": [
        {
          "internalType": "uint256",
          "name": "proposalKey",
          "type": "uint256"
        }
      ],
      "name": "voteForWithdrawal",
      "outputs": [],
      "stateMutability": "payable",
      "type": "function"
    },
    {
      "stateMutability": "payable",
      "type": "receive"
    }
  ],
  "bytecode": {
    "object": "0x60c06040523480156200001157600080fd5b5060405162001ba038038062001ba0833981016040819052620000349162000181565b600083116200004257600080fd5b60008151116200005157600080fd5b4340600255608083905260038390556001600160a01b03821660a052805162000082906004906020840190620000bf565b50805162000090906200009d565b60095550620002b9915050565b6000620000ac60028362000274565b620000b990600162000297565b92915050565b82805482825590600052602060002090810192821562000117579160200282015b828111156200011757825182546001600160a01b0319166001600160a01b03909116178255602090920191600190910190620000e0565b506200012592915062000129565b5090565b5b808211156200012557600081556001016200012a565b6001600160a01b03811681146200015657600080fd5b50565b634e487b7160e01b600052604160045260246000fd5b80516200017c8162000140565b919050565b6000806000606084860312156200019757600080fd5b83519250602080850151620001ac8162000140565b60408601519093506001600160401b0380821115620001ca57600080fd5b818701915087601f830112620001df57600080fd5b815181811115620001f457620001f462000159565b8060051b604051601f19603f830116810181811085821117156200021c576200021c62000159565b60405291825284820192508381018501918a8311156200023b57600080fd5b938501935b82851015620002645762000254856200016f565b8452938501939285019262000240565b8096505050505050509250925092565b6000826200029257634e487b7160e01b600052601260045260246000fd5b500490565b80820180821115620000b957634e487b7160e01b600052601160045260246000fd5b60805160a0516118c4620002dc600039600061114c0152600050506118c46000f3fe60806040526004361061010d5760003560e01c8063b6b55f2511610095578063c44339ce11610064578063c44339ce146102c9578063c7f758a8146102de578063d00f128b1461030d578063ef8ae1f914610320578063fe173b971461032857600080fd5b8063b6b55f2514610279578063b7ab4db51461028c578063bb1b2ba2146102ae578063bcb999ca146102c157600080fd5b80634fb01f21116100dc5780634fb01f21146101b1578063641840e1146101de57806365581f50146101f1578063939947b814610207578063afc206151461022e57600080fd5b806318160ddd1461011957806324862ea91461014257806324c37d6e14610157578063346750f31461018f57600080fd5b3661011457005b600080fd5b34801561012557600080fd5b5061012f60005481565b6040519081526020015b60405180910390f35b610155610150366004611414565b61033b565b005b34801561016357600080fd5b50600154610177906001600160801b031681565b6040516001600160801b039091168152602001610139565b34801561019b57600080fd5b506101a461053b565b6040516101399190611497565b3480156101bd57600080fd5b5061012f6101cc3660046114db565b6000908152600e602052604090205490565b6101556101ec3660046114f4565b610593565b3480156101fd57600080fd5b5061012f60035481565b34801561021357600080fd5b5060015461017790600160801b90046001600160801b031681565b34801561023a57600080fd5b506102696102493660046114db565b6000908152600d6020908152604080832033845290915290205460ff1690565b6040519015158152602001610139565b6101556102873660046114db565b610693565b34801561029857600080fd5b506102a16106fe565b604051610139919061151d565b6101556102bc3660046114db565b61075f565b61015561096c565b3480156102d557600080fd5b506102a1610b26565b3480156102ea57600080fd5b506102fe6102f93660046114db565b610b86565b6040516101399392919061155e565b61015561031b36600461160b565b610c4a565b610155610cc3565b34801561033457600080fd5b503a61012f565b61034433610e2b565b610360576040516282b42960e81b815260040160405180910390fd5b604051806040016040528060118152602001701c1c9bdc1bdcd955da5d1a191c985dd85b607a1b81525060005a9050600354861461039d57600080fd5b604080516020808201899052818301889052825180830384018152606090920183528151828201206000818152600790925292902054909190156104285760405162461bcd60e51b815260206004820152601760248201527f50726f706f73616c20616c72656164792065786973747300000000000000000060448201526064015b60405180910390fd5b600081815260076020526040812089815560018101899055905b868110156104a35781600201888883818110610460576104606116d0565b83546001810185556000948552602090942060609091029290920192600302909101905061048e82826116e6565b5050808061049b9061173a565b915050610442565b506008805460018101825560009182527ff3f7a9fe364faab93b216da50a3214154f22a0a2b415b23a84c8169e8b636ee301839055600f60008282546104e99190611753565b90915550600093505050505a90507f05f6d87b848ee8e9475ef347b158fba4d53de0f177a5fddda1cfdbf2eec36d1e82828560405161052a93929190611766565b60405180910390a150505050505050565b6060600880548060200260200160405190810160405280929190818152602001828054801561058957602002820191906000526020600020905b815481526020019060010190808311610575575b5050505050905090565b61059c33610e2b565b6105b8576040516282b42960e81b815260040160405180910390fd5b336000908152600a602052604090205460ff16156106085760405162461bcd60e51b815260206004820152600d60248201526c105b1c9958591e481d9bdd1959609a1b604482015260640161041f565b336000908152600a60205260409020805460ff191660011790558015610656576001600b600082825461063b9190611753565b9091555050600954600b541061065357610653610e8f565b50565b6001600c60008282546106699190611753565b909155505060095460045461067e91906117c3565b600c54111561065357610653600560006112ee565b60125460ff16156106a357600080fd5b633b9aca0034116106b357600080fd5b600080543401815560018054909182916106d79083906001600160801b03166117d6565b92506101000a8154816001600160801b0302191690836001600160801b0316021790555050565b6060600480548060200260200160405190810160405280929190818152602001828054801561058957602002820191906000526020600020905b81546001600160a01b03168152600190910190602001808311610738575050505050905090565b61076833610e2b565b610784576040516282b42960e81b815260040160405180910390fd5b604051806040016040528060118152602001701c1c9bdc1bdcd955da5d1a191c985dd85b607a1b81525060005a600084815260076020526040812054919250036108075760405162461bcd60e51b8152602060048201526014602482015273556e6b6e6f776e2070726f706f73616c206b657960601b604482015260640161041f565b6000838152600d6020908152604080832033845290915281205460ff1615159003610874576000838152600d602090815260408083203384528252808320805460ff19166001908117909155868452600e909252822080549192909161086e908490611753565b90915550505b6009546000848152600e60205260409020541061092657600061089684610ebb565b905080156108eb576000848152600760205260409020600101546003556108bb6111d9565b60405184907f906f71466379a94b86a805004f5cc535b083a42e1a1582e29048cc78633d795590600090a2610924565b60405160038152339085907fc93e352b0db2382529aa994f33e15a46c2761d27903172db06fcabd426ebc4889060200160405180910390a35b505b60005a90507f05f6d87b848ee8e9475ef347b158fba4d53de0f177a5fddda1cfdbf2eec36d1e82828560405161095e93929190611766565b60405180910390a150505050565b61097533610e2b565b610991576040516282b42960e81b815260040160405180910390fd5b60125460ff16156109e05760405162461bcd60e51b815260206004820152601960248201527811195c1bdcda5d08185b1c9958591e481d5b999c99595e9959603a1b604482015260640161041f565b600b5415610a005760405162461bcd60e51b815260040161041f906117fd565b60013360009081526010602052604090205460ff166002811115610a2657610a2661183f565b03610a3057600080fd5b600954601154610a41906001611753565b10610ac1576012805460ff1916600117905560005b601154811015610ab257600060118281548110610a7557610a756116d0565b6000918252602080832091909101546001600160a01b031682526010905260409020805460ff191690555080610aaa8161173a565b915050610a56565b50610abf601160006112ee565b565b33600090815260106020526040902080546001919060ff191682805b0217905550601180546001810182556000919091527f31ecc21a745e3968a04e9570e4425bc18fa8019c68028196b546d1669c200c680180546001600160a01b03191633179055565b60606005805480602002602001604051908101604052809291908181526020018280548015610589576020028201919060005260206000209081546001600160a01b03168152600190910190602001808311610738575050505050905090565b60008181526007602090815260408083208151606081810184528254825260018301548286015260028301805485518188028101880187528181528897939688969490860193919290879084015b82821015610c29576000848152602090819020604080516060810182526003860290920180546001600160a01b0316835260018082015484860152600290910154918301919091529083529092019101610bd4565b50505091525050805160208201516040909201519097919650945092505050565b610c5333610e2b565b610c6f576040516282b42960e81b815260040160405180910390fd5b60055415610c7c57600080fd5b6000815111610c8a57600080fd5b8051610c9d90600590602084019061130c565b50600160066000828254610cb19190611753565b90915550506000600b819055600c5550565b610ccc33610e2b565b610ce8576040516282b42960e81b815260040160405180910390fd5b60125460ff161515600114610d3b5760405162461bcd60e51b815260206004820152601960248201527811195c1bdcda5d08185b1c9958591e481d5b999c99595e9959603a1b604482015260640161041f565b600b5415610d5b5760405162461bcd60e51b815260040161041f906117fd565b60023360009081526010602052604090205460ff166002811115610d8157610d8161183f565b03610d8b57600080fd5b600954601154610d9c906001611753565b10610e0a576012805460ff1916905560005b601154811015610ab257600060118281548110610dcd57610dcd6116d0565b6000918252602080832091909101546001600160a01b031682526010905260409020805460ff191690555080610e028161173a565b915050610dae565b33600090815260106020526040902080546002919060ff1916600183610add565b6000805b600454811015610e865760048181548110610e4c57610e4c6116d0565b6000918252602090912001546001600160a01b0390811690841603610e745750600192915050565b80610e7e8161173a565b915050610e2f565b50600092915050565b60058054610e9f91600491611371565b50600554610eac906112d0565b600955610abf600560006112ee565b600081815260076020908152604080832060020180548251818502810185019093528083528493849084015b82821015610f3c576000848152602090819020604080516060810182526003860290920180546001600160a01b0316835260018082015484860152600290910154918301919091529083529092019101610ee7565b5050505090506000803a600f54610f539190611855565b90506000835182610f64919061186c565b610f703a615208611855565b610f7a9190611753565b905060005b8451811015610fc557848181518110610f9a57610f9a6116d0565b60200260200101516020015184610fb19190611753565b935080610fbd8161173a565b915050610f7f565b5047831180610fd5575060005483115b15610fe65750600095945050505050565b60005b84518110156111cc576000858281518110611006576110066116d0565b6020026020010151905082816020015111156110b257600083826020015161102e91906117c3565b82516040519192506001600160a01b03169082156108fc029083906000818181858888f19350505050158015611068573d6000803e3d6000fd5b50815160408051838152602081018790526001600160a01b03909216917fdf273cb619d95419a9cd0ec88123a0538c85064229baa6363788f743fff90deb910160405180910390a2505b6001805481906010906110d6908390600160801b90046001600160801b03166117d6565b92506101000a8154816001600160801b0302191690836001600160801b03160217905550806020015160008082825461110f91906117c3565b9250508190555083601360008282546111289190611753565b90915550506013546703782dace9d9000010156111b9576040516001600160a01b037f000000000000000000000000000000000000000000000000000000000000000016906000906703782dace9d900009082818181858883f19350505050158015611198573d6000803e3d6000fd5b506703782dace9d90000601360008282546111b391906117c3565b90915550505b50806111c48161173a565b915050610fe9565b5060019695505050505050565b60005b6008548110156112bc576000600882815481106111fb576111fb6116d0565b6000918252602080832090910154808352600790915260408220828155600181018390559092509061123060028301826113b1565b505060005b60045481101561129a57600060048281548110611254576112546116d0565b6000918252602080832090910154858352600d825260408084206001600160a01b03909216845291529020805460ff1916905550806112928161173a565b915050611235565b506000908152600e6020526040812055806112b48161173a565b9150506111dc565b506112c9600860006112ee565b6000600f55565b60006112dd60028361186c565b6112e8906001611753565b92915050565b508054600082559060005260206000209081019061065391906113d2565b828054828255906000526020600020908101928215611361579160200282015b8281111561136157825182546001600160a01b0319166001600160a01b0390911617825560209092019160019091019061132c565b5061136d9291506113d2565b5090565b8280548282559060005260206000209081019282156113615760005260206000209182015b82811115611361578254825591600101919060010190611396565b508054600082556003029060005260206000209081019061065391906113e7565b5b8082111561136d57600081556001016113d3565b5b8082111561136d5780546001600160a01b031916815560006001820181905560028201556003016113e8565b6000806000806060858703121561142a57600080fd5b8435935060208501359250604085013567ffffffffffffffff8082111561145057600080fd5b818701915087601f83011261146457600080fd5b81358181111561147357600080fd5b88602060608302850101111561148857600080fd5b95989497505060200194505050565b6020808252825182820181905260009190848201906040850190845b818110156114cf578351835292840192918401916001016114b3565b50909695505050505050565b6000602082840312156114ed57600080fd5b5035919050565b60006020828403121561150657600080fd5b8135801515811461151657600080fd5b9392505050565b6020808252825182820181905260009190848201906040850190845b818110156114cf5783516001600160a01b031683529284019291840191600101611539565b600060608083018684526020868186015260408381870152828751808552608088019150838901945060005b818110156115c057855180516001600160a01b03168452858101518685015284015184840152948401949186019160010161158a565b50909a9950505050505050505050565b634e487b7160e01b600052604160045260246000fd5b6001600160a01b038116811461065357600080fd5b8035611606816115e6565b919050565b6000602080838503121561161e57600080fd5b823567ffffffffffffffff8082111561163657600080fd5b818501915085601f83011261164a57600080fd5b81358181111561165c5761165c6115d0565b8060051b604051601f19603f83011681018181108582111715611681576116816115d0565b60405291825284820192508381018501918883111561169f57600080fd5b938501935b828510156116c4576116b5856115fb565b845293850193928501926116a4565b98975050505050505050565b634e487b7160e01b600052603260045260246000fd5b81356116f1816115e6565b81546001600160a01b0319166001600160a01b039190911617815560208201356001820155604090910135600290910155565b634e487b7160e01b600052601160045260246000fd5b60006001820161174c5761174c611724565b5060010190565b808201808211156112e8576112e8611724565b83815260006020848184015260606040840152835180606085015260005b818110156117a057858101830151858201608001528201611784565b506000608082860101526080601f19601f83011685010192505050949350505050565b818103818111156112e8576112e8611724565b6001600160801b038181168382160190808211156117f6576117f6611724565b5092915050565b60208082526022908201527f56616c696461746f7273206368616e67696e6720697320696e2070726f677265604082015261737360f01b606082015260800190565b634e487b7160e01b600052602160045260246000fd5b80820281158282048414176112e8576112e8611724565b60008261188957634e487b7160e01b600052601260045260246000fd5b50049056fea26469706673582212209783afe1366b584f9689703543cbfc5e156278bc874058fcad1073d1749c2c5564736f6c63430008150033",
    "linkReferences": {}
  },
  "methodIdentifiers": {
    "deposit(uint256)": "b6b55f25",
    "freezeDeposits()": "bcb999ca",
    "gasPrice()": "fe173b97",
    "getMyVoteForWithdrawal(uint256)": "afc20615",
    "getProposal(uint256)": "c7f758a8",
    "getProposalList()": "346750f3",
    "getProposedValidators()": "c44339ce",
    "getValidators()": "b7ab4db5",
    "getVotesForWithdrawal(uint256)": "4fb01f21",
    "lastProcessedL2Block()": "65581f50",
    "proposeChangeValidators(address[])": "d00f128b",
    "proposeWithdrawal(uint256,uint256,(address,uint256,uint256)[])": "24862ea9",
    "totalSupply()": "18160ddd",
    "trxDepositCount()": "24c37d6e",
    "trxWithdrawCount()": "939947b8",
    "unfreezeDeposits()": "ef8ae1f9",
    "voteForChangeValidators(bool)": "641840e1",
    "voteForWithdrawal(uint256)": "bb1b2ba2"
  },
  "id": 18
}