{
  "abi": [
    {
      "inputs": [
        {
          "internalType": "uint256",
          "name": "_initialL2Block",
          "type": "uint256"
        },
        {
          "internalType": "address payable",
          "name": "_commissionWallet",
          "type": "address"
        },
        {
          "internalType": "address[]",
          "name": "_goshValidators",
          "type": "address[]"
        }
      ],
      "stateMutability": "nonpayable",
      "type": "constructor"
    },
    {
      "inputs": [],
      "name": "Unauthorized",
      "type": "error"
    },
    {
      "anonymous": false,
      "inputs": [
        {
          "indexed": true,
          "internalType": "address",
          "name": "token",
          "type": "address"
        },
        {
          "indexed": false,
          "internalType": "address",
          "name": "from",
          "type": "address"
        },
        {
          "indexed": false,
          "internalType": "uint256",
          "name": "pubkey",
          "type": "uint256"
        },
        {
          "indexed": false,
          "internalType": "uint256",
          "name": "value",
          "type": "uint256"
        }
      ],
      "name": "Deposited",
      "type": "event"
    },
    {
      "anonymous": false,
      "inputs": [
        {
          "indexed": true,
          "internalType": "uint256",
          "name": "proposalKey",
          "type": "uint256"
        }
      ],
      "name": "WithdrawExecuted",
      "type": "event"
    },
    {
      "anonymous": false,
      "inputs": [
        {
          "indexed": true,
          "internalType": "uint256",
          "name": "proposalKey",
          "type": "uint256"
        },
        {
          "indexed": true,
          "internalType": "address",
          "name": "voter",
          "type": "address"
        },
        {
          "indexed": false,
          "internalType": "uint8",
          "name": "reason",
          "type": "uint8"
        }
      ],
      "name": "WithdrawRejected",
      "type": "event"
    },
    {
      "anonymous": false,
      "inputs": [
        {
          "indexed": true,
          "internalType": "address",
          "name": "token",
          "type": "address"
        },
        {
          "indexed": true,
          "internalType": "address",
          "name": "to",
          "type": "address"
        },
        {
          "indexed": false,
          "internalType": "uint256",
          "name": "value",
          "type": "uint256"
        },
        {
          "indexed": false,
          "internalType": "uint256",
          "name": "commission",
          "type": "uint256"
        }
      ],
      "name": "Withdrawal",
      "type": "event"
    },
    {
      "inputs": [
        {
          "internalType": "uint256",
          "name": "pubkey",
          "type": "uint256"
        }
      ],
      "name": "deposit",
      "outputs": [],
      "stateMutability": "payable",
      "type": "function"
    },
    {
      "inputs": [
        {
          "internalType": "address",
          "name": "tokenRoot",
          "type": "address"
        },
        {
          "internalType": "uint256",
          "name": "value",
          "type": "uint256"
        },
        {
          "internalType": "uint256",
          "name": "pubkey",
          "type": "uint256"
        }
      ],
      "name": "depositERC20",
      "outputs": [],
      "stateMutability": "payable",
      "type": "function"
    },
    {
      "inputs": [],
      "name": "freezeDeposits",
      "outputs": [],
      "stateMutability": "payable",
      "type": "function"
    },
    {
      "inputs": [],
      "name": "gasPrice",
      "outputs": [
        {
          "internalType": "uint256",
          "name": "",
          "type": "uint256"
        }
      ],
      "stateMutability": "view",
      "type": "function"
    },
    {
      "inputs": [
        {
          "internalType": "address",
          "name": "token",
          "type": "address"
        },
        {
          "internalType": "address",
          "name": "recipient",
          "type": "address"
        }
      ],
      "name": "getERC20Approvement",
      "outputs": [
        {
          "internalType": "uint256",
          "name": "value",
          "type": "uint256"
        },
        {
          "internalType": "uint256",
          "name": "commission",
          "type": "uint256"
        }
      ],
      "stateMutability": "view",
      "type": "function"
    },
    {
      "inputs": [
        {
          "internalType": "uint256",
          "name": "proposalKey",
          "type": "uint256"
        },
        {
          "internalType": "address",
          "name": "myAddress",
          "type": "address"
        }
      ],
      "name": "getMyVoteForWithdrawal",
      "outputs": [
        {
          "internalType": "bool",
          "name": "isVoted",
          "type": "bool"
        }
      ],
      "stateMutability": "view",
      "type": "function"
    },
    {
      "inputs": [
        {
          "internalType": "uint256",
          "name": "proposalKey",
          "type": "uint256"
        }
      ],
      "name": "getProposal",
      "outputs": [
        {
          "internalType": "uint256",
          "name": "fromBlock",
          "type": "uint256"
        },
        {
          "internalType": "uint256",
          "name": "tillB",
          "type": "uint256"
        },
        {
          "components": [
            {
              "internalType": "address",
              "name": "token",
              "type": "address"
            },
            {
              "internalType": "address payable",
              "name": "to",
              "type": "address"
            },
            {
              "internalType": "uint256",
              "name": "value",
              "type": "uint256"
            },
            {
              "internalType": "uint256",
              "name": "trxHash",
              "type": "uint256"
            }
          ],
          "internalType": "struct Elock.Transfer[]",
          "name": "transfers",
          "type": "tuple[]"
        }
      ],
      "stateMutability": "view",
      "type": "function"
    },
    {
      "inputs": [],
      "name": "getProposalList",
      "outputs": [
        {
          "internalType": "uint256[]",
          "name": "proposalKeys",
          "type": "uint256[]"
        }
      ],
      "stateMutability": "view",
      "type": "function"
    },
    {
      "inputs": [],
      "name": "getProposedValidators",
      "outputs": [
        {
          "internalType": "address[]",
          "name": "proposedValidatorSet",
          "type": "address[]"
        }
      ],
      "stateMutability": "view",
      "type": "function"
    },
    {
      "inputs": [],
      "name": "getValidators",
      "outputs": [
        {
          "internalType": "address[]",
          "name": "currentValidatorSet",
          "type": "address[]"
        }
      ],
      "stateMutability": "view",
      "type": "function"
    },
    {
      "inputs": [
        {
          "internalType": "uint256",
          "name": "proposalKey",
          "type": "uint256"
        }
      ],
      "name": "getVotesForWithdrawal",
      "outputs": [
        {
          "internalType": "uint256",
          "name": "votes",
          "type": "uint256"
        }
      ],
      "stateMutability": "view",
      "type": "function"
    },
    {
      "inputs": [],
      "name": "lastProcessedL2Block",
      "outputs": [
        {
          "internalType": "uint256",
          "name": "",
          "type": "uint256"
        }
      ],
      "stateMutability": "view",
      "type": "function"
    },
    {
      "inputs": [
        {
          "internalType": "address[]",
          "name": "validatorSet",
          "type": "address[]"
        }
      ],
      "name": "proposeChangeValidators",
      "outputs": [],
      "stateMutability": "payable",
      "type": "function"
    },
    {
      "inputs": [
        {
          "internalType": "uint256",
          "name": "fromBlock",
          "type": "uint256"
        },
        {
          "internalType": "uint256",
          "name": "tillBlock",
          "type": "uint256"
        },
        {
          "components": [
            {
              "internalType": "address",
              "name": "token",
              "type": "address"
            },
            {
              "internalType": "address payable",
              "name": "to",
              "type": "address"
            },
            {
              "internalType": "uint256",
              "name": "value",
              "type": "uint256"
            },
            {
              "internalType": "uint256",
              "name": "trxHash",
              "type": "uint256"
            }
          ],
          "internalType": "struct Elock.Transfer[]",
          "name": "transfers",
          "type": "tuple[]"
        }
      ],
      "name": "proposeWithdrawal",
      "outputs": [],
      "stateMutability": "payable",
      "type": "function"
    },
    {
      "inputs": [],
      "name": "totalSupply",
      "outputs": [
        {
          "internalType": "uint256",
          "name": "",
          "type": "uint256"
        }
      ],
      "stateMutability": "view",
      "type": "function"
    },
    {
      "inputs": [],
      "name": "trxDepositCount",
      "outputs": [
        {
          "internalType": "uint128",
          "name": "",
          "type": "uint128"
        }
      ],
      "stateMutability": "view",
      "type": "function"
    },
    {
      "inputs": [],
      "name": "trxWithdrawCount",
      "outputs": [
        {
          "internalType": "uint128",
          "name": "",
          "type": "uint128"
        }
      ],
      "stateMutability": "view",
      "type": "function"
    },
    {
      "inputs": [],
      "name": "unfreezeDeposits",
      "outputs": [],
      "stateMutability": "payable",
      "type": "function"
    },
    {
      "inputs": [
        {
          "internalType": "bool",
          "name": "vote",
          "type": "bool"
        }
      ],
      "name": "voteForChangeValidators",
      "outputs": [],
      "stateMutability": "payable",
      "type": "function"
    },
    {
      "inputs": [
        {
          "internalType": "uint256",
          "name": "proposalKey",
          "type": "uint256"
        }
      ],
      "name": "voteForWithdrawal",
      "outputs": [],
      "stateMutability": "payable",
      "type": "function"
    },
    {
      "inputs": [],
      "name": "votedForFreezeList",
      "outputs": [
        {
          "internalType": "address[]",
          "name": "",
          "type": "address[]"
        }
      ],
      "stateMutability": "view",
      "type": "function"
    },
    {
      "inputs": [
        {
          "internalType": "address",
          "name": "token",
          "type": "address"
        }
      ],
      "name": "withdrawERC20",
      "outputs": [],
      "stateMutability": "payable",
      "type": "function"
    },
    {
      "stateMutability": "payable",
      "type": "receive"
    }
  ],
  "bytecode": {
    "object": "0x60c06040523480156200001157600080fd5b5060405162002282380380620022828339810160408190526200003491620001f1565b600083116200004257600080fd5b60008151116200005157600080fd5b4340600255608083905260038390556001600160a01b03821660a05260005b8151811015620000dc57600160046000848481518110620000955762000095620002e4565b6020908102919091018101516001600160a01b03168252810191909152604001600020805460ff191691151591909117905580620000d38162000310565b91505062000070565b508051620000f29060149060208401906200012f565b50805162000100906200010d565b6009555062000365915050565b60006200011c6002836200032c565b620001299060016200034f565b92915050565b82805482825590600052602060002090810192821562000187579160200282015b828111156200018757825182546001600160a01b0319166001600160a01b0390911617825560209092019160019091019062000150565b506200019592915062000199565b5090565b5b808211156200019557600081556001016200019a565b6001600160a01b0381168114620001c657600080fd5b50565b634e487b7160e01b600052604160045260246000fd5b8051620001ec81620001b0565b919050565b6000806000606084860312156200020757600080fd5b835192506020808501516200021c81620001b0565b60408601519093506001600160401b03808211156200023a57600080fd5b818701915087601f8301126200024f57600080fd5b815181811115620002645762000264620001c9565b8060051b604051601f19603f830116810181811085821117156200028c576200028c620001c9565b60405291825284820192508381018501918a831115620002ab57600080fd5b938501935b82851015620002d457620002c485620001df565b84529385019392850192620002b0565b8096505050505050509250925092565b634e487b7160e01b600052603260045260246000fd5b634e487b7160e01b600052601160045260246000fd5b600060018201620003255762000325620002fa565b5060010190565b6000826200034a57634e487b7160e01b600052601260045260246000fd5b500490565b80820180821115620001295762000129620002fa565b60805160a051611efa620003886000396000611664015260005050611efa6000f3fe6080604052600436106101395760003560e01c8063a2e22f0e116100ab578063c44339ce1161006f578063c44339ce14610365578063c7f758a81461037a578063d00f128b146103a9578063ef8ae1f9146103bc578063f4f3b200146103c4578063fe173b97146103d757600080fd5b8063a2e22f0e14610300578063b6b55f2514610322578063b7ab4db514610335578063bb1b2ba21461034a578063bcb999ca1461035d57600080fd5b8063438f3b24116100fd578063438f3b24146102405780634fb01f2114610253578063641840e11461028057806365581f5014610293578063775087f2146102a9578063939947b8146102d957600080fd5b806318160ddd1461014557806321425ee01461016e57806324c37d6e146101835780632d504537146101bb578063346750f31461021e57600080fd5b3661014057005b600080fd5b34801561015157600080fd5b5061015b60005481565b6040519081526020015b60405180910390f35b61018161017c3660046119a4565b6103ea565b005b34801561018f57600080fd5b506001546101a3906001600160801b031681565b6040516001600160801b039091168152602001610165565b3480156101c757600080fd5b506102096101d63660046119d9565b6001600160a01b039182166000908152601560209081526040808320939094168252919091522080546001909101549091565b60408051928352602083019190915201610165565b34801561022a57600080fd5b50610233610612565b6040516101659190611a12565b61018161024e366004611a56565b61066a565b34801561025f57600080fd5b5061015b61026e366004611ad9565b6000908152600e602052604090205490565b61018161028e366004611b00565b610801565b34801561029f57600080fd5b5061015b60035481565b3480156102b557600080fd5b506102c96102c4366004611b24565b61090b565b6040519015158152602001610165565b3480156102e557600080fd5b506001546101a390600160801b90046001600160801b031681565b34801561030c57600080fd5b50610315610938565b6040516101659190611b49565b610181610330366004611ad9565b610999565b34801561034157600080fd5b50610315610a4a565b610181610358366004611ad9565b610aaa565b610181610c4c565b34801561037157600080fd5b50610315610e14565b34801561038657600080fd5b5061039a610395366004611ad9565b610e74565b60405161016593929190611b8a565b6101816103b7366004611c1f565b610f45565b610181610fc8565b6101816103d2366004611ce4565b61113e565b3480156103e357600080fd5b503a61015b565b60125460ff16156103fa57600080fd5b6001600160a01b03831661040d57600080fd5b604051636eb1769f60e11b81523360048201523060248201526000906001600160a01b0385169063dd62ed3e90604401602060405180830381865afa15801561045a573d6000803e3d6000fd5b505050506040513d601f19601f8201168201806040525081019061047e9190611d01565b9050828110156104c45760405162461bcd60e51b815260206004820152600c60248201526b139bdd08185c1c1c9bdd995960a21b60448201526064015b60405180910390fd5b6040516323b872dd60e01b8152336004820152306024820152604481018490526000906001600160a01b038616906323b872dd906064016020604051808303816000875af115801561051a573d6000803e3d6000fd5b505050506040513d601f19601f8201168201806040525081019061053e9190611d1a565b90508061057f5760405162461bcd60e51b815260206004820152600f60248201526e151c985b9cd9995c8819985a5b1959608a1b60448201526064016104bb565b60018054819060009061059c9083906001600160801b0316611d4d565b82546001600160801b039182166101009390930a92830291909202199091161790555060408051338152602081018590529081018590526001600160a01b038616907ff5681f9d0db1b911ac18ee83d515a1cf1051853a9eae418316a2fdf7dea427c59060600160405180910390a25050505050565b6060600880548060200260200160405190810160405280929190818152602001828054801561066057602002820191906000526020600020905b81548152602001906001019080831161064c575b5050505050905090565b3360009081526004602052604090205460ff16610699576040516282b42960e81b815260040160405180910390fd5b60035484146106a757600080fd5b6040805160208082018790528183018690528251808303840181526060909201835281518282012060008181526007909252929020549091901561072d5760405162461bcd60e51b815260206004820152601760248201527f50726f706f73616c20616c72656164792065786973747300000000000000000060448201526064016104bb565b600081815260076020526040812087815560018101879055905b848110156107a8578160020186868381811061076557610765611d74565b8354600181018555600094855260209094206080909102929092019260040290910190506107938282611daa565b505080806107a090611df4565b915050610747565b50600880546001810182556000919091527ff3f7a9fe364faab93b216da50a3214154f22a0a2b415b23a84c8169e8b636ee30182905562061a80600f60008282546107f39190611e0d565b909155505050505050505050565b3360009081526004602052604090205460ff16610830576040516282b42960e81b815260040160405180910390fd5b336000908152600a602052604090205460ff16156108805760405162461bcd60e51b815260206004820152600d60248201526c105b1c9958591e481d9bdd1959609a1b60448201526064016104bb565b336000908152600a60205260409020805460ff1916600117905580156108ce576001600b60008282546108b39190611e0d565b9091555050600954600b54106108cb576108cb611270565b50565b6001600c60008282546108e19190611e0d565b90915550506009546014546108f69190611e20565b600c5411156108cb576108cb6005600061184c565b6000828152600d602090815260408083206001600160a01b038516845290915290205460ff165b92915050565b6060601180548060200260200160405190810160405280929190818152602001828054801561066057602002820191906000526020600020905b81546001600160a01b03168152600190910190602001808311610972575050505050905090565b60125460ff16156109a957600080fd5b662386f26fc1000034116109bc57600080fd5b600080543401815560018054909182916109e09083906001600160801b0316611d4d565b82546101009290920a6001600160801b03818102199093169190921691909102179055506040805133815260208101839052348183015290516000917ff5681f9d0db1b911ac18ee83d515a1cf1051853a9eae418316a2fdf7dea427c5919081900360600190a250565b60606014805480602002602001604051908101604052809291908181526020018280548015610660576020028201919060005260206000209081546001600160a01b03168152600190910190602001808311610972575050505050905090565b3360009081526004602052604090205460ff16610ad9576040516282b42960e81b815260040160405180910390fd5b6000818152600760205260408120549003610b2d5760405162461bcd60e51b8152602060048201526014602482015273556e6b6e6f776e2070726f706f73616c206b657960601b60448201526064016104bb565b6000818152600d6020908152604080832033845290915281205460ff1615159003610b9a576000818152600d602090815260408083203384528252808320805460ff19166001908117909155848452600e9092528220805491929091610b94908490611e0d565b90915550505b6009546000828152600e6020526040902054106108cb576000610bbc8261136c565b90508015610c1057600082815260076020526040902060010154600355610be16116db565b60405182907f906f71466379a94b86a805004f5cc535b083a42e1a1582e29048cc78633d795590600090a25050565b60405160038152339083907fc93e352b0db2382529aa994f33e15a46c2761d27903172db06fcabd426ebc4889060200160405180910390a35050565b3360009081526004602052604090205460ff16610c7b576040516282b42960e81b815260040160405180910390fd5b60125460ff1615610cce5760405162461bcd60e51b815260206004820152601760248201527f4465706f73697420616c726561647920667265657a656400000000000000000060448201526064016104bb565b600b5415610cee5760405162461bcd60e51b81526004016104bb90611e33565b60013360009081526010602052604090205460ff166002811115610d1457610d14611e75565b03610d1e57600080fd5b600954601154610d2f906001611e0d565b10610daf576012805460ff1916600117905560005b601154811015610da057600060118281548110610d6357610d63611d74565b6000918252602080832091909101546001600160a01b031682526010905260409020805460ff191690555080610d9881611df4565b915050610d44565b50610dad6011600061184c565b565b33600090815260106020526040902080546001919060ff191682805b0217905550601180546001810182556000919091527f31ecc21a745e3968a04e9570e4425bc18fa8019c68028196b546d1669c200c680180546001600160a01b03191633179055565b60606005805480602002602001604051908101604052809291908181526020018280548015610660576020028201919060005260206000209081546001600160a01b03168152600190910190602001808311610972575050505050905090565b60008181526007602090815260408083208151606081810184528254825260018301548286015260028301805485518188028101880187528181528897939688969490860193919290879084015b82821015610f24576000848152602090819020604080516080810182526004860290920180546001600160a01b039081168452600180830154909116848601526002820154928401929092526003015460608301529083529092019101610ec2565b50505091525050805160208201516040909201519097919650945092505050565b3360009081526004602052604090205460ff16610f74576040516282b42960e81b815260040160405180910390fd5b60055415610f8157600080fd5b6000815111610f8f57600080fd5b8051610fa290600590602084019061186a565b50600160066000828254610fb69190611e0d565b90915550506000600b819055600c5550565b3360009081526004602052604090205460ff16610ff7576040516282b42960e81b815260040160405180910390fd5b60125460ff16151560011461104e5760405162461bcd60e51b815260206004820152601960248201527f4465706f73697420616c726561647920756e667265657a65640000000000000060448201526064016104bb565b600b541561106e5760405162461bcd60e51b81526004016104bb90611e33565b60023360009081526010602052604090205460ff16600281111561109457611094611e75565b0361109e57600080fd5b6009546011546110af906001611e0d565b1061111d576012805460ff1916905560005b601154811015610da0576000601182815481106110e0576110e0611d74565b6000918252602080832091909101546001600160a01b031682526010905260409020805460ff19169055508061111581611df4565b9150506110c1565b33600090815260106020526040902080546002919060ff1916600183610dcb565b6001600160a01b03811660009081526015602090815260408083203384529091529020805461116c57600080fd5b8060010154341461117c57600080fd5b80546001808301546001600160a01b0385166000818152601560209081526040808320338085529252808320838155909501829055935163a9059cbb60e01b8152600481019490945260248401859052919263a9059cbb906044016020604051808303816000875af11580156111f6573d6000803e3d6000fd5b505050506040513d601f19601f8201168201806040525081019061121a9190611d1a565b9050801561126957604080518481526020810184905233916001600160a01b038816917fc2b4a290c20fb28939d29f102514fbffd2b73c059ffba8b78250c94161d5fcc6910160405180910390a35b5050505050565b60005b6014548110156112d257600460006014838154811061129457611294611d74565b60009182526020808320909101546001600160a01b031683528201929092526040019020805460ff19169055806112ca81611df4565b915050611273565b5060005b60055481101561133f57600160046000600584815481106112f9576112f9611d74565b6000918252602080832091909101546001600160a01b031683528201929092526040019020805460ff19169115159190911790558061133781611df4565b9150506112d6565b5060058054611350916014916118cf565b5060055461135d906117d2565b600955610dad6005600061184c565b600081815260076020908152604080832060020180548251818502810185019093528083528493849084015b828210156113fa576000848152602090819020604080516080810182526004860290920180546001600160a01b039081168452600180830154909116848601526002820154928401929092526003015460608301529083529092019101611398565b5050505090506000803a600f546114119190611e8b565b905060008351826114229190611ea2565b61142e3a615208611e8b565b6114389190611e0d565b905060005b84518110156114835784818151811061145857611458611d74565b6020026020010151604001518461146f9190611e0d565b93508061147b81611df4565b91505061143d565b5047831180611493575060005483115b156114a45750600095945050505050565b60005b84518110156116305760008582815181106114c4576114c4611d74565b602090810291909101015180519091506001600160a01b031661160557828160400151111561159d5760008382604001516114ff9190611e20565b60208301516040519192506001600160a01b03169082156108fc029083906000818181858888f1935050505015801561153c573d6000803e3d6000fd5b5081602001516001600160a01b031682600001516001600160a01b03167fc2b4a290c20fb28939d29f102514fbffd2b73c059ffba8b78250c94161d5fcc68387604051611593929190918252602082015260400190565b60405180910390a3505b6001805481906010906115c1908390600160801b90046001600160801b0316611d4d565b92506101000a8154816001600160801b0302191690836001600160801b0316021790555080604001516000808282546115fa9190611e20565b9091555061161d9050565b61161d816000015182602001518360400151866117ea565b508061162881611df4565b9150506114a7565b5081601360008282546116439190611e0d565b90915550506013546703782dace9d9000010156116cf576001600160a01b037f0000000000000000000000000000000000000000000000000000000000000000166108fc6116933a615208611e8b565b6013546116a09190611e20565b6040518115909202916000818181858888f193505050501580156116c8573d6000803e3d6000fd5b5060006013555b50600195945050505050565b60005b6008548110156117be576000600882815481106116fd576116fd611d74565b60009182526020808320909101548083526007909152604082208281556001810183905590925090611732600283018261190f565b505060005b60145481101561179c5760006014828154811061175657611756611d74565b6000918252602080832090910154858352600d825260408084206001600160a01b03909216845291529020805460ff19169055508061179481611df4565b915050611737565b506000908152600e6020526040812055806117b681611df4565b9150506116de565b506117cb6008600061184c565b6000600f55565b60006117df600283611ea2565b610932906001611e0d565b6001600160a01b0380851660009081526015602090815260408083209387168352929052908120805490918491839190611825908490611e0d565b92505081905550818160010160008282546118409190611e0d565b90915550505050505050565b50805460008255906000526020600020908101906108cb9190611930565b8280548282559060005260206000209081019282156118bf579160200282015b828111156118bf57825182546001600160a01b0319166001600160a01b0390911617825560209092019160019091019061188a565b506118cb929150611930565b5090565b8280548282559060005260206000209081019282156118bf5760005260206000209182015b828111156118bf5782548255916001019190600101906118f4565b50805460008255600402906000526020600020908101906108cb9190611945565b5b808211156118cb5760008155600101611931565b5b808211156118cb5780546001600160a01b0319908116825560018201805490911690556000600282018190556003820155600401611946565b6001600160a01b03811681146108cb57600080fd5b803561199f8161197f565b919050565b6000806000606084860312156119b957600080fd5b83356119c48161197f565b95602085013595506040909401359392505050565b600080604083850312156119ec57600080fd5b82356119f78161197f565b91506020830135611a078161197f565b809150509250929050565b6020808252825182820181905260009190848201906040850190845b81811015611a4a57835183529284019291840191600101611a2e565b50909695505050505050565b60008060008060608587031215611a6c57600080fd5b8435935060208501359250604085013567ffffffffffffffff80821115611a9257600080fd5b818701915087601f830112611aa657600080fd5b813581811115611ab557600080fd5b8860208260071b8501011115611aca57600080fd5b95989497505060200194505050565b600060208284031215611aeb57600080fd5b5035919050565b80151581146108cb57600080fd5b600060208284031215611b1257600080fd5b8135611b1d81611af2565b9392505050565b60008060408385031215611b3757600080fd5b823591506020830135611a078161197f565b6020808252825182820181905260009190848201906040850190845b81811015611a4a5783516001600160a01b031683529284019291840191600101611b65565b60006060808301868452602086818601526040838187015282875180855260809450848801915083890160005b82811015611bf857815180516001600160a01b0390811686528782015116878601528581015186860152880151888501529286019290850190600101611bb7565b50919b9a5050505050505050505050565b634e487b7160e01b600052604160045260246000fd5b60006020808385031215611c3257600080fd5b823567ffffffffffffffff80821115611c4a57600080fd5b818501915085601f830112611c5e57600080fd5b813581811115611c7057611c70611c09565b8060051b604051601f19603f83011681018181108582111715611c9557611c95611c09565b604052918252848201925083810185019188831115611cb357600080fd5b938501935b82851015611cd857611cc985611994565b84529385019392850192611cb8565b98975050505050505050565b600060208284031215611cf657600080fd5b8135611b1d8161197f565b600060208284031215611d1357600080fd5b5051919050565b600060208284031215611d2c57600080fd5b8151611b1d81611af2565b634e487b7160e01b600052601160045260246000fd5b6001600160801b03818116838216019080821115611d6d57611d6d611d37565b5092915050565b634e487b7160e01b600052603260045260246000fd5b80546001600160a01b0319166001600160a01b0392909216919091179055565b8135611db58161197f565b611dbf8183611d8a565b506020820135611dce8161197f565b611ddb8160018401611d8a565b5060408201356002820155606082013560038201555050565b600060018201611e0657611e06611d37565b5060010190565b8082018082111561093257610932611d37565b8181038181111561093257610932611d37565b60208082526022908201527f56616c696461746f7273206368616e67696e6720697320696e2070726f677265604082015261737360f01b606082015260800190565b634e487b7160e01b600052602160045260246000fd5b808202811582820484141761093257610932611d37565b600082611ebf57634e487b7160e01b600052601260045260246000fd5b50049056fea26469706673582212204d8f61f64aac0dd0054b905dc25dd4fb55041e324bee1b3ded5fdfd2cabd09e664736f6c63430008150033",
    "linkReferences": {}
  },
  "methodIdentifiers": {
    "deposit(uint256)": "b6b55f25",
    "depositERC20(address,uint256,uint256)": "21425ee0",
    "freezeDeposits()": "bcb999ca",
    "gasPrice()": "fe173b97",
    "getERC20Approvement(address,address)": "2d504537",
    "getMyVoteForWithdrawal(uint256,address)": "775087f2",
    "getProposal(uint256)": "c7f758a8",
    "getProposalList()": "346750f3",
    "getProposedValidators()": "c44339ce",
    "getValidators()": "b7ab4db5",
    "getVotesForWithdrawal(uint256)": "4fb01f21",
    "lastProcessedL2Block()": "65581f50",
    "proposeChangeValidators(address[])": "d00f128b",
    "proposeWithdrawal(uint256,uint256,(address,address,uint256,uint256)[])": "438f3b24",
    "totalSupply()": "18160ddd",
    "trxDepositCount()": "24c37d6e",
    "trxWithdrawCount()": "939947b8",
    "unfreezeDeposits()": "ef8ae1f9",
    "voteForChangeValidators(bool)": "641840e1",
    "voteForWithdrawal(uint256)": "bb1b2ba2",
    "votedForFreezeList()": "a2e22f0e",
    "withdrawERC20(address)": "f4f3b200"
  },
  "id": 18
}