{
  "abi": [
    {
      "inputs": [
        {
          "internalType": "uint256",
          "name": "_initialL2Block",
          "type": "uint256"
        },
        {
          "internalType": "address payable",
          "name": "_commissionWallet",
          "type": "address"
        },
        {
          "internalType": "address[]",
          "name": "_goshValidators",
          "type": "address[]"
        }
      ],
      "stateMutability": "nonpayable",
      "type": "constructor"
    },
    {
      "inputs": [],
      "name": "Unauthorized",
      "type": "error"
    },
    {
      "anonymous": false,
      "inputs": [
        {
          "indexed": true,
          "internalType": "address",
          "name": "token",
          "type": "address"
        },
        {
          "indexed": false,
          "internalType": "address",
          "name": "from",
          "type": "address"
        },
        {
          "indexed": false,
          "internalType": "uint256",
          "name": "pubkey",
          "type": "uint256"
        },
        {
          "indexed": false,
          "internalType": "uint256",
          "name": "value",
          "type": "uint256"
        }
      ],
      "name": "Deposited",
      "type": "event"
    },
    {
      "anonymous": false,
      "inputs": [
        {
          "indexed": true,
          "internalType": "uint256",
          "name": "proposalKey",
          "type": "uint256"
        }
      ],
      "name": "WithdrawExecuted",
      "type": "event"
    },
    {
      "anonymous": false,
      "inputs": [
        {
          "indexed": true,
          "internalType": "uint256",
          "name": "proposalKey",
          "type": "uint256"
        },
        {
          "indexed": true,
          "internalType": "address",
          "name": "voter",
          "type": "address"
        },
        {
          "indexed": false,
          "internalType": "uint8",
          "name": "reason",
          "type": "uint8"
        }
      ],
      "name": "WithdrawRejected",
      "type": "event"
    },
    {
      "anonymous": false,
      "inputs": [
        {
          "indexed": true,
          "internalType": "address",
          "name": "token",
          "type": "address"
        },
        {
          "indexed": true,
          "internalType": "address",
          "name": "to",
          "type": "address"
        },
        {
          "indexed": false,
          "internalType": "uint256",
          "name": "value",
          "type": "uint256"
        },
        {
          "indexed": false,
          "internalType": "uint256",
          "name": "commission",
          "type": "uint256"
        }
      ],
      "name": "Withdrawal",
      "type": "event"
    },
    {
      "inputs": [
        {
          "internalType": "uint256",
          "name": "pubkey",
          "type": "uint256"
        }
      ],
      "name": "deposit",
      "outputs": [],
      "stateMutability": "payable",
      "type": "function"
    },
    {
      "inputs": [
        {
          "internalType": "address",
          "name": "tokenRoot",
          "type": "address"
        },
        {
          "internalType": "uint256",
          "name": "value",
          "type": "uint256"
        },
        {
          "internalType": "uint256",
          "name": "pubkey",
          "type": "uint256"
        }
      ],
      "name": "depositERC20",
      "outputs": [],
      "stateMutability": "payable",
      "type": "function"
    },
    {
      "inputs": [],
      "name": "freezeDeposits",
      "outputs": [],
      "stateMutability": "payable",
      "type": "function"
    },
    {
      "inputs": [],
      "name": "gasPrice",
      "outputs": [
        {
          "internalType": "uint256",
          "name": "",
          "type": "uint256"
        }
      ],
      "stateMutability": "view",
      "type": "function"
    },
    {
      "inputs": [
        {
          "internalType": "uint256",
          "name": "proposalKey",
          "type": "uint256"
        },
        {
          "internalType": "address",
          "name": "myAddress",
          "type": "address"
        }
      ],
      "name": "getMyVoteForWithdrawal",
      "outputs": [
        {
          "internalType": "bool",
          "name": "isVoted",
          "type": "bool"
        }
      ],
      "stateMutability": "view",
      "type": "function"
    },
    {
      "inputs": [
        {
          "internalType": "uint256",
          "name": "proposalKey",
          "type": "uint256"
        }
      ],
      "name": "getProposal",
      "outputs": [
        {
          "internalType": "uint256",
          "name": "fromBlock",
          "type": "uint256"
        },
        {
          "internalType": "uint256",
          "name": "tillB",
          "type": "uint256"
        },
        {
          "components": [
            {
              "internalType": "address",
              "name": "token",
              "type": "address"
            },
            {
              "internalType": "address payable",
              "name": "to",
              "type": "address"
            },
            {
              "internalType": "uint256",
              "name": "value",
              "type": "uint256"
            },
            {
              "internalType": "uint256",
              "name": "trxHash",
              "type": "uint256"
            }
          ],
          "internalType": "struct Elock.Transfer[]",
          "name": "transfers",
          "type": "tuple[]"
        }
      ],
      "stateMutability": "view",
      "type": "function"
    },
    {
      "inputs": [],
      "name": "getProposalList",
      "outputs": [
        {
          "internalType": "uint256[]",
          "name": "proposalKeys",
          "type": "uint256[]"
        }
      ],
      "stateMutability": "view",
      "type": "function"
    },
    {
      "inputs": [],
      "name": "getProposedValidators",
      "outputs": [
        {
          "internalType": "address[]",
          "name": "proposedValidatorSet",
          "type": "address[]"
        }
      ],
      "stateMutability": "view",
      "type": "function"
    },
    {
      "inputs": [],
      "name": "getValidators",
      "outputs": [
        {
          "internalType": "address[]",
          "name": "currentValidatorSet",
          "type": "address[]"
        }
      ],
      "stateMutability": "view",
      "type": "function"
    },
    {
      "inputs": [
        {
          "internalType": "uint256",
          "name": "proposalKey",
          "type": "uint256"
        }
      ],
      "name": "getVotesForWithdrawal",
      "outputs": [
        {
          "internalType": "uint256",
          "name": "votes",
          "type": "uint256"
        }
      ],
      "stateMutability": "view",
      "type": "function"
    },
    {
      "inputs": [],
      "name": "lastProcessedL2Block",
      "outputs": [
        {
          "internalType": "uint256",
          "name": "",
          "type": "uint256"
        }
      ],
      "stateMutability": "view",
      "type": "function"
    },
    {
      "inputs": [
        {
          "internalType": "address[]",
          "name": "validatorSet",
          "type": "address[]"
        }
      ],
      "name": "proposeChangeValidators",
      "outputs": [],
      "stateMutability": "payable",
      "type": "function"
    },
    {
      "inputs": [
        {
          "internalType": "uint256",
          "name": "fromBlock",
          "type": "uint256"
        },
        {
          "internalType": "uint256",
          "name": "tillBlock",
          "type": "uint256"
        },
        {
          "components": [
            {
              "internalType": "address",
              "name": "token",
              "type": "address"
            },
            {
              "internalType": "address payable",
              "name": "to",
              "type": "address"
            },
            {
              "internalType": "uint256",
              "name": "value",
              "type": "uint256"
            },
            {
              "internalType": "uint256",
              "name": "trxHash",
              "type": "uint256"
            }
          ],
          "internalType": "struct Elock.Transfer[]",
          "name": "transfers",
          "type": "tuple[]"
        }
      ],
      "name": "proposeWithdrawal",
      "outputs": [],
      "stateMutability": "payable",
      "type": "function"
    },
    {
      "inputs": [],
      "name": "totalSupply",
      "outputs": [
        {
          "internalType": "uint256",
          "name": "",
          "type": "uint256"
        }
      ],
      "stateMutability": "view",
      "type": "function"
    },
    {
      "inputs": [],
      "name": "trxDepositCount",
      "outputs": [
        {
          "internalType": "uint128",
          "name": "",
          "type": "uint128"
        }
      ],
      "stateMutability": "view",
      "type": "function"
    },
    {
      "inputs": [],
      "name": "trxWithdrawCount",
      "outputs": [
        {
          "internalType": "uint128",
          "name": "",
          "type": "uint128"
        }
      ],
      "stateMutability": "view",
      "type": "function"
    },
    {
      "inputs": [],
      "name": "unfreezeDeposits",
      "outputs": [],
      "stateMutability": "payable",
      "type": "function"
    },
    {
      "inputs": [
        {
          "internalType": "bool",
          "name": "vote",
          "type": "bool"
        }
      ],
      "name": "voteForChangeValidators",
      "outputs": [],
      "stateMutability": "payable",
      "type": "function"
    },
    {
      "inputs": [
        {
          "internalType": "uint256",
          "name": "proposalKey",
          "type": "uint256"
        }
      ],
      "name": "voteForWithdrawal",
      "outputs": [],
      "stateMutability": "payable",
      "type": "function"
    },
    {
      "inputs": [],
      "name": "votedForFreezeList",
      "outputs": [
        {
          "internalType": "address[]",
          "name": "",
          "type": "address[]"
        }
      ],
      "stateMutability": "view",
      "type": "function"
    },
    {
      "stateMutability": "payable",
      "type": "receive"
    }
  ],
  "bytecode": {
    "object": "0x60c06040523480156200001157600080fd5b5060405162001fe838038062001fe88339810160408190526200003491620001f1565b600083116200004257600080fd5b60008151116200005157600080fd5b4340600255608083905260038390556001600160a01b03821660a05260005b8151811015620000dc57600160046000848481518110620000955762000095620002e4565b6020908102919091018101516001600160a01b03168252810191909152604001600020805460ff191691151591909117905580620000d38162000310565b91505062000070565b508051620000f29060149060208401906200012f565b50805162000100906200010d565b6009555062000365915050565b60006200011c6002836200032c565b620001299060016200034f565b92915050565b82805482825590600052602060002090810192821562000187579160200282015b828111156200018757825182546001600160a01b0319166001600160a01b0390911617825560209092019160019091019062000150565b506200019592915062000199565b5090565b5b808211156200019557600081556001016200019a565b6001600160a01b0381168114620001c657600080fd5b50565b634e487b7160e01b600052604160045260246000fd5b8051620001ec81620001b0565b919050565b6000806000606084860312156200020757600080fd5b835192506020808501516200021c81620001b0565b60408601519093506001600160401b03808211156200023a57600080fd5b818701915087601f8301126200024f57600080fd5b815181811115620002645762000264620001c9565b8060051b604051601f19603f830116810181811085821117156200028c576200028c620001c9565b60405291825284820192508381018501918a831115620002ab57600080fd5b938501935b82851015620002d457620002c485620001df565b84529385019392850192620002b0565b8096505050505050509250925092565b634e487b7160e01b600052603260045260246000fd5b634e487b7160e01b600052601160045260246000fd5b600060018201620003255762000325620002fa565b5060010190565b6000826200034a57634e487b7160e01b600052601260045260246000fd5b500490565b80820180821115620001295762000129620002fa565b60805160a051611c60620003886000396000611477015260005050611c606000f3fe6080604052600436106101235760003560e01c8063a2e22f0e116100a0578063c44339ce11610064578063c44339ce146102ec578063c7f758a814610301578063d00f128b14610330578063ef8ae1f914610343578063fe173b971461034b57600080fd5b8063a2e22f0e14610287578063b6b55f25146102a9578063b7ab4db5146102bc578063bb1b2ba2146102d1578063bcb999ca146102e457600080fd5b80634fb01f21116100e75780634fb01f21146101da578063641840e11461020757806365581f501461021a578063775087f214610230578063939947b81461026057600080fd5b806318160ddd1461012f57806321425ee01461015857806324c37d6e1461016d578063346750f3146101a5578063438f3b24146101c757600080fd5b3661012a57005b600080fd5b34801561013b57600080fd5b5061014560005481565b6040519081526020015b60405180910390f35b61016b610166366004611755565b61035e565b005b34801561017957600080fd5b5060015461018d906001600160801b031681565b6040516001600160801b03909116815260200161014f565b3480156101b157600080fd5b506101ba610586565b60405161014f919061178a565b61016b6101d53660046117ce565b6105de565b3480156101e657600080fd5b506101456101f5366004611851565b6000908152600e602052604090205490565b61016b610215366004611878565b610775565b34801561022657600080fd5b5061014560035481565b34801561023c57600080fd5b5061025061024b36600461189c565b61087f565b604051901515815260200161014f565b34801561026c57600080fd5b5060015461018d90600160801b90046001600160801b031681565b34801561029357600080fd5b5061029c6108ac565b60405161014f91906118cc565b61016b6102b7366004611851565b61090d565b3480156102c857600080fd5b5061029c6109be565b61016b6102df366004611851565b610a1e565b61016b610bc0565b3480156102f857600080fd5b5061029c610d88565b34801561030d57600080fd5b5061032161031c366004611851565b610de8565b60405161014f9392919061190d565b61016b61033e3660046119a2565b610eb9565b61016b610f3c565b34801561035757600080fd5b503a610145565b60125460ff161561036e57600080fd5b6001600160a01b03831661038157600080fd5b604051636eb1769f60e11b81523360048201523060248201526000906001600160a01b0385169063dd62ed3e90604401602060405180830381865afa1580156103ce573d6000803e3d6000fd5b505050506040513d601f19601f820116820180604052508101906103f29190611a67565b9050828110156104385760405162461bcd60e51b815260206004820152600c60248201526b139bdd08185c1c1c9bdd995960a21b60448201526064015b60405180910390fd5b6040516323b872dd60e01b8152336004820152306024820152604481018490526000906001600160a01b038616906323b872dd906064016020604051808303816000875af115801561048e573d6000803e3d6000fd5b505050506040513d601f19601f820116820180604052508101906104b29190611a80565b9050806104f35760405162461bcd60e51b815260206004820152600f60248201526e151c985b9cd9995c8819985a5b1959608a1b604482015260640161042f565b6001805481906000906105109083906001600160801b0316611ab3565b82546001600160801b039182166101009390930a92830291909202199091161790555060408051338152602081018590529081018590526001600160a01b038616907ff5681f9d0db1b911ac18ee83d515a1cf1051853a9eae418316a2fdf7dea427c59060600160405180910390a25050505050565b606060088054806020026020016040519081016040528092919081815260200182805480156105d457602002820191906000526020600020905b8154815260200190600101908083116105c0575b5050505050905090565b3360009081526004602052604090205460ff1661060d576040516282b42960e81b815260040160405180910390fd5b600354841461061b57600080fd5b604080516020808201879052818301869052825180830384018152606090920183528151828201206000818152600790925292902054909190156106a15760405162461bcd60e51b815260206004820152601760248201527f50726f706f73616c20616c726561647920657869737473000000000000000000604482015260640161042f565b600081815260076020526040812087815560018101879055905b8481101561071c57816002018686838181106106d9576106d9611ada565b8354600181018555600094855260209094206080909102929092019260040290910190506107078282611b10565b5050808061071490611b5a565b9150506106bb565b50600880546001810182556000919091527ff3f7a9fe364faab93b216da50a3214154f22a0a2b415b23a84c8169e8b636ee30182905562061a80600f60008282546107679190611b73565b909155505050505050505050565b3360009081526004602052604090205460ff166107a4576040516282b42960e81b815260040160405180910390fd5b336000908152600a602052604090205460ff16156107f45760405162461bcd60e51b815260206004820152600d60248201526c105b1c9958591e481d9bdd1959609a1b604482015260640161042f565b336000908152600a60205260409020805460ff191660011790558015610842576001600b60008282546108279190611b73565b9091555050600954600b541061083f5761083f6110b2565b50565b6001600c60008282546108559190611b73565b909155505060095460145461086a9190611b86565b600c54111561083f5761083f600560006115fd565b6000828152600d602090815260408083206001600160a01b038516845290915290205460ff165b92915050565b606060118054806020026020016040519081016040528092919081815260200182805480156105d457602002820191906000526020600020905b81546001600160a01b031681526001909101906020018083116108e6575050505050905090565b60125460ff161561091d57600080fd5b662386f26fc10000341161093057600080fd5b600080543401815560018054909182916109549083906001600160801b0316611ab3565b82546101009290920a6001600160801b03818102199093169190921691909102179055506040805133815260208101839052348183015290516000917ff5681f9d0db1b911ac18ee83d515a1cf1051853a9eae418316a2fdf7dea427c5919081900360600190a250565b606060148054806020026020016040519081016040528092919081815260200182805480156105d4576020028201919060005260206000209081546001600160a01b031681526001909101906020018083116108e6575050505050905090565b3360009081526004602052604090205460ff16610a4d576040516282b42960e81b815260040160405180910390fd5b6000818152600760205260408120549003610aa15760405162461bcd60e51b8152602060048201526014602482015273556e6b6e6f776e2070726f706f73616c206b657960601b604482015260640161042f565b6000818152600d6020908152604080832033845290915281205460ff1615159003610b0e576000818152600d602090815260408083203384528252808320805460ff19166001908117909155848452600e9092528220805491929091610b08908490611b73565b90915550505b6009546000828152600e60205260409020541061083f576000610b30826111ae565b90508015610b8457600082815260076020526040902060010154600355610b556114ee565b60405182907f906f71466379a94b86a805004f5cc535b083a42e1a1582e29048cc78633d795590600090a25050565b60405160038152339083907fc93e352b0db2382529aa994f33e15a46c2761d27903172db06fcabd426ebc4889060200160405180910390a35050565b3360009081526004602052604090205460ff16610bef576040516282b42960e81b815260040160405180910390fd5b60125460ff1615610c425760405162461bcd60e51b815260206004820152601760248201527f4465706f73697420616c726561647920667265657a6564000000000000000000604482015260640161042f565b600b5415610c625760405162461bcd60e51b815260040161042f90611b99565b60013360009081526010602052604090205460ff166002811115610c8857610c88611bdb565b03610c9257600080fd5b600954601154610ca3906001611b73565b10610d23576012805460ff1916600117905560005b601154811015610d1457600060118281548110610cd757610cd7611ada565b6000918252602080832091909101546001600160a01b031682526010905260409020805460ff191690555080610d0c81611b5a565b915050610cb8565b50610d21601160006115fd565b565b33600090815260106020526040902080546001919060ff191682805b0217905550601180546001810182556000919091527f31ecc21a745e3968a04e9570e4425bc18fa8019c68028196b546d1669c200c680180546001600160a01b03191633179055565b606060058054806020026020016040519081016040528092919081815260200182805480156105d4576020028201919060005260206000209081546001600160a01b031681526001909101906020018083116108e6575050505050905090565b60008181526007602090815260408083208151606081810184528254825260018301548286015260028301805485518188028101880187528181528897939688969490860193919290879084015b82821015610e98576000848152602090819020604080516080810182526004860290920180546001600160a01b039081168452600180830154909116848601526002820154928401929092526003015460608301529083529092019101610e36565b50505091525050805160208201516040909201519097919650945092505050565b3360009081526004602052604090205460ff16610ee8576040516282b42960e81b815260040160405180910390fd5b60055415610ef557600080fd5b6000815111610f0357600080fd5b8051610f1690600590602084019061161b565b50600160066000828254610f2a9190611b73565b90915550506000600b819055600c5550565b3360009081526004602052604090205460ff16610f6b576040516282b42960e81b815260040160405180910390fd5b60125460ff161515600114610fc25760405162461bcd60e51b815260206004820152601960248201527f4465706f73697420616c726561647920756e667265657a656400000000000000604482015260640161042f565b600b5415610fe25760405162461bcd60e51b815260040161042f90611b99565b60023360009081526010602052604090205460ff16600281111561100857611008611bdb565b0361101257600080fd5b600954601154611023906001611b73565b10611091576012805460ff1916905560005b601154811015610d145760006011828154811061105457611054611ada565b6000918252602080832091909101546001600160a01b031682526010905260409020805460ff19169055508061108981611b5a565b915050611035565b33600090815260106020526040902080546002919060ff1916600183610d3f565b60005b6014548110156111145760046000601483815481106110d6576110d6611ada565b60009182526020808320909101546001600160a01b031683528201929092526040019020805460ff191690558061110c81611b5a565b9150506110b5565b5060005b600554811015611181576001600460006005848154811061113b5761113b611ada565b6000918252602080832091909101546001600160a01b031683528201929092526040019020805460ff19169115159190911790558061117981611b5a565b915050611118565b506005805461119291601491611680565b5060055461119f906115e5565b600955610d21600560006115fd565b600081815260076020908152604080832060020180548251818502810185019093528083528493849084015b8282101561123c576000848152602090819020604080516080810182526004860290920180546001600160a01b0390811684526001808301549091168486015260028201549284019290925260030154606083015290835290920191016111da565b5050505090506000803a600f546112539190611bf1565b905060008351826112649190611c08565b6112703a615208611bf1565b61127a9190611b73565b905060005b84518110156112c55784818151811061129a5761129a611ada565b602002602001015160400151846112b19190611b73565b9350806112bd81611b5a565b91505061127f565b50478311806112d5575060005483115b156112e65750600095945050505050565b60005b845181101561144357600085828151811061130657611306611ada565b6020026020010151905082816040015111156113cc57600083826040015161132e9190611b86565b60208301516040519192506001600160a01b03169082156108fc029083906000818181858888f1935050505015801561136b573d6000803e3d6000fd5b5081602001516001600160a01b031682600001516001600160a01b03167fc2b4a290c20fb28939d29f102514fbffd2b73c059ffba8b78250c94161d5fcc683876040516113c2929190918252602082015260400190565b60405180910390a3505b6001805481906010906113f0908390600160801b90046001600160801b0316611ab3565b92506101000a8154816001600160801b0302191690836001600160801b0316021790555080604001516000808282546114299190611b86565b9091555082915061143b905081611b5a565b9150506112e9565b5081601360008282546114569190611b73565b90915550506013546703782dace9d9000010156114e2576001600160a01b037f0000000000000000000000000000000000000000000000000000000000000000166108fc6114a63a615208611bf1565b6013546114b39190611b86565b6040518115909202916000818181858888f193505050501580156114db573d6000803e3d6000fd5b5060006013555b50600195945050505050565b60005b6008548110156115d15760006008828154811061151057611510611ada565b6000918252602080832090910154808352600790915260408220828155600181018390559092509061154560028301826116c0565b505060005b6014548110156115af5760006014828154811061156957611569611ada565b6000918252602080832090910154858352600d825260408084206001600160a01b03909216845291529020805460ff1916905550806115a781611b5a565b91505061154a565b506000908152600e6020526040812055806115c981611b5a565b9150506114f1565b506115de600860006115fd565b6000600f55565b60006115f2600283611c08565b6108a6906001611b73565b508054600082559060005260206000209081019061083f91906116e1565b828054828255906000526020600020908101928215611670579160200282015b8281111561167057825182546001600160a01b0319166001600160a01b0390911617825560209092019160019091019061163b565b5061167c9291506116e1565b5090565b8280548282559060005260206000209081019282156116705760005260206000209182015b828111156116705782548255916001019190600101906116a5565b508054600082556004029060005260206000209081019061083f91906116f6565b5b8082111561167c57600081556001016116e2565b5b8082111561167c5780546001600160a01b03199081168255600182018054909116905560006002820181905560038201556004016116f7565b6001600160a01b038116811461083f57600080fd5b803561175081611730565b919050565b60008060006060848603121561176a57600080fd5b833561177581611730565b95602085013595506040909401359392505050565b6020808252825182820181905260009190848201906040850190845b818110156117c2578351835292840192918401916001016117a6565b50909695505050505050565b600080600080606085870312156117e457600080fd5b8435935060208501359250604085013567ffffffffffffffff8082111561180a57600080fd5b818701915087601f83011261181e57600080fd5b81358181111561182d57600080fd5b8860208260071b850101111561184257600080fd5b95989497505060200194505050565b60006020828403121561186357600080fd5b5035919050565b801515811461083f57600080fd5b60006020828403121561188a57600080fd5b81356118958161186a565b9392505050565b600080604083850312156118af57600080fd5b8235915060208301356118c181611730565b809150509250929050565b6020808252825182820181905260009190848201906040850190845b818110156117c25783516001600160a01b0316835292840192918401916001016118e8565b60006060808301868452602086818601526040838187015282875180855260809450848801915083890160005b8281101561197b57815180516001600160a01b039081168652878201511687860152858101518686015288015188850152928601929085019060010161193a565b50919b9a5050505050505050505050565b634e487b7160e01b600052604160045260246000fd5b600060208083850312156119b557600080fd5b823567ffffffffffffffff808211156119cd57600080fd5b818501915085601f8301126119e157600080fd5b8135818111156119f3576119f361198c565b8060051b604051601f19603f83011681018181108582111715611a1857611a1861198c565b604052918252848201925083810185019188831115611a3657600080fd5b938501935b82851015611a5b57611a4c85611745565b84529385019392850192611a3b565b98975050505050505050565b600060208284031215611a7957600080fd5b5051919050565b600060208284031215611a9257600080fd5b81516118958161186a565b634e487b7160e01b600052601160045260246000fd5b6001600160801b03818116838216019080821115611ad357611ad3611a9d565b5092915050565b634e487b7160e01b600052603260045260246000fd5b80546001600160a01b0319166001600160a01b0392909216919091179055565b8135611b1b81611730565b611b258183611af0565b506020820135611b3481611730565b611b418160018401611af0565b5060408201356002820155606082013560038201555050565b600060018201611b6c57611b6c611a9d565b5060010190565b808201808211156108a6576108a6611a9d565b818103818111156108a6576108a6611a9d565b60208082526022908201527f56616c696461746f7273206368616e67696e6720697320696e2070726f677265604082015261737360f01b606082015260800190565b634e487b7160e01b600052602160045260246000fd5b80820281158282048414176108a6576108a6611a9d565b600082611c2557634e487b7160e01b600052601260045260246000fd5b50049056fea264697066735822122063357d150939fc4ab2cda875d2b76af077babda134cc83ec2b54fc627978cee464736f6c63430008150033",
    "linkReferences": {}
  },
  "methodIdentifiers": {
    "deposit(uint256)": "b6b55f25",
    "depositERC20(address,uint256,uint256)": "21425ee0",
    "freezeDeposits()": "bcb999ca",
    "gasPrice()": "fe173b97",
    "getMyVoteForWithdrawal(uint256,address)": "775087f2",
    "getProposal(uint256)": "c7f758a8",
    "getProposalList()": "346750f3",
    "getProposedValidators()": "c44339ce",
    "getValidators()": "b7ab4db5",
    "getVotesForWithdrawal(uint256)": "4fb01f21",
    "lastProcessedL2Block()": "65581f50",
    "proposeChangeValidators(address[])": "d00f128b",
    "proposeWithdrawal(uint256,uint256,(address,address,uint256,uint256)[])": "438f3b24",
    "totalSupply()": "18160ddd",
    "trxDepositCount()": "24c37d6e",
    "trxWithdrawCount()": "939947b8",
    "unfreezeDeposits()": "ef8ae1f9",
    "voteForChangeValidators(bool)": "641840e1",
    "voteForWithdrawal(uint256)": "bb1b2ba2",
    "votedForFreezeList()": "a2e22f0e"
  },
  "id": 18
}