{
  "abi": [
    {
      "inputs": [
        {
          "internalType": "uint256",
          "name": "_initialL2Block",
          "type": "uint256"
        },
        {
          "internalType": "address payable",
          "name": "_commissionWallet",
          "type": "address"
        },
        {
          "internalType": "address[]",
          "name": "_goshValidators",
          "type": "address[]"
        }
      ],
      "stateMutability": "nonpayable",
      "type": "constructor"
    },
    {
      "inputs": [],
      "name": "Unauthorized",
      "type": "error"
    },
    {
      "anonymous": false,
      "inputs": [
        {
          "indexed": true,
          "internalType": "address",
          "name": "token",
          "type": "address"
        },
        {
          "indexed": false,
          "internalType": "address",
          "name": "from",
          "type": "address"
        },
        {
          "indexed": false,
          "internalType": "uint256",
          "name": "pubkey",
          "type": "uint256"
        },
        {
          "indexed": false,
          "internalType": "uint256",
          "name": "value",
          "type": "uint256"
        }
      ],
      "name": "Deposited",
      "type": "event"
    },
    {
      "anonymous": false,
      "inputs": [
        {
          "indexed": true,
          "internalType": "uint256",
          "name": "proposalKey",
          "type": "uint256"
        }
      ],
      "name": "WithdrawExecuted",
      "type": "event"
    },
    {
      "anonymous": false,
      "inputs": [
        {
          "indexed": true,
          "internalType": "uint256",
          "name": "proposalKey",
          "type": "uint256"
        },
        {
          "indexed": true,
          "internalType": "address",
          "name": "voter",
          "type": "address"
        },
        {
          "indexed": false,
          "internalType": "uint8",
          "name": "reason",
          "type": "uint8"
        }
      ],
      "name": "WithdrawRejected",
      "type": "event"
    },
    {
      "anonymous": false,
      "inputs": [
        {
          "indexed": true,
          "internalType": "address",
          "name": "token",
          "type": "address"
        },
        {
          "indexed": true,
          "internalType": "address",
          "name": "to",
          "type": "address"
        },
        {
          "indexed": false,
          "internalType": "uint256",
          "name": "value",
          "type": "uint256"
        },
        {
          "indexed": false,
          "internalType": "uint256",
          "name": "commission",
          "type": "uint256"
        }
      ],
      "name": "Withdrawal",
      "type": "event"
    },
    {
      "inputs": [
        {
          "internalType": "uint256",
          "name": "pubkey",
          "type": "uint256"
        }
      ],
      "name": "deposit",
      "outputs": [],
      "stateMutability": "payable",
      "type": "function"
    },
    {
      "inputs": [
        {
          "internalType": "address",
          "name": "token",
          "type": "address"
        },
        {
          "internalType": "uint256",
          "name": "value",
          "type": "uint256"
        },
        {
          "internalType": "uint256",
          "name": "pubkey",
          "type": "uint256"
        }
      ],
      "name": "depositERC20",
      "outputs": [],
      "stateMutability": "payable",
      "type": "function"
    },
    {
      "inputs": [],
      "name": "freezeDeposits",
      "outputs": [],
      "stateMutability": "payable",
      "type": "function"
    },
    {
      "inputs": [],
      "name": "gasPrice",
      "outputs": [
        {
          "internalType": "uint256",
          "name": "",
          "type": "uint256"
        }
      ],
      "stateMutability": "view",
      "type": "function"
    },
    {
      "inputs": [
        {
          "internalType": "address",
          "name": "token",
          "type": "address"
        },
        {
          "internalType": "address",
          "name": "recipient",
          "type": "address"
        }
      ],
      "name": "getERC20Approvement",
      "outputs": [
        {
          "internalType": "uint256",
          "name": "value",
          "type": "uint256"
        },
        {
          "internalType": "uint256",
          "name": "commission",
          "type": "uint256"
        }
      ],
      "stateMutability": "view",
      "type": "function"
    },
    {
      "inputs": [
        {
          "internalType": "uint256",
          "name": "proposalKey",
          "type": "uint256"
        },
        {
          "internalType": "address",
          "name": "myAddress",
          "type": "address"
        }
      ],
      "name": "getMyVoteForWithdrawal",
      "outputs": [
        {
          "internalType": "bool",
          "name": "isVoted",
          "type": "bool"
        }
      ],
      "stateMutability": "view",
      "type": "function"
    },
    {
      "inputs": [
        {
          "internalType": "uint256",
          "name": "proposalKey",
          "type": "uint256"
        }
      ],
      "name": "getProposal",
      "outputs": [
        {
          "internalType": "uint256",
          "name": "fromBlock",
          "type": "uint256"
        },
        {
          "internalType": "uint256",
          "name": "tillB",
          "type": "uint256"
        },
        {
          "components": [
            {
              "internalType": "address",
              "name": "token",
              "type": "address"
            },
            {
              "internalType": "address payable",
              "name": "to",
              "type": "address"
            },
            {
              "internalType": "uint256",
              "name": "value",
              "type": "uint256"
            },
            {
              "internalType": "uint256",
              "name": "trxHash",
              "type": "uint256"
            }
          ],
          "internalType": "struct Elock.Transfer[]",
          "name": "transfers",
          "type": "tuple[]"
        }
      ],
      "stateMutability": "view",
      "type": "function"
    },
    {
      "inputs": [],
      "name": "getProposalList",
      "outputs": [
        {
          "internalType": "uint256[]",
          "name": "proposalKeys",
          "type": "uint256[]"
        }
      ],
      "stateMutability": "view",
      "type": "function"
    },
    {
      "inputs": [],
      "name": "getProposedValidators",
      "outputs": [
        {
          "internalType": "address[]",
          "name": "proposedValidatorSet",
          "type": "address[]"
        }
      ],
      "stateMutability": "view",
      "type": "function"
    },
    {
      "inputs": [],
      "name": "getValidators",
      "outputs": [
        {
          "internalType": "address[]",
          "name": "currentValidatorSet",
          "type": "address[]"
        }
      ],
      "stateMutability": "view",
      "type": "function"
    },
    {
      "inputs": [
        {
          "internalType": "uint256",
          "name": "proposalKey",
          "type": "uint256"
        }
      ],
      "name": "getVotesForWithdrawal",
      "outputs": [
        {
          "internalType": "uint256",
          "name": "votes",
          "type": "uint256"
        }
      ],
      "stateMutability": "view",
      "type": "function"
    },
    {
      "inputs": [],
      "name": "lastProcessedL2Block",
      "outputs": [
        {
          "internalType": "uint256",
          "name": "",
          "type": "uint256"
        }
      ],
      "stateMutability": "view",
      "type": "function"
    },
    {
      "inputs": [],
      "name": "proposalWithdrawalFee",
      "outputs": [
        {
          "internalType": "uint256",
          "name": "",
          "type": "uint256"
        }
      ],
      "stateMutability": "view",
      "type": "function"
    },
    {
      "inputs": [
        {
          "internalType": "address[]",
          "name": "validatorSet",
          "type": "address[]"
        }
      ],
      "name": "proposeChangeValidators",
      "outputs": [],
      "stateMutability": "payable",
      "type": "function"
    },
    {
      "inputs": [
        {
          "internalType": "uint256",
          "name": "fromBlock",
          "type": "uint256"
        },
        {
          "internalType": "uint256",
          "name": "tillBlock",
          "type": "uint256"
        },
        {
          "components": [
            {
              "internalType": "address",
              "name": "token",
              "type": "address"
            },
            {
              "internalType": "address payable",
              "name": "to",
              "type": "address"
            },
            {
              "internalType": "uint256",
              "name": "value",
              "type": "uint256"
            },
            {
              "internalType": "uint256",
              "name": "trxHash",
              "type": "uint256"
            }
          ],
          "internalType": "struct Elock.Transfer[]",
          "name": "transfers",
          "type": "tuple[]"
        }
      ],
      "name": "proposeWithdrawal",
      "outputs": [],
      "stateMutability": "payable",
      "type": "function"
    },
    {
      "inputs": [
        {
          "internalType": "uint256",
          "name": "fee",
          "type": "uint256"
        }
      ],
      "name": "setProposalWithdrawalFee",
      "outputs": [],
      "stateMutability": "nonpayable",
      "type": "function"
    },
    {
      "inputs": [],
      "name": "totalSupply",
      "outputs": [
        {
          "internalType": "uint256",
          "name": "",
          "type": "uint256"
        }
      ],
      "stateMutability": "view",
      "type": "function"
    },
    {
      "inputs": [],
      "name": "trxDepositCount",
      "outputs": [
        {
          "internalType": "uint128",
          "name": "",
          "type": "uint128"
        }
      ],
      "stateMutability": "view",
      "type": "function"
    },
    {
      "inputs": [],
      "name": "trxWithdrawCount",
      "outputs": [
        {
          "internalType": "uint128",
          "name": "",
          "type": "uint128"
        }
      ],
      "stateMutability": "view",
      "type": "function"
    },
    {
      "inputs": [],
      "name": "unfreezeDeposits",
      "outputs": [],
      "stateMutability": "payable",
      "type": "function"
    },
    {
      "inputs": [
        {
          "internalType": "bool",
          "name": "vote",
          "type": "bool"
        }
      ],
      "name": "voteForChangeValidators",
      "outputs": [],
      "stateMutability": "payable",
      "type": "function"
    },
    {
      "inputs": [
        {
          "internalType": "uint256",
          "name": "proposalKey",
          "type": "uint256"
        }
      ],
      "name": "voteForWithdrawal",
      "outputs": [],
      "stateMutability": "payable",
      "type": "function"
    },
    {
      "inputs": [],
      "name": "votedForFreezeList",
      "outputs": [
        {
          "internalType": "address[]",
          "name": "",
          "type": "address[]"
        }
      ],
      "stateMutability": "view",
      "type": "function"
    },
    {
      "inputs": [
        {
          "internalType": "address",
          "name": "token",
          "type": "address"
        }
      ],
      "name": "withdrawERC20",
      "outputs": [],
      "stateMutability": "payable",
      "type": "function"
    },
    {
      "stateMutability": "payable",
      "type": "receive"
    }
  ],
  "bytecode": {
    "object": "0x60c060405262061a806018553480156200001857600080fd5b506040516200241b3803806200241b8339810160408190526200003b91620001f8565b600083116200004957600080fd5b60008151116200005857600080fd5b4340600255608083905260038390556001600160a01b03821660a05260005b8151811015620000e3576001600460008484815181106200009c576200009c620002eb565b6020908102919091018101516001600160a01b03168252810191909152604001600020805460ff191691151591909117905580620000da8162000317565b91505062000077565b508051620000f990601490602084019062000136565b508051620001079062000114565b600955506200036c915050565b60006200012360028362000333565b6200013090600162000356565b92915050565b8280548282559060005260206000209081019282156200018e579160200282015b828111156200018e57825182546001600160a01b0319166001600160a01b0390911617825560209092019160019091019062000157565b506200019c929150620001a0565b5090565b5b808211156200019c5760008155600101620001a1565b6001600160a01b0381168114620001cd57600080fd5b50565b634e487b7160e01b600052604160045260246000fd5b8051620001f381620001b7565b919050565b6000806000606084860312156200020e57600080fd5b835192506020808501516200022381620001b7565b60408601519093506001600160401b03808211156200024157600080fd5b818701915087601f8301126200025657600080fd5b8151818111156200026b576200026b620001d0565b8060051b604051601f19603f83011681018181108582111715620002935762000293620001d0565b60405291825284820192508381018501918a831115620002b257600080fd5b938501935b82851015620002db57620002cb85620001e6565b84529385019392850192620002b7565b8096505050505050509250925092565b634e487b7160e01b600052603260045260246000fd5b634e487b7160e01b600052601160045260246000fd5b6000600182016200032c576200032c62000301565b5060010190565b6000826200035157634e487b7160e01b600052601260045260246000fd5b500490565b8082018082111562000130576200013062000301565b60805160a05161208c6200038f60003960006117f301526000505061208c6000f3fe60806040526004361061014f5760003560e01c8063a2e22f0e116100b6578063c7f758a81161006f578063c7f758a8146103a6578063d00f128b146103d5578063ef8ae1f9146103e8578063f292f52b146103f0578063f4f3b20014610410578063fe173b971461042357600080fd5b8063a2e22f0e1461032c578063b6b55f251461034e578063b7ab4db514610361578063bb1b2ba214610376578063bcb999ca14610389578063c44339ce1461039157600080fd5b80634fb01f21116101085780634fb01f2114610269578063641840e11461029657806365581f50146102a957806369d914bc146102bf578063775087f2146102d5578063939947b81461030557600080fd5b806318160ddd1461015b57806321425ee01461018457806324c37d6e146101995780632d504537146101d1578063346750f314610234578063438f3b241461025657600080fd5b3661015657005b600080fd5b34801561016757600080fd5b5061017160005481565b6040519081526020015b60405180910390f35b610197610192366004611b36565b610436565b005b3480156101a557600080fd5b506001546101b9906001600160801b031681565b6040516001600160801b03909116815260200161017b565b3480156101dd57600080fd5b5061021f6101ec366004611b6b565b6001600160a01b039182166000908152601560209081526040808320939094168252919091522080546001909101549091565b6040805192835260208301919091520161017b565b34801561024057600080fd5b50610249610699565b60405161017b9190611ba4565b610197610264366004611be8565b6106f1565b34801561027557600080fd5b50610171610284366004611c6b565b6000908152600e602052604090205490565b6101976102a4366004611c92565b610887565b3480156102b557600080fd5b5061017160035481565b3480156102cb57600080fd5b5061017160185481565b3480156102e157600080fd5b506102f56102f0366004611cb6565b610991565b604051901515815260200161017b565b34801561031157600080fd5b506001546101b990600160801b90046001600160801b031681565b34801561033857600080fd5b506103416109be565b60405161017b9190611cdb565b61019761035c366004611c6b565b610a1f565b34801561036d57600080fd5b50610341610ad0565b610197610384366004611c6b565b610b30565b610197610cd2565b34801561039d57600080fd5b50610341610e9a565b3480156103b257600080fd5b506103c66103c1366004611c6b565b610efa565b60405161017b93929190611d1c565b6101976103e3366004611db1565b610fcb565b61019761104e565b3480156103fc57600080fd5b5061019761040b366004611c6b565b6111c4565b61019761041e366004611e76565b6111e4565b34801561042f57600080fd5b503a610171565b60125460ff161561044657600080fd5b6001600160a01b03831661045957600080fd5b604051636eb1769f60e11b81523360048201523060248201526000906001600160a01b0385169063dd62ed3e90604401602060405180830381865afa1580156104a6573d6000803e3d6000fd5b505050506040513d601f19601f820116820180604052508101906104ca9190611e93565b9050828110156105105760405162461bcd60e51b815260206004820152600c60248201526b139bdd08185c1c1c9bdd995960a21b60448201526064015b60405180910390fd5b6040516323b872dd60e01b8152336004820152306024820152604481018490526000906001600160a01b038616906323b872dd906064016020604051808303816000875af1158015610566573d6000803e3d6000fd5b505050506040513d601f19601f8201168201806040525081019061058a9190611eac565b9050806105cb5760405162461bcd60e51b815260206004820152600f60248201526e151c985b9cd9995c8819985a5b1959608a1b6044820152606401610507565b6001805481906000906105e89083906001600160801b0316611edf565b92506101000a8154816001600160801b0302191690836001600160801b031602179055508360166000876001600160a01b03166001600160a01b0316815260200190815260200160002060008282546106419190611f06565b909155505060408051338152602081018590529081018590526001600160a01b038616907ff5681f9d0db1b911ac18ee83d515a1cf1051853a9eae418316a2fdf7dea427c59060600160405180910390a25050505050565b606060088054806020026020016040519081016040528092919081815260200182805480156106e757602002820191906000526020600020905b8154815260200190600101908083116106d3575b5050505050905090565b3360009081526004602052604090205460ff16610720576040516282b42960e81b815260040160405180910390fd5b600354841461072e57600080fd5b604080516020808201879052818301869052825180830384018152606090920183528151828201206000818152600790925292902054909190156107b45760405162461bcd60e51b815260206004820152601760248201527f50726f706f73616c20616c7265616479206578697374730000000000000000006044820152606401610507565b600081815260076020526040812087815560018101879055905b8481101561082f57816002018686838181106107ec576107ec611f19565b83546001810185556000948552602090942060809091029290920192600402909101905061081a8282611f4f565b5050808061082790611f99565b9150506107ce565b50600880546001810182556000919091527ff3f7a9fe364faab93b216da50a3214154f22a0a2b415b23a84c8169e8b636ee301829055601854600f60008282546108799190611f06565b909155505050505050505050565b3360009081526004602052604090205460ff166108b6576040516282b42960e81b815260040160405180910390fd5b336000908152600a602052604090205460ff16156109065760405162461bcd60e51b815260206004820152600d60248201526c105b1c9958591e481d9bdd1959609a1b6044820152606401610507565b336000908152600a60205260409020805460ff191660011790558015610954576001600b60008282546109399190611f06565b9091555050600954600b541061095157610951611398565b50565b6001600c60008282546109679190611f06565b909155505060095460145461097c9190611fb2565b600c54111561095157610951600560006119de565b6000828152600d602090815260408083206001600160a01b038516845290915290205460ff165b92915050565b606060118054806020026020016040519081016040528092919081815260200182805480156106e757602002820191906000526020600020905b81546001600160a01b031681526001909101906020018083116109f8575050505050905090565b60125460ff1615610a2f57600080fd5b662386f26fc100003411610a4257600080fd5b60008054340181556001805490918291610a669083906001600160801b0316611edf565b82546101009290920a6001600160801b03818102199093169190921691909102179055506040805133815260208101839052348183015290516000917ff5681f9d0db1b911ac18ee83d515a1cf1051853a9eae418316a2fdf7dea427c5919081900360600190a250565b606060148054806020026020016040519081016040528092919081815260200182805480156106e7576020028201919060005260206000209081546001600160a01b031681526001909101906020018083116109f8575050505050905090565b3360009081526004602052604090205460ff16610b5f576040516282b42960e81b815260040160405180910390fd5b6000818152600760205260408120549003610bb35760405162461bcd60e51b8152602060048201526014602482015273556e6b6e6f776e2070726f706f73616c206b657960601b6044820152606401610507565b6000818152600d6020908152604080832033845290915281205460ff1615159003610c20576000818152600d602090815260408083203384528252808320805460ff19166001908117909155848452600e9092528220805491929091610c1a908490611f06565b90915550505b6009546000828152600e602052604090205410610951576000610c4282611494565b90508015610c9657600082815260076020526040902060010154600355610c6761186d565b60405182907f906f71466379a94b86a805004f5cc535b083a42e1a1582e29048cc78633d795590600090a25050565b60405160038152339083907fc93e352b0db2382529aa994f33e15a46c2761d27903172db06fcabd426ebc4889060200160405180910390a35050565b3360009081526004602052604090205460ff16610d01576040516282b42960e81b815260040160405180910390fd5b60125460ff1615610d545760405162461bcd60e51b815260206004820152601760248201527f4465706f73697420616c726561647920667265657a65640000000000000000006044820152606401610507565b600b5415610d745760405162461bcd60e51b815260040161050790611fc5565b60013360009081526010602052604090205460ff166002811115610d9a57610d9a612007565b03610da457600080fd5b600954601154610db5906001611f06565b10610e35576012805460ff1916600117905560005b601154811015610e2657600060118281548110610de957610de9611f19565b6000918252602080832091909101546001600160a01b031682526010905260409020805460ff191690555080610e1e81611f99565b915050610dca565b50610e33601160006119de565b565b33600090815260106020526040902080546001919060ff191682805b0217905550601180546001810182556000919091527f31ecc21a745e3968a04e9570e4425bc18fa8019c68028196b546d1669c200c680180546001600160a01b03191633179055565b606060058054806020026020016040519081016040528092919081815260200182805480156106e7576020028201919060005260206000209081546001600160a01b031681526001909101906020018083116109f8575050505050905090565b60008181526007602090815260408083208151606081810184528254825260018301548286015260028301805485518188028101880187528181528897939688969490860193919290879084015b82821015610faa576000848152602090819020604080516080810182526004860290920180546001600160a01b039081168452600180830154909116848601526002820154928401929092526003015460608301529083529092019101610f48565b50505091525050805160208201516040909201519097919650945092505050565b3360009081526004602052604090205460ff16610ffa576040516282b42960e81b815260040160405180910390fd5b6005541561100757600080fd5b600081511161101557600080fd5b80516110289060059060208401906119fc565b5060016006600082825461103c9190611f06565b90915550506000600b819055600c5550565b3360009081526004602052604090205460ff1661107d576040516282b42960e81b815260040160405180910390fd5b60125460ff1615156001146110d45760405162461bcd60e51b815260206004820152601960248201527f4465706f73697420616c726561647920756e667265657a6564000000000000006044820152606401610507565b600b54156110f45760405162461bcd60e51b815260040161050790611fc5565b60023360009081526010602052604090205460ff16600281111561111a5761111a612007565b0361112457600080fd5b600954601154611135906001611f06565b106111a3576012805460ff1916905560005b601154811015610e265760006011828154811061116657611166611f19565b6000918252602080832091909101546001600160a01b031682526010905260409020805460ff19169055508061119b81611f99565b915050611147565b33600090815260106020526040902080546002919060ff1916600183610e51565b600081116111d157600080fd5b60185481036111df57600080fd5b601855565b6001600160a01b03811660009081526015602090815260408083203384529091529020805461121257600080fd5b8060010154341461122257600080fd5b80546001808301546001600160a01b0385166000818152601560209081526040808320338085529252808320838155909501829055935163a9059cbb60e01b8152600481019490945260248401859052919263a9059cbb906044016020604051808303816000875af115801561129c573d6000803e3d6000fd5b505050506040513d601f19601f820116820180604052508101906112c09190611eac565b90508015611391576001805481906010906112ec908390600160801b90046001600160801b0316611edf565b92506101000a8154816001600160801b0302191690836001600160801b031602179055508260166000876001600160a01b03166001600160a01b0316815260200190815260200160002060008282546113459190611fb2565b9091555050604080518481526020810184905233916001600160a01b038816917fc2b4a290c20fb28939d29f102514fbffd2b73c059ffba8b78250c94161d5fcc6910160405180910390a35b5050505050565b60005b6014548110156113fa5760046000601483815481106113bc576113bc611f19565b60009182526020808320909101546001600160a01b031683528201929092526040019020805460ff19169055806113f281611f99565b91505061139b565b5060005b600554811015611467576001600460006005848154811061142157611421611f19565b6000918252602080832091909101546001600160a01b031683528201929092526040019020805460ff19169115159190911790558061145f81611f99565b9150506113fe565b506005805461147891601491611a61565b5060055461148590611964565b600955610e33600560006119de565b600081815260076020908152604080832060020180548251818502810185019093528083528493849084015b82821015611522576000848152602090819020604080516080810182526004860290920180546001600160a01b0390811684526001808301549091168486015260028201549284019290925260030154606083015290835290920191016114c0565b50505050905060008082513a600f5461153b919061201d565b6115459190612034565b90506000816115563a61520861201d565b6115609190611f06565b90506000806000805b87518110156115e75760006001600160a01b031688828151811061158f5761158f611f19565b6020026020010151600001516001600160a01b0316036115d5578781815181106115bb576115bb611f19565b602002602001015160400151876115d29190611f06565b96505b806115df81611f99565b915050611569565b50478611806115f7575060005486115b1561160b5750600098975050505050505050565b60005b875181101561175f57600088828151811061162b5761162b611f19565b602090810291909101015180519091506001600160a01b03166117345785816040015111156117105760008682604001516116669190611fb2565b60208301516040519192506001600160a01b03169082156108fc029083906000818181858888f193505050501580156116a3573d6000803e3d6000fd5b5081602001516001600160a01b031682600001516001600160a01b03167fc2b4a290c20fb28939d29f102514fbffd2b73c059ffba8b78250c94161d5fcc6838a6040516116fa929190918252602082015260400190565b60405180910390a361170c8887611f06565b9550505b61171b600185611edf565b935080604001518361172d9190611f06565b925061174c565b61174c8160000151826020015183604001518a61197c565b508061175781611f99565b91505061160e565b5081600160108282829054906101000a90046001600160801b03166117849190611edf565b92506101000a8154816001600160801b0302191690836001600160801b03160217905550806000808282546117b99190611fb2565b9250508190555082601360008282546117d29190611f06565b90915550506013546703782dace9d90000101561185e576001600160a01b037f0000000000000000000000000000000000000000000000000000000000000000166108fc6118223a61520861201d565b60135461182f9190611fb2565b6040518115909202916000818181858888f19350505050158015611857573d6000803e3d6000fd5b5060006013555b50600198975050505050505050565b60005b6008548110156119505760006008828154811061188f5761188f611f19565b600091825260208083209091015480835260079091526040822082815560018101839055909250906118c46002830182611aa1565b505060005b60145481101561192e576000601482815481106118e8576118e8611f19565b6000918252602080832090910154858352600d825260408084206001600160a01b03909216845291529020805460ff19169055508061192681611f99565b9150506118c9565b506000908152600e60205260408120558061194881611f99565b915050611870565b5061195d600860006119de565b6000600f55565b6000611971600283612034565b6109b8906001611f06565b6001600160a01b03808516600090815260156020908152604080832093871683529290529081208054909184918391906119b7908490611f06565b92505081905550818160010160008282546119d29190611f06565b90915550505050505050565b50805460008255906000526020600020908101906109519190611ac2565b828054828255906000526020600020908101928215611a51579160200282015b82811115611a5157825182546001600160a01b0319166001600160a01b03909116178255602090920191600190910190611a1c565b50611a5d929150611ac2565b5090565b828054828255906000526020600020908101928215611a515760005260206000209182015b82811115611a51578254825591600101919060010190611a86565b50805460008255600402906000526020600020908101906109519190611ad7565b5b80821115611a5d5760008155600101611ac3565b5b80821115611a5d5780546001600160a01b0319908116825560018201805490911690556000600282018190556003820155600401611ad8565b6001600160a01b038116811461095157600080fd5b8035611b3181611b11565b919050565b600080600060608486031215611b4b57600080fd5b8335611b5681611b11565b95602085013595506040909401359392505050565b60008060408385031215611b7e57600080fd5b8235611b8981611b11565b91506020830135611b9981611b11565b809150509250929050565b6020808252825182820181905260009190848201906040850190845b81811015611bdc57835183529284019291840191600101611bc0565b50909695505050505050565b60008060008060608587031215611bfe57600080fd5b8435935060208501359250604085013567ffffffffffffffff80821115611c2457600080fd5b818701915087601f830112611c3857600080fd5b813581811115611c4757600080fd5b8860208260071b8501011115611c5c57600080fd5b95989497505060200194505050565b600060208284031215611c7d57600080fd5b5035919050565b801515811461095157600080fd5b600060208284031215611ca457600080fd5b8135611caf81611c84565b9392505050565b60008060408385031215611cc957600080fd5b823591506020830135611b9981611b11565b6020808252825182820181905260009190848201906040850190845b81811015611bdc5783516001600160a01b031683529284019291840191600101611cf7565b60006060808301868452602086818601526040838187015282875180855260809450848801915083890160005b82811015611d8a57815180516001600160a01b0390811686528782015116878601528581015186860152880151888501529286019290850190600101611d49565b50919b9a5050505050505050505050565b634e487b7160e01b600052604160045260246000fd5b60006020808385031215611dc457600080fd5b823567ffffffffffffffff80821115611ddc57600080fd5b818501915085601f830112611df057600080fd5b813581811115611e0257611e02611d9b565b8060051b604051601f19603f83011681018181108582111715611e2757611e27611d9b565b604052918252848201925083810185019188831115611e4557600080fd5b938501935b82851015611e6a57611e5b85611b26565b84529385019392850192611e4a565b98975050505050505050565b600060208284031215611e8857600080fd5b8135611caf81611b11565b600060208284031215611ea557600080fd5b5051919050565b600060208284031215611ebe57600080fd5b8151611caf81611c84565b634e487b7160e01b600052601160045260246000fd5b6001600160801b03818116838216019080821115611eff57611eff611ec9565b5092915050565b808201808211156109b8576109b8611ec9565b634e487b7160e01b600052603260045260246000fd5b80546001600160a01b0319166001600160a01b0392909216919091179055565b8135611f5a81611b11565b611f648183611f2f565b506020820135611f7381611b11565b611f808160018401611f2f565b5060408201356002820155606082013560038201555050565b600060018201611fab57611fab611ec9565b5060010190565b818103818111156109b8576109b8611ec9565b60208082526022908201527f56616c696461746f7273206368616e67696e6720697320696e2070726f677265604082015261737360f01b606082015260800190565b634e487b7160e01b600052602160045260246000fd5b80820281158282048414176109b8576109b8611ec9565b60008261205157634e487b7160e01b600052601260045260246000fd5b50049056fea2646970667358221220d2b9907366f035d00621b75bba5d41e3fd4c55bdde661f50958397ccc52815be64736f6c63430008150033",
    "linkReferences": {}
  },
  "methodIdentifiers": {
    "deposit(uint256)": "b6b55f25",
    "depositERC20(address,uint256,uint256)": "21425ee0",
    "freezeDeposits()": "bcb999ca",
    "gasPrice()": "fe173b97",
    "getERC20Approvement(address,address)": "2d504537",
    "getMyVoteForWithdrawal(uint256,address)": "775087f2",
    "getProposal(uint256)": "c7f758a8",
    "getProposalList()": "346750f3",
    "getProposedValidators()": "c44339ce",
    "getValidators()": "b7ab4db5",
    "getVotesForWithdrawal(uint256)": "4fb01f21",
    "lastProcessedL2Block()": "65581f50",
    "proposalWithdrawalFee()": "69d914bc",
    "proposeChangeValidators(address[])": "d00f128b",
    "proposeWithdrawal(uint256,uint256,(address,address,uint256,uint256)[])": "438f3b24",
    "setProposalWithdrawalFee(uint256)": "f292f52b",
    "totalSupply()": "18160ddd",
    "trxDepositCount()": "24c37d6e",
    "trxWithdrawCount()": "939947b8",
    "unfreezeDeposits()": "ef8ae1f9",
    "voteForChangeValidators(bool)": "641840e1",
    "voteForWithdrawal(uint256)": "bb1b2ba2",
    "votedForFreezeList()": "a2e22f0e",
    "withdrawERC20(address)": "f4f3b200"
  },
  "id": 20
}