{
  "abi": [
    {
      "inputs": [
        {
          "internalType": "uint256",
          "name": "startBlock",
          "type": "uint256"
        },
        {
          "internalType": "address[]",
          "name": "validatorSet",
          "type": "address[]"
        }
      ],
      "stateMutability": "nonpayable",
      "type": "constructor"
    },
    {
      "inputs": [],
      "name": "Unauthorized",
      "type": "error"
    },
    {
      "inputs": [
        {
          "internalType": "uint256",
          "name": "pubkey",
          "type": "uint256"
        }
      ],
      "name": "deposit",
      "outputs": [],
      "stateMutability": "payable",
      "type": "function"
    },
    {
      "inputs": [
        {
          "internalType": "uint256",
          "name": "proposalKey",
          "type": "uint256"
        }
      ],
      "name": "getProposal",
      "outputs": [
        {
          "internalType": "uint256",
          "name": "fromBlock",
          "type": "uint256"
        },
        {
          "internalType": "uint256",
          "name": "tillB",
          "type": "uint256"
        },
        {
          "components": [
            {
              "internalType": "address payable",
              "name": "to",
              "type": "address"
            },
            {
              "internalType": "uint256",
              "name": "value",
              "type": "uint256"
            },
            {
              "internalType": "uint256",
              "name": "trxHash",
              "type": "uint256"
            }
          ],
          "internalType": "struct Elock.Transfer[]",
          "name": "transfers",
          "type": "tuple[]"
        }
      ],
      "stateMutability": "view",
      "type": "function"
    },
    {
      "inputs": [],
      "name": "getProposalList",
      "outputs": [
        {
          "internalType": "uint256[]",
          "name": "proposalKeys",
          "type": "uint256[]"
        }
      ],
      "stateMutability": "view",
      "type": "function"
    },
    {
      "inputs": [],
      "name": "getProposedValidators",
      "outputs": [
        {
          "internalType": "address[]",
          "name": "proposedValidatorSet",
          "type": "address[]"
        }
      ],
      "stateMutability": "view",
      "type": "function"
    },
    {
      "inputs": [],
      "name": "getValidators",
      "outputs": [
        {
          "internalType": "address[]",
          "name": "currentValidatorSet",
          "type": "address[]"
        }
      ],
      "stateMutability": "view",
      "type": "function"
    },
    {
      "inputs": [],
      "name": "lastProcessedBlock",
      "outputs": [
        {
          "internalType": "uint256",
          "name": "",
          "type": "uint256"
        }
      ],
      "stateMutability": "view",
      "type": "function"
    },
    {
      "inputs": [
        {
          "internalType": "address[]",
          "name": "validatorSet",
          "type": "address[]"
        }
      ],
      "name": "proposeChangeValidators",
      "outputs": [],
      "stateMutability": "nonpayable",
      "type": "function"
    },
    {
      "inputs": [
        {
          "internalType": "uint256",
          "name": "fromBlock",
          "type": "uint256"
        },
        {
          "internalType": "uint256",
          "name": "tillBlock",
          "type": "uint256"
        },
        {
          "components": [
            {
              "internalType": "address payable",
              "name": "to",
              "type": "address"
            },
            {
              "internalType": "uint256",
              "name": "value",
              "type": "uint256"
            },
            {
              "internalType": "uint256",
              "name": "trxHash",
              "type": "uint256"
            }
          ],
          "internalType": "struct Elock.Transfer[]",
          "name": "transfers",
          "type": "tuple[]"
        }
      ],
      "name": "proposeWithdrawal",
      "outputs": [],
      "stateMutability": "nonpayable",
      "type": "function"
    },
    {
      "inputs": [],
      "name": "totalSupply",
      "outputs": [
        {
          "internalType": "uint256",
          "name": "",
          "type": "uint256"
        }
      ],
      "stateMutability": "view",
      "type": "function"
    },
    {
      "inputs": [],
      "name": "trxDepositCount",
      "outputs": [
        {
          "internalType": "uint128",
          "name": "",
          "type": "uint128"
        }
      ],
      "stateMutability": "view",
      "type": "function"
    },
    {
      "inputs": [],
      "name": "trxWithdrawCount",
      "outputs": [
        {
          "internalType": "uint128",
          "name": "",
          "type": "uint128"
        }
      ],
      "stateMutability": "view",
      "type": "function"
    },
    {
      "inputs": [],
      "name": "voteForChangeValidators",
      "outputs": [],
      "stateMutability": "nonpayable",
      "type": "function"
    },
    {
      "inputs": [
        {
          "internalType": "uint256",
          "name": "proposalKey",
          "type": "uint256"
        }
      ],
      "name": "voteForWithdrawal",
      "outputs": [],
      "stateMutability": "nonpayable",
      "type": "function"
    }
  ],
  "bytecode": {
    "object": "0x60806040523480156200001157600080fd5b506040516200136538038062001365833981016040819052620000349162000179565b60008151116200004357600080fd5b434060025560038290556004829055805162000067906005906020840190620000ca565b508051620000759062000081565b600955506200029e9050565b6000816001036200009457506001919050565b60038211620000a557506002919050565b620000b260028362000259565b620000bf9060016200027c565b92915050565b919050565b82805482825590600052602060002090810192821562000122579160200282015b828111156200012257825182546001600160a01b0319166001600160a01b03909116178255602090920191600190910190620000eb565b506200013092915062000134565b5090565b5b8082111562000130576000815560010162000135565b634e487b7160e01b600052604160045260246000fd5b80516001600160a01b0381168114620000c557600080fd5b600080604083850312156200018d57600080fd5b8251602080850151919350906001600160401b0380821115620001af57600080fd5b818601915086601f830112620001c457600080fd5b815181811115620001d957620001d96200014b565b8060051b604051601f19603f830116810181811085821117156200020157620002016200014b565b6040529182528482019250838101850191898311156200022057600080fd5b938501935b828510156200024957620002398562000161565b8452938501939285019262000225565b8096505050505050509250929050565b6000826200027757634e487b7160e01b600052601260045260246000fd5b500490565b80820180821115620000bf57634e487b7160e01b600052601160045260246000fd5b6110b780620002ae6000396000f3fe6080604052600436106100c25760003560e01c8063b6b55f251161007f578063c44339ce11610059578063c44339ce146101fe578063c7f758a814610213578063c9ce336714610242578063d00f128b1461025757600080fd5b8063b6b55f25146101a9578063b7ab4db5146101bc578063bb1b2ba2146101de57600080fd5b806318160ddd146100c757806324862ea9146100f057806324c37d6e1461011257806333de61d21461014a578063346750f314610160578063939947b814610182575b600080fd5b3480156100d357600080fd5b506100dd60005481565b6040519081526020015b60405180910390f35b3480156100fc57600080fd5b5061011061010b366004610d01565b610277565b005b34801561011e57600080fd5b50600154610132906001600160801b031681565b6040516001600160801b0390911681526020016100e7565b34801561015657600080fd5b506100dd60045481565b34801561016c57600080fd5b506101756103f4565b6040516100e79190610d84565b34801561018e57600080fd5b5060015461013290600160801b90046001600160801b031681565b6101106101b7366004610dc8565b61044c565b3480156101c857600080fd5b506101d16104a4565b6040516100e79190610de1565b3480156101ea57600080fd5b506101106101f9366004610dc8565b610505565b34801561020a57600080fd5b506101d1610603565b34801561021f57600080fd5b5061023361022e366004610dc8565b610663565b6040516100e793929190610e22565b34801561024e57600080fd5b50610110610727565b34801561026357600080fd5b50610110610272366004610eca565b6107e6565b61028033610839565b61029c576040516282b42960e81b815260040160405180910390fd5b600454156102b25760045484146102b257600080fd5b6040805160208082018790528183018690528251808303840181526060909201835281518282012060008181526007909252929020549091901561033d5760405162461bcd60e51b815260206004820152601760248201527f50726f706f73616c20616c72656164792065786973747300000000000000000060448201526064015b60405180910390fd5b600081815260076020526040812087815560018101879055905b848110156103b8578160020186868381811061037557610375610f8f565b8354600181018555600094855260209094206060909102929092019260030290910190506103a38282610fa5565b505080806103b090610ff9565b915050610357565b5050600880546001810182556000919091527ff3f7a9fe364faab93b216da50a3214154f22a0a2b415b23a84c8169e8b636ee301555050505050565b6060600880548060200260200160405190810160405280929190818152602001828054801561044257602002820191906000526020600020905b81548152602001906001019080831161042e575b5050505050905090565b6064341161045957600080fd5b6000805434018155600180549091829161047d9083906001600160801b0316611012565b92506101000a8154816001600160801b0302191690836001600160801b0316021790555050565b6060600580548060200260200160405190810160405280929190818152602001828054801561044257602002820191906000526020600020905b81546001600160a01b031681526001909101906020018083116104de575050505050905090565b61050e33610839565b61052a576040516282b42960e81b815260040160405180910390fd5b6000818152600c6020908152604080832033845290915290205460ff16156105845760405162461bcd60e51b815260206004820152600d60248201526c105b1c9958591e481d9bdd1959609a1b6044820152606401610334565b6000818152600c602090815260408083203384528252808320805460ff19166001908117909155848452600d90925282208054919290916105c6908490611039565b90915550506009546000828152600d6020526040902054106106005760006105ed8261089d565b905080156105fe576105fe82610a73565b505b50565b60606006805480602002602001604051908101604052809291908181526020018280548015610442576020028201919060005260206000209081546001600160a01b031681526001909101906020018083116104de575050505050905090565b60008181526007602090815260408083208151606081810184528254825260018301548286015260028301805485518188028101880187528181528897939688969490860193919290879084015b82821015610706576000848152602090819020604080516060810182526003860290920180546001600160a01b03168352600180820154848601526002909101549183019190915290835290920191016106b1565b50505091525050805160208201516040909201519097919650945092505050565b61073033610839565b61074c576040516282b42960e81b815260040160405180910390fd5b336000908152600a602052604090205460ff161561079c5760405162461bcd60e51b815260206004820152600d60248201526c105b1c9958591e481d9bdd1959609a1b6044820152606401610334565b336000908152600a60205260408120805460ff19166001908117909155600b8054919290916107cc908490611039565b9091555050600954600b54106107e4576107e4610b6b565b565b6107ef33610839565b61080b576040516282b42960e81b815260040160405180910390fd5b6006541561081857600080fd5b600081511161082657600080fd5b80516105fe906006906020840190610bdf565b6000805b600554811015610894576005818154811061085a5761085a610f8f565b6000918252602090912001546001600160a01b03908116908416036108825750600192915050565b8061088c81610ff9565b91505061083d565b50600092915050565b600081815260076020908152604080832060020180548251818502810185019093528083528493849084015b8282101561091e576000848152602090819020604080516060810182526003860290920180546001600160a01b03168352600180820154848601526002909101549183019190915290835290920191016108c9565b505050509050600080600090505b82518110156109725782818151811061094757610947610f8f565b6020026020010151602001518261095e9190611039565b91508061096a81610ff9565b91505061092c565b5047811115610985575060009392505050565b60005b8251811015610a685760008382815181106109a5576109a5610f8f565b6020026020010151905080600001516001600160a01b03166108fc82602001519081150290604051600060405180830381858888f193505050501580156109f0573d6000803e3d6000fd5b50600180548190601090610a15908390600160801b90046001600160801b0316611012565b92506101000a8154816001600160801b0302191690836001600160801b031602179055508060200151600080828254610a4e919061104c565b90915550829150610a60905081610ff9565b915050610988565b506001949350505050565b6000818152600760205260408120546004555b600854811015610b5957600060088281548110610aa557610aa5610f8f565b60009182526020808320909101548083526007909152604082208281556001810183905590925090610ada6002830182610c44565b505060005b600554811015610b4457600060058281548110610afe57610afe610f8f565b6000918252602080832090910154858352600c825260408084206001600160a01b03909216845291529020805460ff191690555080610b3c81610ff9565b915050610adf565b50508080610b5190610ff9565b915050610a86565b506000908152600d6020526040812055565b6000600b5560068054610b8091600591610c65565b50600654610b8d90610b9c565b6009556107e460066000610ca5565b600081600103610bae57506001919050565b60038211610bbe57506002919050565b610bc960028361105f565b610bd4906001611039565b92915050565b919050565b828054828255906000526020600020908101928215610c34579160200282015b82811115610c3457825182546001600160a01b0319166001600160a01b03909116178255602090920191600190910190610bff565b50610c40929150610cbf565b5090565b50805460008255600302906000526020600020908101906106009190610cd4565b828054828255906000526020600020908101928215610c345760005260206000209182015b82811115610c34578254825591600101919060010190610c8a565b508054600082559060005260206000209081019061060091905b5b80821115610c405760008155600101610cc0565b5b80821115610c405780546001600160a01b03191681556000600182018190556002820155600301610cd5565b60008060008060608587031215610d1757600080fd5b8435935060208501359250604085013567ffffffffffffffff80821115610d3d57600080fd5b818701915087601f830112610d5157600080fd5b813581811115610d6057600080fd5b886020606083028501011115610d7557600080fd5b95989497505060200194505050565b6020808252825182820181905260009190848201906040850190845b81811015610dbc57835183529284019291840191600101610da0565b50909695505050505050565b600060208284031215610dda57600080fd5b5035919050565b6020808252825182820181905260009190848201906040850190845b81811015610dbc5783516001600160a01b031683529284019291840191600101610dfd565b600060608083018684526020868186015260408381870152828751808552608088019150838901945060005b81811015610e8457855180516001600160a01b031684528581015186850152840151848401529484019491860191600101610e4e565b50909a9950505050505050505050565b634e487b7160e01b600052604160045260246000fd5b6001600160a01b038116811461060057600080fd5b8035610bda81610eaa565b60006020808385031215610edd57600080fd5b823567ffffffffffffffff80821115610ef557600080fd5b818501915085601f830112610f0957600080fd5b813581811115610f1b57610f1b610e94565b8060051b604051601f19603f83011681018181108582111715610f4057610f40610e94565b604052918252848201925083810185019188831115610f5e57600080fd5b938501935b82851015610f8357610f7485610ebf565b84529385019392850192610f63565b98975050505050505050565b634e487b7160e01b600052603260045260246000fd5b8135610fb081610eaa565b81546001600160a01b0319166001600160a01b039190911617815560208201356001820155604090910135600290910155565b634e487b7160e01b600052601160045260246000fd5b60006001820161100b5761100b610fe3565b5060010190565b6001600160801b0381811683821601908082111561103257611032610fe3565b5092915050565b80820180821115610bd457610bd4610fe3565b81810381811115610bd457610bd4610fe3565b60008261107c57634e487b7160e01b600052601260045260246000fd5b50049056fea264697066735822122062bdbd67a0a9f1daf0db147cc7ed9afa04980f193cd87bdd0ad000c3bcef934964736f6c63430008150033",
    "linkReferences": {}
  },
  "methodIdentifiers": {
    "deposit(uint256)": "b6b55f25",
    "getProposal(uint256)": "c7f758a8",
    "getProposalList()": "346750f3",
    "getProposedValidators()": "c44339ce",
    "getValidators()": "b7ab4db5",
    "lastProcessedBlock()": "33de61d2",
    "proposeChangeValidators(address[])": "d00f128b",
    "proposeWithdrawal(uint256,uint256,(address,uint256,uint256)[])": "24862ea9",
    "totalSupply()": "18160ddd",
    "trxDepositCount()": "24c37d6e",
    "trxWithdrawCount()": "939947b8",
    "voteForChangeValidators()": "c9ce3367",
    "voteForWithdrawal(uint256)": "bb1b2ba2"
  },
  "id": 18
}