{
  "abi": [
    {
      "inputs": [
        {
          "internalType": "uint256",
          "name": "startBlock",
          "type": "uint256"
        },
        {
          "internalType": "address[]",
          "name": "validatorSet",
          "type": "address[]"
        }
      ],
      "stateMutability": "nonpayable",
      "type": "constructor"
    },
    {
      "inputs": [],
      "name": "Unauthorized",
      "type": "error"
    },
    {
      "inputs": [
        {
          "internalType": "uint256",
          "name": "pubkey",
          "type": "uint256"
        }
      ],
      "name": "deposit",
      "outputs": [],
      "stateMutability": "payable",
      "type": "function"
    },
    {
      "inputs": [
        {
          "internalType": "uint256",
          "name": "proposalKey",
          "type": "uint256"
        }
      ],
      "name": "getProposal",
      "outputs": [
        {
          "internalType": "uint256",
          "name": "fromBlock",
          "type": "uint256"
        },
        {
          "internalType": "uint256",
          "name": "tillB",
          "type": "uint256"
        },
        {
          "components": [
            {
              "internalType": "address payable",
              "name": "to",
              "type": "address"
            },
            {
              "internalType": "uint256",
              "name": "value",
              "type": "uint256"
            },
            {
              "internalType": "uint256",
              "name": "trxHash",
              "type": "uint256"
            }
          ],
          "internalType": "struct Elock.Transfer[]",
          "name": "transfers",
          "type": "tuple[]"
        }
      ],
      "stateMutability": "view",
      "type": "function"
    },
    {
      "inputs": [],
      "name": "getProposalList",
      "outputs": [
        {
          "internalType": "uint256[]",
          "name": "proposalKeys",
          "type": "uint256[]"
        }
      ],
      "stateMutability": "view",
      "type": "function"
    },
    {
      "inputs": [],
      "name": "getProposedValidators",
      "outputs": [
        {
          "internalType": "address[]",
          "name": "proposedValidatorSet",
          "type": "address[]"
        }
      ],
      "stateMutability": "view",
      "type": "function"
    },
    {
      "inputs": [],
      "name": "getValidators",
      "outputs": [
        {
          "internalType": "address[]",
          "name": "currentValidatorSet",
          "type": "address[]"
        }
      ],
      "stateMutability": "view",
      "type": "function"
    },
    {
      "inputs": [],
      "name": "lastProcessedBlock",
      "outputs": [
        {
          "internalType": "uint256",
          "name": "",
          "type": "uint256"
        }
      ],
      "stateMutability": "view",
      "type": "function"
    },
    {
      "inputs": [
        {
          "internalType": "address[]",
          "name": "validatorSet",
          "type": "address[]"
        }
      ],
      "name": "proposeChangeValidators",
      "outputs": [],
      "stateMutability": "payable",
      "type": "function"
    },
    {
      "inputs": [
        {
          "internalType": "uint256",
          "name": "fromBlock",
          "type": "uint256"
        },
        {
          "internalType": "uint256",
          "name": "tillBlock",
          "type": "uint256"
        },
        {
          "components": [
            {
              "internalType": "address payable",
              "name": "to",
              "type": "address"
            },
            {
              "internalType": "uint256",
              "name": "value",
              "type": "uint256"
            },
            {
              "internalType": "uint256",
              "name": "trxHash",
              "type": "uint256"
            }
          ],
          "internalType": "struct Elock.Transfer[]",
          "name": "transfers",
          "type": "tuple[]"
        }
      ],
      "name": "proposeWithdrawal",
      "outputs": [],
      "stateMutability": "payable",
      "type": "function"
    },
    {
      "inputs": [],
      "name": "totalSupply",
      "outputs": [
        {
          "internalType": "uint256",
          "name": "",
          "type": "uint256"
        }
      ],
      "stateMutability": "view",
      "type": "function"
    },
    {
      "inputs": [],
      "name": "trxDepositCount",
      "outputs": [
        {
          "internalType": "uint128",
          "name": "",
          "type": "uint128"
        }
      ],
      "stateMutability": "view",
      "type": "function"
    },
    {
      "inputs": [],
      "name": "trxWithdrawCount",
      "outputs": [
        {
          "internalType": "uint128",
          "name": "",
          "type": "uint128"
        }
      ],
      "stateMutability": "view",
      "type": "function"
    },
    {
      "inputs": [],
      "name": "voteForChangeValidators",
      "outputs": [],
      "stateMutability": "payable",
      "type": "function"
    },
    {
      "inputs": [
        {
          "internalType": "uint256",
          "name": "proposalKey",
          "type": "uint256"
        }
      ],
      "name": "voteForWithdrawal",
      "outputs": [],
      "stateMutability": "payable",
      "type": "function"
    },
    {
      "stateMutability": "payable",
      "type": "receive"
    }
  ],
  "bytecode": {
    "object": "0x60806040523480156200001157600080fd5b506040516200139e3803806200139e833981016040819052620000349162000179565b60008151116200004357600080fd5b434060025560038290556004829055805162000067906005906020840190620000ca565b508051620000759062000081565b600955506200029e9050565b6000816001036200009457506001919050565b60038211620000a557506002919050565b620000b260028362000259565b620000bf9060016200027c565b92915050565b919050565b82805482825590600052602060002090810192821562000122579160200282015b828111156200012257825182546001600160a01b0319166001600160a01b03909116178255602090920191600190910190620000eb565b506200013092915062000134565b5090565b5b8082111562000130576000815560010162000135565b634e487b7160e01b600052604160045260246000fd5b80516001600160a01b0381168114620000c557600080fd5b600080604083850312156200018d57600080fd5b8251602080850151919350906001600160401b0380821115620001af57600080fd5b818601915086601f830112620001c457600080fd5b815181811115620001d957620001d96200014b565b8060051b604051601f19603f830116810181811085821117156200020157620002016200014b565b6040529182528482019250838101850191898311156200022057600080fd5b938501935b828510156200024957620002398562000161565b8452938501939285019262000225565b8096505050505050509250929050565b6000826200027757634e487b7160e01b600052601260045260246000fd5b500490565b80820180821115620000bf57634e487b7160e01b600052601160045260246000fd5b6110f080620002ae6000396000f3fe6080604052600436106100c65760003560e01c8063b6b55f251161007f578063c44339ce11610059578063c44339ce146101ef578063c7f758a814610204578063c9ce336714610233578063d00f128b1461023b57600080fd5b8063b6b55f25146101a7578063b7ab4db5146101ba578063bb1b2ba2146101dc57600080fd5b806318160ddd146100d257806324862ea9146100fb57806324c37d6e1461011057806333de61d214610148578063346750f31461015e578063939947b81461018057600080fd5b366100cd57005b600080fd5b3480156100de57600080fd5b506100e860005481565b6040519081526020015b60405180910390f35b61010e610109366004610d3a565b61024e565b005b34801561011c57600080fd5b50600154610130906001600160801b031681565b6040516001600160801b0390911681526020016100f2565b34801561015457600080fd5b506100e860045481565b34801561016a57600080fd5b506101736103cb565b6040516100f29190610dbd565b34801561018c57600080fd5b5060015461013090600160801b90046001600160801b031681565b61010e6101b5366004610e01565b610423565b3480156101c657600080fd5b506101cf61047b565b6040516100f29190610e1a565b61010e6101ea366004610e01565b6104dc565b3480156101fb57600080fd5b506101cf610620565b34801561021057600080fd5b5061022461021f366004610e01565b610680565b6040516100f293929190610e5b565b61010e610744565b61010e610249366004610f03565b610803565b61025733610856565b610273576040516282b42960e81b815260040160405180910390fd5b6004541561028957600454841461028957600080fd5b604080516020808201879052818301869052825180830384018152606090920183528151828201206000818152600790925292902054909190156103145760405162461bcd60e51b815260206004820152601760248201527f50726f706f73616c20616c72656164792065786973747300000000000000000060448201526064015b60405180910390fd5b600081815260076020526040812087815560018101879055905b8481101561038f578160020186868381811061034c5761034c610fc8565b83546001810185556000948552602090942060609091029290920192600302909101905061037a8282610fde565b5050808061038790611032565b91505061032e565b5050600880546001810182556000919091527ff3f7a9fe364faab93b216da50a3214154f22a0a2b415b23a84c8169e8b636ee301555050505050565b6060600880548060200260200160405190810160405280929190818152602001828054801561041957602002820191906000526020600020905b815481526020019060010190808311610405575b5050505050905090565b6064341161043057600080fd5b600080543401815560018054909182916104549083906001600160801b031661104b565b92506101000a8154816001600160801b0302191690836001600160801b0316021790555050565b6060600580548060200260200160405190810160405280929190818152602001828054801561041957602002820191906000526020600020905b81546001600160a01b031681526001909101906020018083116104b5575050505050905090565b6104e533610856565b610501576040516282b42960e81b815260040160405180910390fd5b6000818152600c6020908152604080832033845290915290205460ff161561055b5760405162461bcd60e51b815260206004820152600d60248201526c105b1c9958591e481d9bdd1959609a1b604482015260640161030b565b6000818152600c602090815260408083203384528252808320805460ff19166001908117909155848452600d909252822080549192909161059d908490611072565b90915550506009546000828152600d60205260409020541061061d5760006105c4826108ba565b905080610612576000828152600c602090815260408083203384528252808320805460ff19169055848352600d9091528120805460019290610607908490611085565b9091555061061b9050565b61061b82610a9c565b505b50565b60606006805480602002602001604051908101604052809291908181526020018280548015610419576020028201919060005260206000209081546001600160a01b031681526001909101906020018083116104b5575050505050905090565b60008181526007602090815260408083208151606081810184528254825260018301548286015260028301805485518188028101880187528181528897939688969490860193919290879084015b82821015610723576000848152602090819020604080516060810182526003860290920180546001600160a01b03168352600180820154848601526002909101549183019190915290835290920191016106ce565b50505091525050805160208201516040909201519097919650945092505050565b61074d33610856565b610769576040516282b42960e81b815260040160405180910390fd5b336000908152600a602052604090205460ff16156107b95760405162461bcd60e51b815260206004820152600d60248201526c105b1c9958591e481d9bdd1959609a1b604482015260640161030b565b336000908152600a60205260408120805460ff19166001908117909155600b8054919290916107e9908490611072565b9091555050600954600b541061080157610801610ba0565b565b61080c33610856565b610828576040516282b42960e81b815260040160405180910390fd5b6006541561083557600080fd5b600081511161084357600080fd5b805161061b906006906020840190610c14565b6000805b6005548110156108b1576005818154811061087757610877610fc8565b6000918252602090912001546001600160a01b039081169084160361089f5750600192915050565b806108a981611032565b91505061085a565b50600092915050565b600081815260076020908152604080832060020180548251818502810185019093528083528493849084015b8282101561093b576000848152602090819020604080516060810182526003860290920180546001600160a01b03168352600180820154848601526002909101549183019190915290835290920191016108e6565b505050509050600080600090505b825181101561098f5782818151811061096457610964610fc8565b6020026020010151602001518261097b9190611072565b91508061098781611032565b915050610949565b504781118061099f575060005481115b156109ae575060009392505050565b60005b8251811015610a915760008382815181106109ce576109ce610fc8565b6020026020010151905080600001516001600160a01b03166108fc82602001519081150290604051600060405180830381858888f19350505050158015610a19573d6000803e3d6000fd5b50600180548190601090610a3e908390600160801b90046001600160801b031661104b565b92506101000a8154816001600160801b0302191690836001600160801b031602179055508060200151600080828254610a779190611085565b90915550829150610a89905081611032565b9150506109b1565b506001949350505050565b6000818152600760205260408120546004555b600854811015610b8257600060088281548110610ace57610ace610fc8565b60009182526020808320909101548083526007909152604082208281556001810183905590925090610b036002830182610c79565b505060005b600554811015610b6d57600060058281548110610b2757610b27610fc8565b6000918252602080832090910154858352600c825260408084206001600160a01b03909216845291529020805460ff191690555080610b6581611032565b915050610b08565b50508080610b7a90611032565b915050610aaf565b506000818152600d6020526040812081905561061d90600890610c9a565b6000600b5560068054610bb591600591610cb8565b50600654610bc290610bd1565b60095561080160066000610c9a565b600081600103610be357506001919050565b60038211610bf357506002919050565b610bfe600283611098565b610c09906001611072565b92915050565b919050565b828054828255906000526020600020908101928215610c69579160200282015b82811115610c6957825182546001600160a01b0319166001600160a01b03909116178255602090920191600190910190610c34565b50610c75929150610cf8565b5090565b508054600082556003029060005260206000209081019061061d9190610d0d565b508054600082559060005260206000209081019061061d9190610cf8565b828054828255906000526020600020908101928215610c695760005260206000209182015b82811115610c69578254825591600101919060010190610cdd565b5b80821115610c755760008155600101610cf9565b5b80821115610c755780546001600160a01b03191681556000600182018190556002820155600301610d0e565b60008060008060608587031215610d5057600080fd5b8435935060208501359250604085013567ffffffffffffffff80821115610d7657600080fd5b818701915087601f830112610d8a57600080fd5b813581811115610d9957600080fd5b886020606083028501011115610dae57600080fd5b95989497505060200194505050565b6020808252825182820181905260009190848201906040850190845b81811015610df557835183529284019291840191600101610dd9565b50909695505050505050565b600060208284031215610e1357600080fd5b5035919050565b6020808252825182820181905260009190848201906040850190845b81811015610df55783516001600160a01b031683529284019291840191600101610e36565b600060608083018684526020868186015260408381870152828751808552608088019150838901945060005b81811015610ebd57855180516001600160a01b031684528581015186850152840151848401529484019491860191600101610e87565b50909a9950505050505050505050565b634e487b7160e01b600052604160045260246000fd5b6001600160a01b038116811461061d57600080fd5b8035610c0f81610ee3565b60006020808385031215610f1657600080fd5b823567ffffffffffffffff80821115610f2e57600080fd5b818501915085601f830112610f4257600080fd5b813581811115610f5457610f54610ecd565b8060051b604051601f19603f83011681018181108582111715610f7957610f79610ecd565b604052918252848201925083810185019188831115610f9757600080fd5b938501935b82851015610fbc57610fad85610ef8565b84529385019392850192610f9c565b98975050505050505050565b634e487b7160e01b600052603260045260246000fd5b8135610fe981610ee3565b81546001600160a01b0319166001600160a01b039190911617815560208201356001820155604090910135600290910155565b634e487b7160e01b600052601160045260246000fd5b6000600182016110445761104461101c565b5060010190565b6001600160801b0381811683821601908082111561106b5761106b61101c565b5092915050565b80820180821115610c0957610c0961101c565b81810381811115610c0957610c0961101c565b6000826110b557634e487b7160e01b600052601260045260246000fd5b50049056fea2646970667358221220897d3198d90993b8e7929bdea34b3c578c4bf4b30862304eb537081f0769a5b064736f6c63430008150033",
    "linkReferences": {}
  },
  "methodIdentifiers": {
    "deposit(uint256)": "b6b55f25",
    "getProposal(uint256)": "c7f758a8",
    "getProposalList()": "346750f3",
    "getProposedValidators()": "c44339ce",
    "getValidators()": "b7ab4db5",
    "lastProcessedBlock()": "33de61d2",
    "proposeChangeValidators(address[])": "d00f128b",
    "proposeWithdrawal(uint256,uint256,(address,uint256,uint256)[])": "24862ea9",
    "totalSupply()": "18160ddd",
    "trxDepositCount()": "24c37d6e",
    "trxWithdrawCount()": "939947b8",
    "voteForChangeValidators()": "c9ce3367",
    "voteForWithdrawal(uint256)": "bb1b2ba2"
  },
  "id": 20
}