{
  "abi": [
    {
      "inputs": [
        {
          "internalType": "uint256",
          "name": "_initialL2Block",
          "type": "uint256"
        },
        {
          "internalType": "address payable",
          "name": "_commissionWallet",
          "type": "address"
        },
        {
          "internalType": "address[]",
          "name": "_goshValidators",
          "type": "address[]"
        }
      ],
      "stateMutability": "nonpayable",
      "type": "constructor"
    },
    {
      "inputs": [],
      "name": "Unauthorized",
      "type": "error"
    },
    {
      "anonymous": false,
      "inputs": [
        {
          "indexed": true,
          "internalType": "address",
          "name": "token",
          "type": "address"
        },
        {
          "indexed": false,
          "internalType": "address",
          "name": "from",
          "type": "address"
        },
        {
          "indexed": false,
          "internalType": "uint256",
          "name": "pubkey",
          "type": "uint256"
        }
      ],
      "name": "Deposited",
      "type": "event"
    },
    {
      "anonymous": false,
      "inputs": [
        {
          "indexed": true,
          "internalType": "uint256",
          "name": "proposalKey",
          "type": "uint256"
        }
      ],
      "name": "WithdrawExecuted",
      "type": "event"
    },
    {
      "anonymous": false,
      "inputs": [
        {
          "indexed": true,
          "internalType": "uint256",
          "name": "proposalKey",
          "type": "uint256"
        },
        {
          "indexed": true,
          "internalType": "address",
          "name": "voter",
          "type": "address"
        },
        {
          "indexed": false,
          "internalType": "uint8",
          "name": "reason",
          "type": "uint8"
        }
      ],
      "name": "WithdrawRejected",
      "type": "event"
    },
    {
      "anonymous": false,
      "inputs": [
        {
          "indexed": true,
          "internalType": "address",
          "name": "recepient",
          "type": "address"
        },
        {
          "indexed": false,
          "internalType": "uint256",
          "name": "value",
          "type": "uint256"
        },
        {
          "indexed": false,
          "internalType": "uint256",
          "name": "commission",
          "type": "uint256"
        }
      ],
      "name": "Withdrawal",
      "type": "event"
    },
    {
      "inputs": [
        {
          "internalType": "uint256",
          "name": "pubkey",
          "type": "uint256"
        }
      ],
      "name": "deposit",
      "outputs": [],
      "stateMutability": "payable",
      "type": "function"
    },
    {
      "inputs": [
        {
          "internalType": "address",
          "name": "tokenRoot",
          "type": "address"
        },
        {
          "internalType": "uint256",
          "name": "amount",
          "type": "uint256"
        },
        {
          "internalType": "uint256",
          "name": "pubkey",
          "type": "uint256"
        }
      ],
      "name": "depositERC20",
      "outputs": [],
      "stateMutability": "payable",
      "type": "function"
    },
    {
      "inputs": [],
      "name": "freezeDeposits",
      "outputs": [],
      "stateMutability": "payable",
      "type": "function"
    },
    {
      "inputs": [],
      "name": "gasPrice",
      "outputs": [
        {
          "internalType": "uint256",
          "name": "",
          "type": "uint256"
        }
      ],
      "stateMutability": "view",
      "type": "function"
    },
    {
      "inputs": [
        {
          "internalType": "uint256",
          "name": "proposalKey",
          "type": "uint256"
        },
        {
          "internalType": "address",
          "name": "myAddress",
          "type": "address"
        }
      ],
      "name": "getMyVoteForWithdrawal",
      "outputs": [
        {
          "internalType": "bool",
          "name": "isVoted",
          "type": "bool"
        }
      ],
      "stateMutability": "view",
      "type": "function"
    },
    {
      "inputs": [
        {
          "internalType": "uint256",
          "name": "proposalKey",
          "type": "uint256"
        }
      ],
      "name": "getProposal",
      "outputs": [
        {
          "internalType": "uint256",
          "name": "fromBlock",
          "type": "uint256"
        },
        {
          "internalType": "uint256",
          "name": "tillB",
          "type": "uint256"
        },
        {
          "components": [
            {
              "internalType": "address payable",
              "name": "to",
              "type": "address"
            },
            {
              "internalType": "uint256",
              "name": "value",
              "type": "uint256"
            },
            {
              "internalType": "uint256",
              "name": "trxHash",
              "type": "uint256"
            }
          ],
          "internalType": "struct Elock.Transfer[]",
          "name": "transfers",
          "type": "tuple[]"
        }
      ],
      "stateMutability": "view",
      "type": "function"
    },
    {
      "inputs": [],
      "name": "getProposalList",
      "outputs": [
        {
          "internalType": "uint256[]",
          "name": "proposalKeys",
          "type": "uint256[]"
        }
      ],
      "stateMutability": "view",
      "type": "function"
    },
    {
      "inputs": [],
      "name": "getProposedValidators",
      "outputs": [
        {
          "internalType": "address[]",
          "name": "proposedValidatorSet",
          "type": "address[]"
        }
      ],
      "stateMutability": "view",
      "type": "function"
    },
    {
      "inputs": [],
      "name": "getValidators",
      "outputs": [
        {
          "internalType": "address[]",
          "name": "currentValidatorSet",
          "type": "address[]"
        }
      ],
      "stateMutability": "view",
      "type": "function"
    },
    {
      "inputs": [
        {
          "internalType": "uint256",
          "name": "proposalKey",
          "type": "uint256"
        }
      ],
      "name": "getVotesForWithdrawal",
      "outputs": [
        {
          "internalType": "uint256",
          "name": "votes",
          "type": "uint256"
        }
      ],
      "stateMutability": "view",
      "type": "function"
    },
    {
      "inputs": [],
      "name": "lastProcessedL2Block",
      "outputs": [
        {
          "internalType": "uint256",
          "name": "",
          "type": "uint256"
        }
      ],
      "stateMutability": "view",
      "type": "function"
    },
    {
      "inputs": [
        {
          "internalType": "address[]",
          "name": "validatorSet",
          "type": "address[]"
        }
      ],
      "name": "proposeChangeValidators",
      "outputs": [],
      "stateMutability": "payable",
      "type": "function"
    },
    {
      "inputs": [
        {
          "internalType": "uint256",
          "name": "fromBlock",
          "type": "uint256"
        },
        {
          "internalType": "uint256",
          "name": "tillBlock",
          "type": "uint256"
        },
        {
          "components": [
            {
              "internalType": "address payable",
              "name": "to",
              "type": "address"
            },
            {
              "internalType": "uint256",
              "name": "value",
              "type": "uint256"
            },
            {
              "internalType": "uint256",
              "name": "trxHash",
              "type": "uint256"
            }
          ],
          "internalType": "struct Elock.Transfer[]",
          "name": "transfers",
          "type": "tuple[]"
        }
      ],
      "name": "proposeWithdrawal",
      "outputs": [],
      "stateMutability": "payable",
      "type": "function"
    },
    {
      "inputs": [],
      "name": "totalSupply",
      "outputs": [
        {
          "internalType": "uint256",
          "name": "",
          "type": "uint256"
        }
      ],
      "stateMutability": "view",
      "type": "function"
    },
    {
      "inputs": [],
      "name": "trxDepositCount",
      "outputs": [
        {
          "internalType": "uint128",
          "name": "",
          "type": "uint128"
        }
      ],
      "stateMutability": "view",
      "type": "function"
    },
    {
      "inputs": [],
      "name": "trxWithdrawCount",
      "outputs": [
        {
          "internalType": "uint128",
          "name": "",
          "type": "uint128"
        }
      ],
      "stateMutability": "view",
      "type": "function"
    },
    {
      "inputs": [],
      "name": "unfreezeDeposits",
      "outputs": [],
      "stateMutability": "payable",
      "type": "function"
    },
    {
      "inputs": [
        {
          "internalType": "bool",
          "name": "vote",
          "type": "bool"
        }
      ],
      "name": "voteForChangeValidators",
      "outputs": [],
      "stateMutability": "payable",
      "type": "function"
    },
    {
      "inputs": [
        {
          "internalType": "uint256",
          "name": "proposalKey",
          "type": "uint256"
        }
      ],
      "name": "voteForWithdrawal",
      "outputs": [],
      "stateMutability": "payable",
      "type": "function"
    },
    {
      "inputs": [],
      "name": "votedForFreezeList",
      "outputs": [
        {
          "internalType": "address[]",
          "name": "",
          "type": "address[]"
        }
      ],
      "stateMutability": "view",
      "type": "function"
    },
    {
      "stateMutability": "payable",
      "type": "receive"
    }
  ],
  "bytecode": {
    "object": "0x60c06040523480156200001157600080fd5b5060405162001ee338038062001ee38339810160408190526200003491620001f1565b600083116200004257600080fd5b60008151116200005157600080fd5b4340600255608083905260038390556001600160a01b03821660a05260005b8151811015620000dc57600160046000848481518110620000955762000095620002e4565b6020908102919091018101516001600160a01b03168252810191909152604001600020805460ff191691151591909117905580620000d38162000310565b91505062000070565b508051620000f29060149060208401906200012f565b50805162000100906200010d565b6009555062000365915050565b60006200011c6002836200032c565b620001299060016200034f565b92915050565b82805482825590600052602060002090810192821562000187579160200282015b828111156200018757825182546001600160a01b0319166001600160a01b0390911617825560209092019160019091019062000150565b506200019592915062000199565b5090565b5b808211156200019557600081556001016200019a565b6001600160a01b0381168114620001c657600080fd5b50565b634e487b7160e01b600052604160045260246000fd5b8051620001ec81620001b0565b919050565b6000806000606084860312156200020757600080fd5b835192506020808501516200021c81620001b0565b60408601519093506001600160401b03808211156200023a57600080fd5b818701915087601f8301126200024f57600080fd5b815181811115620002645762000264620001c9565b8060051b604051601f19603f830116810181811085821117156200028c576200028c620001c9565b60405291825284820192508381018501918a831115620002ab57600080fd5b938501935b82851015620002d457620002c485620001df565b84529385019392850192620002b0565b8096505050505050509250925092565b634e487b7160e01b600052603260045260246000fd5b634e487b7160e01b600052601160045260246000fd5b600060018201620003255762000325620002fa565b5060010190565b6000826200034a57634e487b7160e01b600052601260045260246000fd5b500490565b80820180821115620001295762000129620002fa565b60805160a051611b5b6200038860003960006113b8015260005050611b5b6000f3fe6080604052600436106101235760003560e01c8063a2e22f0e116100a0578063c44339ce11610064578063c44339ce146102ec578063c7f758a814610301578063d00f128b14610330578063ef8ae1f914610343578063fe173b971461034b57600080fd5b8063a2e22f0e14610287578063b6b55f25146102a9578063b7ab4db5146102bc578063bb1b2ba2146102d1578063bcb999ca146102e457600080fd5b80634fb01f21116100e75780634fb01f21146101da578063641840e11461020757806365581f501461021a578063775087f214610230578063939947b81461026057600080fd5b806318160ddd1461012f57806321425ee01461015857806324862ea91461016d57806324c37d6e14610180578063346750f3146101b857600080fd5b3661012a57005b600080fd5b34801561013b57600080fd5b5061014560005481565b6040519081526020015b60405180910390f35b61016b610166366004611689565b61035e565b005b61016b61017b3660046116be565b61053e565b34801561018c57600080fd5b506001546101a0906001600160801b031681565b6040516001600160801b03909116815260200161014f565b3480156101c457600080fd5b506101cd6106d5565b60405161014f9190611741565b3480156101e657600080fd5b506101456101f5366004611785565b6000908152600e602052604090205490565b61016b6102153660046117ac565b61072d565b34801561022657600080fd5b5061014560035481565b34801561023c57600080fd5b5061025061024b3660046117d0565b610837565b604051901515815260200161014f565b34801561026c57600080fd5b506001546101a090600160801b90046001600160801b031681565b34801561029357600080fd5b5061029c610864565b60405161014f9190611800565b61016b6102b7366004611785565b6108c5565b3480156102c857600080fd5b5061029c610933565b61016b6102df366004611785565b610993565b61016b610b35565b3480156102f857600080fd5b5061029c610cfd565b34801561030d57600080fd5b5061032161031c366004611785565b610d5d565b60405161014f93929190611841565b61016b61033e3660046118c9565b610e21565b61016b610ea4565b34801561035757600080fd5b503a610145565b60125460ff161561036e57600080fd5b6001600160a01b03831661038157600080fd5b604051636eb1769f60e11b81523360048201523060248201526000906001600160a01b0385169063dd62ed3e90604401602060405180830381865afa1580156103ce573d6000803e3d6000fd5b505050506040513d601f19601f820116820180604052508101906103f2919061198e565b9050828110156104385760405162461bcd60e51b815260206004820152600c60248201526b139bdd08185c1c1c9bdd995960a21b60448201526064015b60405180910390fd5b6040516323b872dd60e01b8152336004820152306024820152604481018490526000906001600160a01b038616906323b872dd906064016020604051808303816000875af115801561048e573d6000803e3d6000fd5b505050506040513d601f19601f820116820180604052508101906104b291906119a7565b9050806104f35760405162461bcd60e51b815260206004820152600f60248201526e151c985b9cd9995c8819985a5b1959608a1b604482015260640161042f565b60408051338152602081018590526001600160a01b038716917f8752a472e571a816aea92eec8dae9baf628e840f4929fbcc2d155e6233ff68a7910160405180910390a25050505050565b3360009081526004602052604090205460ff1661056d576040516282b42960e81b815260040160405180910390fd5b600354841461057b57600080fd5b604080516020808201879052818301869052825180830384018152606090920183528151828201206000818152600790925292902054909190156106015760405162461bcd60e51b815260206004820152601760248201527f50726f706f73616c20616c726561647920657869737473000000000000000000604482015260640161042f565b600081815260076020526040812087815560018101879055905b8481101561067c5781600201868683818110610639576106396119c4565b83546001810185556000948552602090942060609091029290920192600302909101905061066782826119da565b5050808061067490611a2e565b91505061061b565b50600880546001810182556000919091527ff3f7a9fe364faab93b216da50a3214154f22a0a2b415b23a84c8169e8b636ee30182905562061a80600f60008282546106c79190611a47565b909155505050505050505050565b6060600880548060200260200160405190810160405280929190818152602001828054801561072357602002820191906000526020600020905b81548152602001906001019080831161070f575b5050505050905090565b3360009081526004602052604090205460ff1661075c576040516282b42960e81b815260040160405180910390fd5b336000908152600a602052604090205460ff16156107ac5760405162461bcd60e51b815260206004820152600d60248201526c105b1c9958591e481d9bdd1959609a1b604482015260640161042f565b336000908152600a60205260409020805460ff1916600117905580156107fa576001600b60008282546107df9190611a47565b9091555050600954600b54106107f7576107f761101a565b50565b6001600c600082825461080d9190611a47565b90915550506009546014546108229190611a5a565b600c5411156107f7576107f76005600061153e565b6000828152600d602090815260408083206001600160a01b038516845290915290205460ff165b92915050565b6060601180548060200260200160405190810160405280929190818152602001828054801561072357602002820191906000526020600020905b81546001600160a01b0316815260019091019060200180831161089e575050505050905090565b60125460ff16156108d557600080fd5b662386f26fc1000034116108e857600080fd5b6000805434018155600180549091829161090c9083906001600160801b0316611a6d565b92506101000a8154816001600160801b0302191690836001600160801b0316021790555050565b60606014805480602002602001604051908101604052809291908181526020018280548015610723576020028201919060005260206000209081546001600160a01b0316815260019091019060200180831161089e575050505050905090565b3360009081526004602052604090205460ff166109c2576040516282b42960e81b815260040160405180910390fd5b6000818152600760205260408120549003610a165760405162461bcd60e51b8152602060048201526014602482015273556e6b6e6f776e2070726f706f73616c206b657960601b604482015260640161042f565b6000818152600d6020908152604080832033845290915281205460ff1615159003610a83576000818152600d602090815260408083203384528252808320805460ff19166001908117909155848452600e9092528220805491929091610a7d908490611a47565b90915550505b6009546000828152600e6020526040902054106107f7576000610aa582611116565b90508015610af957600082815260076020526040902060010154600355610aca61142f565b60405182907f906f71466379a94b86a805004f5cc535b083a42e1a1582e29048cc78633d795590600090a25050565b60405160038152339083907fc93e352b0db2382529aa994f33e15a46c2761d27903172db06fcabd426ebc4889060200160405180910390a35050565b3360009081526004602052604090205460ff16610b64576040516282b42960e81b815260040160405180910390fd5b60125460ff1615610bb75760405162461bcd60e51b815260206004820152601760248201527f4465706f73697420616c726561647920667265657a6564000000000000000000604482015260640161042f565b600b5415610bd75760405162461bcd60e51b815260040161042f90611a94565b60013360009081526010602052604090205460ff166002811115610bfd57610bfd611ad6565b03610c0757600080fd5b600954601154610c18906001611a47565b10610c98576012805460ff1916600117905560005b601154811015610c8957600060118281548110610c4c57610c4c6119c4565b6000918252602080832091909101546001600160a01b031682526010905260409020805460ff191690555080610c8181611a2e565b915050610c2d565b50610c966011600061153e565b565b33600090815260106020526040902080546001919060ff191682805b0217905550601180546001810182556000919091527f31ecc21a745e3968a04e9570e4425bc18fa8019c68028196b546d1669c200c680180546001600160a01b03191633179055565b60606005805480602002602001604051908101604052809291908181526020018280548015610723576020028201919060005260206000209081546001600160a01b0316815260019091019060200180831161089e575050505050905090565b60008181526007602090815260408083208151606081810184528254825260018301548286015260028301805485518188028101880187528181528897939688969490860193919290879084015b82821015610e00576000848152602090819020604080516060810182526003860290920180546001600160a01b0316835260018082015484860152600290910154918301919091529083529092019101610dab565b50505091525050805160208201516040909201519097919650945092505050565b3360009081526004602052604090205460ff16610e50576040516282b42960e81b815260040160405180910390fd5b60055415610e5d57600080fd5b6000815111610e6b57600080fd5b8051610e7e90600590602084019061155c565b50600160066000828254610e929190611a47565b90915550506000600b819055600c5550565b3360009081526004602052604090205460ff16610ed3576040516282b42960e81b815260040160405180910390fd5b60125460ff161515600114610f2a5760405162461bcd60e51b815260206004820152601960248201527f4465706f73697420616c726561647920756e667265657a656400000000000000604482015260640161042f565b600b5415610f4a5760405162461bcd60e51b815260040161042f90611a94565b60023360009081526010602052604090205460ff166002811115610f7057610f70611ad6565b03610f7a57600080fd5b600954601154610f8b906001611a47565b10610ff9576012805460ff1916905560005b601154811015610c8957600060118281548110610fbc57610fbc6119c4565b6000918252602080832091909101546001600160a01b031682526010905260409020805460ff191690555080610ff181611a2e565b915050610f9d565b33600090815260106020526040902080546002919060ff1916600183610cb4565b60005b60145481101561107c57600460006014838154811061103e5761103e6119c4565b60009182526020808320909101546001600160a01b031683528201929092526040019020805460ff191690558061107481611a2e565b91505061101d565b5060005b6005548110156110e957600160046000600584815481106110a3576110a36119c4565b6000918252602080832091909101546001600160a01b031683528201929092526040019020805460ff1916911515919091179055806110e181611a2e565b915050611080565b50600580546110fa916014916115c1565b5060055461110790611526565b600955610c966005600061153e565b600081815260076020908152604080832060020180548251818502810185019093528083528493849084015b82821015611197576000848152602090819020604080516060810182526003860290920180546001600160a01b0316835260018082015484860152600290910154918301919091529083529092019101611142565b5050505090506000803a600f546111ae9190611aec565b905060008351826111bf9190611b03565b6111cb3a615208611aec565b6111d59190611a47565b905060005b8451811015611220578481815181106111f5576111f56119c4565b6020026020010151602001518461120c9190611a47565b93508061121881611a2e565b9150506111da565b5047831180611230575060005483115b156112415750600095945050505050565b60005b8451811015611384576000858281518110611261576112616119c4565b60200260200101519050828160200151111561130d5760008382602001516112899190611a5a565b82516040519192506001600160a01b03169082156108fc029083906000818181858888f193505050501580156112c3573d6000803e3d6000fd5b50815160408051838152602081018790526001600160a01b03909216917fdf273cb619d95419a9cd0ec88123a0538c85064229baa6363788f743fff90deb910160405180910390a2505b600180548190601090611331908390600160801b90046001600160801b0316611a6d565b92506101000a8154816001600160801b0302191690836001600160801b03160217905550806020015160008082825461136a9190611a5a565b9091555082915061137c905081611a2e565b915050611244565b5081601360008282546113979190611a47565b90915550506013546703782dace9d900001015611423576001600160a01b037f0000000000000000000000000000000000000000000000000000000000000000166108fc6113e73a615208611aec565b6013546113f49190611a5a565b6040518115909202916000818181858888f1935050505015801561141c573d6000803e3d6000fd5b5060006013555b50600195945050505050565b60005b60085481101561151257600060088281548110611451576114516119c4565b600091825260208083209091015480835260079091526040822082815560018101839055909250906114866002830182611601565b505060005b6014548110156114f0576000601482815481106114aa576114aa6119c4565b6000918252602080832090910154858352600d825260408084206001600160a01b03909216845291529020805460ff1916905550806114e881611a2e565b91505061148b565b506000908152600e60205260408120558061150a81611a2e565b915050611432565b5061151f6008600061153e565b6000600f55565b6000611533600283611b03565b61085e906001611a47565b50805460008255906000526020600020908101906107f79190611622565b8280548282559060005260206000209081019282156115b1579160200282015b828111156115b157825182546001600160a01b0319166001600160a01b0390911617825560209092019160019091019061157c565b506115bd929150611622565b5090565b8280548282559060005260206000209081019282156115b15760005260206000209182015b828111156115b15782548255916001019190600101906115e6565b50805460008255600302906000526020600020908101906107f79190611637565b5b808211156115bd5760008155600101611623565b5b808211156115bd5780546001600160a01b03191681556000600182018190556002820155600301611638565b6001600160a01b03811681146107f757600080fd5b803561168481611664565b919050565b60008060006060848603121561169e57600080fd5b83356116a981611664565b95602085013595506040909401359392505050565b600080600080606085870312156116d457600080fd5b8435935060208501359250604085013567ffffffffffffffff808211156116fa57600080fd5b818701915087601f83011261170e57600080fd5b81358181111561171d57600080fd5b88602060608302850101111561173257600080fd5b95989497505060200194505050565b6020808252825182820181905260009190848201906040850190845b818110156117795783518352928401929184019160010161175d565b50909695505050505050565b60006020828403121561179757600080fd5b5035919050565b80151581146107f757600080fd5b6000602082840312156117be57600080fd5b81356117c98161179e565b9392505050565b600080604083850312156117e357600080fd5b8235915060208301356117f581611664565b809150509250929050565b6020808252825182820181905260009190848201906040850190845b818110156117795783516001600160a01b03168352928401929184019160010161181c565b600060608083018684526020868186015260408381870152828751808552608088019150838901945060005b818110156118a357855180516001600160a01b03168452858101518685015284015184840152948401949186019160010161186d565b50909a9950505050505050505050565b634e487b7160e01b600052604160045260246000fd5b600060208083850312156118dc57600080fd5b823567ffffffffffffffff808211156118f457600080fd5b818501915085601f83011261190857600080fd5b81358181111561191a5761191a6118b3565b8060051b604051601f19603f8301168101818110858211171561193f5761193f6118b3565b60405291825284820192508381018501918883111561195d57600080fd5b938501935b828510156119825761197385611679565b84529385019392850192611962565b98975050505050505050565b6000602082840312156119a057600080fd5b5051919050565b6000602082840312156119b957600080fd5b81516117c98161179e565b634e487b7160e01b600052603260045260246000fd5b81356119e581611664565b81546001600160a01b0319166001600160a01b039190911617815560208201356001820155604090910135600290910155565b634e487b7160e01b600052601160045260246000fd5b600060018201611a4057611a40611a18565b5060010190565b8082018082111561085e5761085e611a18565b8181038181111561085e5761085e611a18565b6001600160801b03818116838216019080821115611a8d57611a8d611a18565b5092915050565b60208082526022908201527f56616c696461746f7273206368616e67696e6720697320696e2070726f677265604082015261737360f01b606082015260800190565b634e487b7160e01b600052602160045260246000fd5b808202811582820484141761085e5761085e611a18565b600082611b2057634e487b7160e01b600052601260045260246000fd5b50049056fea26469706673582212200a38055f4a826d99a715cdbffcebda6a51d959360ccb956b9482857015909e1c64736f6c63430008150033",
    "linkReferences": {}
  },
  "methodIdentifiers": {
    "deposit(uint256)": "b6b55f25",
    "depositERC20(address,uint256,uint256)": "21425ee0",
    "freezeDeposits()": "bcb999ca",
    "gasPrice()": "fe173b97",
    "getMyVoteForWithdrawal(uint256,address)": "775087f2",
    "getProposal(uint256)": "c7f758a8",
    "getProposalList()": "346750f3",
    "getProposedValidators()": "c44339ce",
    "getValidators()": "b7ab4db5",
    "getVotesForWithdrawal(uint256)": "4fb01f21",
    "lastProcessedL2Block()": "65581f50",
    "proposeChangeValidators(address[])": "d00f128b",
    "proposeWithdrawal(uint256,uint256,(address,uint256,uint256)[])": "24862ea9",
    "totalSupply()": "18160ddd",
    "trxDepositCount()": "24c37d6e",
    "trxWithdrawCount()": "939947b8",
    "unfreezeDeposits()": "ef8ae1f9",
    "voteForChangeValidators(bool)": "641840e1",
    "voteForWithdrawal(uint256)": "bb1b2ba2",
    "votedForFreezeList()": "a2e22f0e"
  },
  "id": 18
}